:100000000C947D060C94A5060C94A5060C94A506EC
:100010000C94A5060C94A5060C94A5060C94A506B4
:100020000C94A5060C94A5060C94A5060C94A506A4
:100030000C94A5060C9466360C94A5060C94A506A3
:100040000C94FA2D0C94872E0C943D450C94A50627
:100050000C941F470C94AD470C94A5060C94A50670
:100060000C94A5060C94A5060C94A5060C94A50664
:100070000C9454470C94E8470C94A506000001002A
:100080000F0015000E001200FEFF160017000E00F4
:100090001300FFFF030002001A001400FFFFFFFF20
:1000A000FFFF0D000C00FFFF010000000E00070025
:1000B00006001F004563686F3A00556E6B6E6F77E0
:1000C0006E20636F6D6D616E643A006C696E656180
:1000D00072204C3A002C206D6F7665206166746545
:1000E00072203D20002C206261636B736C61736829
:1000F000203D20002C2072657472616374203D20C5
:10010000006D696E2064697374616E6365203D20C3
:10011000004F50532066617374206D6F64653A0020
:100120004F505320636C6173736963206D6F646516
:100130003A004F50532064697361626C6564002C0F
:100140002073706565643D00206C696E6561722086
:1001500073746570733A00465F4350552F783D00C5
:10016000205A4A65726B3A004A65726B3A004C201D
:10017000004820007A5F6D696E3A004C20004820EC
:1001800000795F6D696E3A004C2000482000785F6E
:100190006D696E3A004649524D574152455F4E4196
:1001A0004D453A52657065746965725F302E37311E
:1001B000204649524D574152455F55524C3A68745A
:1001C0007470733A2F2F6769746875622E636F6D50
:1001D0002F72657065746965722F526570657469F8
:1001E00065722D4669726D776172652F2050524F8E
:1001F000544F434F4C5F56455253494F4E3A312E60
:1002000030204D414348494E455F545950453A4D81
:10021000656E64656C2045585452554445525F43A1
:100220004F554E543A312052455045544945525F3E
:1002300050524F544F434F4C3A310020746F2000BE
:10024000536574206F75747075742000466C6F77F9
:100250004D756C7469706C793A0053706565644DC6
:10026000756C7469706C793A0020403A0020423A0B
:1002700000543A0020453A00205A3A0020593A00EA
:10028000583A00416476616E6365204C205B303DD6
:100290006F66665D0054656D702E207374616269CF
:1002A0006C697A652074696D65205B735D00592DFA
:1002B0006F6666736574205B73746570735D005858
:1002C0002D6F6666736574205B73746570735D0073
:1002D000504944206D61782076616C7565205B30F3
:1002E0002D3235355D0050494420442D6761696EDB
:1002F000205B2A302E30315D0050494420492D6763
:1003000061696E205B2A302E3030315D00504944E7
:1003100020502D6761696E205B2A302E30315D00E0
:10032000504944206472697665206D696E005049B9
:1003300044206472697665206D6178004865617457
:10034000206D616E61676572205B302D315D004507
:100350007874722E20616363656C65726174696F75
:100360006E205B6D6D2F735E325D00457874722E6A
:1003700020737461727420666565647261746520AF
:100380005B6D6D2F735D00457874722E206D617802
:100390002E206665656472617465205B6D6D2F6DDE
:1003A000696E5D00457874722E20737465707320D9
:1003B000706572206D6D004F5053207265747261CC
:1003C0006374696F6E206261636B736C6173682024
:1003D0005B6D6D5D004F5053207265747261637484
:1003E000696F6E206C656E677468205B6D6D5D0073
:1003F0004F5053206D696E2E2064697374616E6373
:100400006520666F722066696C2E20726574726159
:100410006374696F6E205B6D6D5D004F5053206D8E
:100420006F76652061667465722078252072657428
:1004300072616374205B255D004F5053206F7065BF
:10044000726174696F6E206D6F6465205B303D4F23
:1004500066662C313D436C61737369632C323D4693
:100460006173745D005A2D617869732074726176CE
:10047000656C20616363656C65726174696F6E2081
:100480005B6D6D2F735E325D00592D61786973204D
:1004900074726176656C20616363656C657261740A
:1004A000696F6E205B6D6D2F735E325D00582D613C
:1004B0007869732074726176656C20616363656C22
:1004C00065726174696F6E205B6D6D2F735E325D56
:1004D000005A2D6178697320616363656C65726190
:1004E00074696F6E205B6D6D2F735E325D00592DE8
:1004F0006178697320616363656C65726174696FAB
:100500006E205B6D6D2F735E325D00582D617869D2
:100510007320616363656C65726174696F6E205BE3
:100520006D6D2F735E325D004D61782E205A2D6AFD
:1005300065726B205B6D6D2F735D004D61782E20B1
:100540006A65726B205B6D6D2F735D005A2D61784B
:10055000697320686F6D696E672066656564726196
:100560007465205B6D6D2F6D696E5D00592D61782E
:10057000697320686F6D696E672066656564726176
:100580007465205B6D6D2F6D696E5D00582D61780F
:10059000697320686F6D696E672066656564726156
:1005A0007465205B6D6D2F6D696E5D005A2D6178ED
:1005B0006973206D61782E2066656564726174656B
:1005C000205B6D6D2F6D696E5D00592D61786973CB
:1005D000206D61782E206665656472617465205BAC
:1005E0006D6D2F6D696E5D00582D61786973206D9A
:1005F00061782E206665656472617465205B6D6D3F
:100600002F6D696E5D005A2D617869732073746572
:10061000707320706572206D6D00592D617869735B
:1006200020737465707320706572206D6D00582D95
:100630006178697320737465707320706572206DC2
:100640006D0053746F7020737465707065722061F3
:1006500066657220696E6163746976697479205B7E
:100660006D732C303D6F66665D004D61782E20699C
:100670006E6163746976652074696D65205B6D7366
:100680002C303D6F66665D00426175647261746511
:10069000004550523A3020004550523A3120004532
:1006A00050523A3220004550523A3320000706207B
:1006B00000200020002000200020004D54454D5017
:1006C0003A001C151C141C0000EF065F07B307233B
:1006D0000873080000000054617267657442656425
:1006E0003A003A005461726765744578747200008C
:1006F00000A00F5C006009690010097900C0088C37
:10070000007008A2002008BD00D007DE00800705A9
:100710000130073401E0066D019006B20140060782
:1007200002F0056D02A005E80250057B0300052BD1
:1007300004B004F8046004EB06C003350920037F0D
:100740000B8002650DE001B00E40011D0FF0004866
:100750000FC8006C0FA000ED0F60FFFE0F48FE04F5
:1007600000801AD8009808AC012007800250065477
:1007700003C80528045805FC040005D005B004A4EE
:10078000066804780728044C08E8032009B003F43D
:10079000097003C80A38039C0BF802700CB00244BD
:1007A0000D6802180E0802EC0E8801C00F8800F0D8
:1007B0000F00000400001B5400600964001009745D
:1007C00000C008840070089C002008B800D007D83A
:1007D000008007000130072C01E00668019006AC9C
:1007E0000140060002F0056802A005E00250057411
:1007F0000300052404B004F0046004DC051004E4E4
:1008000006C0030408700330092003780B800260DF
:100810000DE001A80E4001680FA000C00F0000E825
:100820000F60FF0400700DD8004804AC015803802D
:1008300002D8025403800228043802FC040002D0CB
:1008400005C801A4069801780770014C08480120EA
:10085000091801F409F000C80AC8009C0BA0007038
:100860000C7000440D3800180E0000EC0EA8FFC0FC
:100870000FE8FE0400001B540060096400100974B6
:1008800000C008840070089C002008B800D007D879
:10089000008007000130072C01E00668019006ACDB
:1008A0000140060002F0056802A005E00250057450
:1008B0000300052404B004F0046004DC051004E423
:1008C00006C0030408700330092003780B8002601F
:1008D0000DE001A80E4001680FA000C00F0000E865
:1008E0000F60FF20500020530020460020450020CC
:1008F0005A002059002058004572726F723A2057F2
:10090000726F6E6720636865636B73756D20004559
:1009100072726F723A42696E61727920636D6420FF
:1009200077726F6E6720636865636B73756D2E00F9
:1009300077616974006F6B20006F6B00736B697077
:10094000200020676F7420004572726F723A206534
:1009500078706563746564206C696E6520006F6BE8
:10096000006F6B00526573656E643A00424C4B2019
:1009700000000020A190D00A8B48E8A0868545049D
:100980001724F403D950C38EB1C2A23D96828B3591
:1009900082127AE372816CCB66A861015DC758EB65
:1009A000546151204E1E4B5648C14559431A4101CE
:1009B0003F093D2F3B7139CD374036C9346533147B
:1009C00032D430A32F802E6B2D632C672B752A8E8B
:1009D00029B028DC2710274B268F25D9242B2482E9
:1009E00023E0224322AC211A218D200420801F0005
:1009F0001F841E0C1E971D261DB81C4E1CE61B8254
:100A00001B201BC11A641A0A1AB2195D190A19B9F6
:100A1000186A181C18D11788174017FA16B51673DC
:100A2000163116F115B31576153A150015C7148F42
:100A30001458142214EE13BA13881356132513F600
:100A400012C71299126C1240121512EB11C11198B3
:100A500011701148112111FB10D610B1108D1069C1
:100A600010461024100210E10FC00FA00F800F617C
:100A70000F420F230F060FE80ECB0EAF0E930E772B
:100A80000E5C0E410E270E0D0EF30DDA0DC10DA8F2
:100A90000D900D780D600D490D320D1B0D050DEFFC
:100AA0000CD90CC30CAE0C990C850C700C5C0C486A
:100AB0000C350C210C0E0CFB0BE80BD60BC40BB247
:100AC0000BA00B8E0B7D0B6B0B5A0B4A0B390B29B2
:100AD0000B180B080BF80AE90AD90ACA0ABB0AACB8
:100AE0000A9D0A8E0A800A710A630A550A470A3962
:100AF0000A2C0A1E0A110A040AF709EA09DD09D0BC
:100B000009C409B709AB099F09920987097B096FD5
:100B100009630958094C09410936092B09200915AF
:100B2000090A090009F508EB08E008D608CC08C254
:100B300008B808AE08A4089A08900887087D0874C9
:100B4000086B08610858084F0846083D0834082C0F
:100B50000823081A08120809080108F807F007E82E
:100B600007E007D807D007C807C007B807B007A82D
:100B700007A1070000420FA1071605D0030D038B44
:100B8000022E02E801B2018601630145012C011722
:100B9000010401F40052656D61696E696E6720732E
:100BA000746570733A00416363656C657261746962
:100BB0006F6E205072696D3A00416363656C6572B7
:100BC0006174696F6E3A00764D61783A0066756CB3
:100BD0006C53706565643A00466C6167733A004413
:100BE00069723A0044656C74610049443A0020001F
:100BF0002000536F66747761726520526573657467
:100C0000005761746368646F672052657365740090
:100C100042726F776E206F75742052657365740031
:100C200045787465726E616C20526573657400500E
:100C30006F776572557000737461727400000021E3
:100C400000240027002A0000002200250028002B95
:100C500000000020002300260029000202020202F8
:100C6000020202040404040404040403030303034F
:100C70000303030101010101010101010204081044
:100C80002040800102040810204080010204081066
:100C90002040808040201008040201000000010272
:100CA0000000000000000004030706000000000030
:100CB0000000000000000000000000494E46494EC0
:100CC0004954594E414ECDCCCC3D0AD7233C17B7A1
:100CD000D13877CC2B329595E6241FB14F0A00000E
:100CE00020410000C84200401C4620BCBE4CCA1B2C
:100CF0000E5AAEC59D74AE234E4911241FBECFEFD0
:100D0000D0E1DEBFCDBF11E0A0E0B1E0E4E0FFE95B
:100D100002C005900D92A63DB107D9F71BE0A6EDE4
:100D2000B1E001C01D92AD34B107E1F71CE0CAEF9C
:100D3000DCE004C02297FE010E943A4FC63FD10773
:100D4000C9F70E94E4490C94804F0C940000A0E085
:100D5000B0E0EDEAF6E00C944F4FEC015B01611559
:100D6000710519F0FB0191838083F9908F2D90E03C
:100D70000E943E4F892BC9F7FDE2FF1621F4F9903E
:100D8000EE24E39405C02BE2F21609F4F990EE2468
:100D90008E0101501040C8016BEB7CE043E050E055
:100DA0000E943609892B01F58E010E5F1F4FC80185
:100DB0006EEB7CE045E050E00E943609892B19F487
:100DC0008E01095F1F4FA114B10419F0F5011183C1
:100DD0000083E0FC04C070E090E080E814C070E0A4
:100DE00090E080E86FEF08C1C80163EC7CE043E06D
:100DF00050E00E943609892B69F4A114B10429F44A
:100E000070E090E080EC6FE7F7C02296F501D183A7
:100E1000C083F6CF8824992440E050E060E070E081
:100E2000EF2DE053EA30A0F5F2E0EF2A8E2D90E0AE
:100E30009C0128703070E2FE06C0232B79F50894DF
:100E4000811C911C2BC0232B19F008948108910858
:100E5000DB01CA0112E0880F991FAA1FBB1F1A9558
:100E6000D1F7480F591F6A1F7B1F440F551F661F7C
:100E7000771F4E0F511D611D711D483929E9520719
:100E800029E9620729E1720748F084E0E82A06C0F0
:100E9000EE3F31F4E3FC39C098E0E92AF990C0CF85
:100EA000E53311F0E53189F529912D3219F4E0E1AE
:100EB000EE2A05C02B3219F081E090E003C02991A1
:100EC00082E090E0E22FE053EA3018F0C81BD90B23
:100ED0001CC020E030E0FCE020383F075CF4C90192
:100EE000880F991F880F991F280F391F220F331F52
:100EF0002E0F311DE991E053EA3068F3E4FE03C0A0
:100F0000309521953F4F820E931ECE2CDD24E1FEBD
:100F100007C0A114B10421F02197F501D183C0834A
:100F2000CB01BA010E94194D7B018C01F3E0CF2265
:100F3000DD2423E0C216D10421F417FB109517F924
:100F4000109557016801C801B70120E030E040E08A
:100F500050E00E947C4C882309F44AC097FE0DC0E3
:100F60002AEDE22E2CE0F22E909481949108939435
:100F7000C0E2D0E000E010E012C092EFE92E9CE069
:100F8000F92EF6CFF7012591359145915491C6017F
:100F9000B5010E94244E5B016C018C1A9D0A8C16CF
:100FA0009D0684F7D595C7950F5F1F4F0630110535
:100FB00029F08CEF9FEFE80EF91EF1CFC501D601A5
:100FC0007C018D018C2D880F8D2D881F8F3F51F056
:100FD000C601B50120E030E040E050E00E947C4CCA
:100FE000882331F482E290E090934C0B80934B0B7A
:100FF0007E2D9F2D802F612F272F392F482F562F81
:10100000B901CA01CDB7DEB7ECE00C946B4F2F925B
:101010003F925F926F927F928F929F92AF92BF9218
:10102000CF92DF92EF92FF920F931F93CF93DF93B4
:101030008C011B01EA016115710519F0FB01918317
:101040008083209749F0CE010297839728F020E013
:1010500030E040E050E0F6C0F801A1908F018A2D09
:1010600090E00E943E4F892BB9F7FDE2AF1631F4B4
:10107000F801A1908F015524539407C0FBE2AF16ED
:1010800019F4F801A1908F015524209719F0C0316F
:10109000D105C1F4F0E3AF1679F4F8018081883707
:1010A00011F0883549F4F801A1800E5F1F4FF2E07E
:1010B0005F2AC0E1D0E006C0209721F480E3A816A3
:1010C000E9F427C0C830D10531F1C930D10524F485
:1010D000C230D10531F50CC0CA30D10589F0C0311C
:1010E000D105F9F4C12CD12CE12CB8E0FB2E28C09D
:1010F000C12CD12CE12CA0E4FA2E22C0CAE0D0E011
:10110000FCECCF2EFCECDF2EFCECEF2EFCE0FF2EF7
:1011100017C0C8E0D0E0C12CD12CE12CE0E1FE2EBC
:101120000FC09E01442737FD4095542F60E070E0CA
:1011300080E090E80E94FB4EC901DA016C017D015C
:1011400020E030E040E050E060E03E01882477FCA1
:101150008094982C70EDB72EBA0CE9E0EB1570F482
:101160008A2D81548A3118F499ECB92E06C08A2D43
:1011700081568A3150F589EAB82EBA0C8B2D90E051
:101180008C179D0714F56F3FE1F0C216D306E406F5
:10119000F506B0F0CA01B901A40193010E94DC4E2A
:1011A0009B01AC012B0D311D411D511D2130F0E083
:1011B0003F07F0E04F07F0E85F0710F461E001C07F
:1011C0006FEFF801A1908F01C5CF2114310481F098
:1011D000662331F001501040F1011183008308C0F3
:1011E00051FE1AC002501040F1011183008314C057
:1011F00067FF12C050FC05C02FEF3FEF4FEF5FE7D6
:1012000004C020E030E040E050E882E290E09093BB
:101210004C0B80934B0B16C050FE08C05095409568
:10122000309521953F4F4F4F5F4F0CC057FF0AC07D
:1012300082E290E090934C0B80934B0B2FEF3FEFAB
:101240004FEF5FE7B901CA01DF91CF911F910F9175
:10125000FF90EF90DF90CF90BF90AF909F908F90D6
:101260007F906F905F903F902F900895FB01DC017D
:101270004150504088F08D9181341CF08B350CF436
:10128000805E659161341CF06B350CF4605E861BEA
:10129000611171F3990B0895881BFCCFFC018191BA
:1012A000861721F08823D9F7992708953197CF0120
:1012B0000895A0E0B0E0EFE5F9E00C94534F7C0115
:1012C000EB018A01690109C0CE012196F601099559
:1012D000F70181937F010150104001151105A1F71D
:1012E000CDB7DEB7E8E00C946F4FBF92CF92DF929C
:1012F000EF92FF920F931F937B018C01FB010995E5
:10130000B82EC8010196F7010995C82EC8010296AA
:10131000F7010995D82EC8010396F7010995982F72
:101320006B2D7C2D8D2D1F910F91FF90EF90DF90F5
:10133000CF90BF900895DF92EF92FF920F931F938B
:101340007B018C01FB010995D82EC8010196F7019C
:101350000995982F8D2D1F910F91FF90EF90DF90A1
:101360000895A0E0B0E0E7EBF9E00C94534FEC01F6
:101370007B018A01690109C0CE012196F7016191C3
:101380007F01F60109950150104001151105A1F7E3
:10139000CDB7DEB7E8E00C946F4FBF92CF92DF92EB
:1013A000EF92FF920F931F93D52EC62EB72E790181
:1013B0008C01642FF9010995C80101966D2DF70183
:1013C0000995C80102966C2DF7010995C80103968D
:1013D0006B2DF70109951F910F91FF90EF90DF9012
:1013E000CF90BF900895DF92EF92FF920F931F93DB
:1013F000D72E7A018C01FA010995C80101966D2D4D
:10140000F70109951F910F91FF90EF90DF900895DC
:10141000AC01893191051CF449E150E005C0893CDB
:10142000910514F048EC50E050936203409361033F
:101430008CEC92E06CE472E00E94AB240895EF9291
:10144000FF920F931F93CF93DF93EC0189319105A6
:101450001CF4C9E1D0E006C081E0C53FD80714F014
:10146000C4EFD1E0BE01882777FD8095982F0E94B8
:101470001B4D7B018C0160915F0370916003882795
:1014800077FD8095982F0E941B4D9B01AC01C801F0
:10149000B7010E94804C9B01AC0160915B0370918D
:1014A0005C0380915D0390915E030E94244E6093E3
:1014B0005B0370935C0380935D0390935E03D09312
:1014C0006003C0935F038CEC92E06AE572E0AE01CA
:1014D0000E94AB24DF91CF911F910F91FF90EF906D
:1014E0000895AF92BF92CF92DF92EF92FF920F9347
:1014F0001F93209118033091190340911A035091C2
:101500001B03A090D102B090D202C090D302D09021
:10151000D4028091D002882359F40F2EF0E0EF2EF0
:10152000F0E0FF2EF0E80F2FFFE31F2FF02D0AC091
:101530000F2EF0E7EF2EF2E4FF2EF1E20F2FFDE386
:101540001F2FF02DCA01B9010E941B4DA601950164
:101550000E94244EA80197010E94244E9B01AC01D9
:101560008CEC92E060E872E002E00E94E0282091BA
:101570001C0330911D0340911E0350911F03A09046
:10158000D502B090D602C090D702D090D8028091F8
:10159000D002882359F40F2EF0E0EF2EF0E0FF2E5A
:1015A000F0E80F2FFFE31F2FF02D0AC00F2EF0E7FA
:1015B000EF2EF2E4FF2EF1E20F2FFDE31F2FF02DAF
:1015C000CA01B9010E941B4DA60195010E94244E3B
:1015D000A80197010E94244E9B01AC018CEC92E083
:1015E0006CE772E002E00E94E02820912003309135
:1015F00021034091220350912303A090D902B0907F
:10160000DA02C090DB02D090DC028091D002882305
:1016100059F40F2EF0E0EF2EF0E0FF2EF0E80F2F40
:10162000FFE31F2FF02D0AC00F2EF0E7EF2EF2E49C
:10163000FF2EF1E20F2FFDE31F2FF02DCA01B9019C
:101640000E941B4DA60195010E94244EA8019701FE
:101650000E94244E9B01AC018CEC92E068E772E0A2
:1016600002E00E94E028209124033091250340915C
:10167000260350912703A090DD02B090DE02C090B7
:10168000DF02D090E0028091D002882359F40F2E1F
:10169000F0E0EF2EF0E0FF2EF0E80F2FFFE31F2F1A
:1016A000F02D0AC00F2EF0E7EF2EF2E4FF2EF1E24C
:1016B0000F2FFDE31F2FF02DCA01B9010E941B4D12
:1016C000A60195010E94244EA80197010E94244E74
:1016D0009B01AC018CEC92E064E772E002E00E94B6
:1016E000C3281F910F91FF90EF90DF90CF90BF9094
:1016F000AF9008957F928F929F92AF92BF92CF92B8
:10170000DF92EF92FF920F931F93CF93DF93862E7A
:10171000742E882309F4D0C060914F037091500358
:1017200080915103909152036093180370931903B1
:1017300080931A0390931B0300D000D000D0EDB724
:10174000FEB7319690958095709561957F4F8F4F3C
:101750009F4F660F771F881F991F20918501309139
:1017600086014091870150918801ADB7BEB71196AF
:101770002D933D934D935C93149799249394948265
:10178000958220E030E040E050E0EE24FF24870125
:10179000AA24BB2465010E940143109218031092F1
:1017A000190310921A0310921B030DB71EB70F5F97
:1017B0001F4F609165017091660180916701909162
:1017C000680120E030E040EA50E40E94244E0E948C
:1017D000E84C6B017C0160918501709186018091DC
:1017E00087019091880120E030E040E05FE30E94B3
:1017F000244EE801688379838A839B839C821D82BF
:10180000C701B60120E030E040E050E0EE24FF24C4
:101810008701AA24BB2465010E940143CDB6DEB630
:101820000894C11CD11C2091650130916601409142
:10183000670150916801CA01B9010E94054C20E07E
:1018400030E040EA50EC0E94244E0E94E84C7B01BC
:101850008C01609185017091860180918701909142
:10186000880120E030E040E05FE30E94244EF60172
:10187000608371838283938394829582C801B701C8
:1018800020E030E040E050E0EE24FF248701AA246D
:10189000BB2465010E9401431092180310921903A2
:1018A00010921A0310921B038DB79EB706960FB6BF
:1018B000F8949EBF0FBE8DBF882009F4D2C020913E
:1018C0005303309154034091550350915603209394
:1018D0001C0330931D0340931E0350931F0300D03D
:1018E00000D000D0EDB7FEB73196509540953095B9
:1018F00021953F4F4F4F5F4F220F331F441F551FFE
:101900008091890190918A01A0918B01B0918C0105
:10191000CDB7DEB789839A83AB83BC839924939434
:101920009482958260E070E080E090E0EE24FF24F5
:101930008701AA24BB2465010E94014310921C0365
:1019400010921D0310921E0310921F030DB71EB7B5
:101950000F5F1F4F6091690170916A0180916B0167
:1019600090916C0120E030E040EA50E40E94244E67
:101970000E94E84C6B017C016091890170918A01A1
:1019800080918B0190918C0120E030E040E05FE39A
:101990000E94244EF8016083718382839383948232
:1019A000158260E070E080E090E0A7019601EE24EF
:1019B000FF248701AA24BB2465010E940143CDB600
:1019C000DEB60894C11CD11C2091690130916A01D6
:1019D00040916B0150916C01CA01B9010E94054C04
:1019E00020E030E040EA50EC0E94244E0E94E84C97
:1019F0007B018C016091890170918A0180918B013A
:101A000090918C0120E030E040E05FE30E94244EA2
:101A1000D6016D937D938D939C93139714969C920E
:101A2000149715969C9260E070E080E090E0A80129
:101A30009701EE24FF248701AA24BB2465010E949C
:101A4000014310921C0310921D0310921E0310926A
:101A50001F03CDB7DEB726960FB6F894DEBF0FBED4
:101A6000CDBF772009F4D1C0E0905703F090580320
:101A70000091590310915A03E0922003F092210340
:101A8000009322031093230300D000D000D0EDB7C1
:101A9000FEB7319610950095F094E094E11CF11C8E
:101AA000011D111DEE0CFF1C001F111F80918D01E7
:101AB00090918E01A0918F01B0919001CDB7DEB7CA
:101AC00089839A83AB83BC8399249394948295826F
:101AD00060E070E080E090E020E030E040E050E046
:101AE000AA24BB2465010E94014310922003109296
:101AF00021031092220310922303CDB6DEB6089480
:101B0000C11CD11C20916D0130916E0140916F017B
:101B100050917001CA01B9010E94054C0E94E84C25
:101B20007B018C0160918D0170918E0180918F01FC
:101B30009091900120E030E040E05FE30E94244E6D
:101B4000F60160837183828393839482158260E0BF
:101B500070E080E090E020E030E040E050E0AA2437
:101B6000BB2465010E940143CDB6DEB60894C11CBA
:101B7000D11C20916D0130916E0140916F01509107
:101B80007001CA01B9010E94054C20E030E040E03C
:101B900050EC0E94244E0E94E84C7B018C01609125
:101BA0008D0170918E0180918F019091900120E0C4
:101BB00030E040E05FE30E94244ED6016D937D93B8
:101BC0008D939C93139714969C92149715969C92C0
:101BD00060E070E080E090E020E030E040E050E045
:101BE000AA24BB2465010E94014310922003109295
:101BF00021031092220310922303CDB7DEB726965D
:101C00000FB6F894DEBF0FBECDBFDF91CF911F910D
:101C10000F91FF90EF90DF90CF90BF90AF909F908B
:101C20008F907F9008950F931F930E942A1D0CECB4
:101C300012E0AC014C5F5F4F63E0559547956A95A4
:101C4000E1F7C80161E772E00E94B9230E94221DFA
:101C5000AC014C5F5F4F33E0559547953A95E1F7FE
:101C6000C8016DE672E00E94B923E091D601F091BF
:101C7000D7018081EBEDF9E0E80FF11D4081C8014B
:101C800069E672E050E00E94B923C8010E94254A2B
:101C90001F910F9108958091DD018823A1F010928A
:101CA000DD010E940D1E80916301815080936301CC
:101CB000882349F480916201833010F40E949E1FB2
:101CC0008AE080936301089504C00E9416270E9451
:101CD0004B0E8091D4098823C1F708952F923F922B
:101CE0004F925F926F927F928F929F92AF92BF922C
:101CF000CF92DF92EF92FF920F931F93CF93DF93D8
:101D0000EC018091B101982F84FF15C0888182FD7C
:101D100005C081FF10C08C818F3669F00E94A82316
:101D20000E948545609378037093790380937A03CA
:101D300090937B0319C72881398122FFA2C18D812D
:101D4000853109F466C0863160F4843029F185302C
:101D500020F4823008F06AC314C0843109F066C3ED
:101D600054C08A3509F47AC08B3520F48C3109F0DF
:101D70005DC352C08B3509F474C08C3509F056C36D
:101D800074C0CE010E941F2B882309F44FC381E049
:101D900061E00E94633B4AC30E94640E888199817E
:101DA00093FD04C0EE24FF24870104C0EF8CF8A04B
:101DB00009A11AA192FF0CC06B8D7C8D8D8D9E8D1B
:101DC00028EE33E040E050E00E94DC4E7B018C01C5
:101DD0000E9485455B016C01AE0CBF1CC01ED11E6C
:101DE00004C00E9416270E944B0E0E948545A60142
:101DF0009501261B370B480B590BDA01C90180509E
:101E00009449A543B74768F311C381E08093D0029A
:101E10000DC31092D0020AC3C90188739070892B38
:101E200021F441E051E061E015C0C90143E096951D
:101E300087954A95E1F7582F5170C90134E096957E
:101E400087953A95E1F7682F617025FD02C040E063
:101E500001C041E0852F0E947A0BE8C21092760300
:101E6000E5C281E080937603E1C223FF49C0AE80E2
:101E7000BF80C884D984209165013091660140916A
:101E80006701509168018091D002882359F40F2E88
:101E9000F0E0EF2EF0E0FF2EF0E80F2FFFE31F2F12
:101EA000F02D0AC00F2EF3E3EF2EF3E3FF2EFBEC31
:101EB0000F2FF1E41F2FF02DC601B5010E94244E13
:101EC000A80197010E94244E7B018C0160916B0355
:101ED00070916C0380916D0390916E030E941B4D75
:101EE0009B01AC01C801B7010E94044C0E94E84C60
:101EF000609318037093190380931A0390931B0344
:101F0000888184FF49C0AA84BB84CC84DD8420916D
:101F1000690130916A0140916B0150916C0180918F
:101F2000D002882359F40F2EF0E0EF2EF0E0FF2EC0
:101F3000F0E80F2FFFE31F2FF02D0AC00F2EF3E361
:101F4000EF2EF3E3FF2EFBEC0F2FF1E41F2FF02D0C
:101F5000C601B5010E94244EA80197010E94244E9B
:101F60007B018C0160916F0370917003809171030C
:101F7000909172030E941B4D9B01AC01C801B701F7
:101F80000E94044C0E94E84C60931C0370931D0354
:101F900080931E0390931F03888185FF37C0AE8412
:101FA000BF84C888D98820916D0130916E0140911D
:101FB0006F01509170018091D002882359F40F2E47
:101FC000F0E0EF2EF0E0FF2EF0E80F2FFFE31F2FE1
:101FD000F02D0AC00F2EF3E3EF2EF3E3FF2EFBEC00
:101FE0000F2FF1E41F2FF02DC601B5010E94244EE2
:101FF000A80197010E94244E0E94E84C60932003A0
:10200000709321038093220390932303888186FF9A
:102010000DC2AA88BB88CC88DD88209171013091DF
:10202000720140917301509174018091D002882314
:1020300059F40F2EF0E0EF2EF0E0FF2EF0E80F2F16
:10204000FFE31F2FF02D0AC00F2EF3E3EF2EF3E373
:10205000FF2EFBEC0F2FF1E41F2FF02DC601B50171
:102060000E94244EA80197010E94244E0E94E84C31
:102070006093240370932503809326039093270392
:10208000D5C121FF47C58C81873709F472C28837D3
:1020900088F5853509F4FAC1863598F4813509F457
:1020A000D0C1823538F48A3209F45BC0803509F03A
:1020B00048C5BAC1833509F4CAC1843508F0CBC11B
:1020C000C3C18D3609F4E0C08E3650F4883609F469
:1020D0008FC0893609F4D5C08C3509F032C5F4C1FA
:1020E000823709F443C2833709F43BC28F3609F0C3
:1020F00028C528C28F3C09F468C3803DC8F48A3CD7
:1021000009F4E2C28B3C50F48E3B09F454C1893C83
:1021100009F46EC28C3809F014C593C08D3C09F4E3
:102120004DC38E3C08F04DC38B3C09F00AC538C343
:102130008F3D09F4BAC3803E50F48D3D09F49CC331
:102140008E3D08F0A3C38C3D09F0FBC48BC3883ED1
:1021500009F4BAC3893E09F4BFC4873E09F0F1C44B
:10216000DDC320703C7020503C4009F0EAC48B8DE8
:102170009C8DAD8DBE8DB7FDE4C48F3F9105A1054B
:10218000B10511F00CF0DDC40F8D18A120E030E096
:10219000F901EE0FFF1FE458FF4FE4918E2F90E0FE
:1021A0008017910709F4CDC42F5F3F4F28333105C5
:1021B00079F717FDC6C4802F61E00E943846802F52
:1021C0006B8D0E9477466B8D7C8D802F0E94D84549
:1021D0008CEC92E060E472E0A8010E94B9234B8D80
:1021E0005C8D8CEC92E06BE372E00E94AB24A9C49E
:1021F0000E948545609378037093790380937A03F6
:1022000090937B038091B10183FD9BC48881998168
:1022100093FF02C00E94640E8881998192FF91C44D
:102220008B8D9C8DAD8DBE8D13E0880F991FAA1FDD
:10223000BB1F1A95D1F7E091D601F091D7016081CB
:102240008DC10E94854560937803709379038093D4
:102250007A0390937B038091B10183FD72C48881DE
:10226000998192FF6EC48B8D9C8DAD8DBE8DF3E0F8
:10227000880F991FAA1FBB1FFA95D1F70E94012052
:1022800060C40E94130E5DC40E948545609378036C
:102290007093790380937A0390937B038091B101CB
:1022A00083FD4FC40E94640E8881998192FF12C001
:1022B0008B8D9C8DAD8DBE8DE3E0880F991FAA1F7D
:1022C000BB1FEA95D1F7E091D601F091D70160816B
:1022D0000E942320E091D601F091D70125A036A0DD
:1022E00047A050A4C1018419950947968F9708F417
:1022F00028C40E9485453B014C01EE24FF24870140
:102300000E9485455B016C01DC01CB0186199709B0
:10231000A809B909895E9340A040B04020F00E940E
:10232000130E350146010E944B0E0E941627E11440
:10233000F1040105110591F5E091D601F091D70165
:102340002414350444F425A136A187A190A52817AB
:102350003907B4F207C025A136A187A190A582173D
:10236000930774F2E091D601F091D70166A577A5A5
:10237000882777FD8095982F28EE33E040E050E0E5
:102380000E94DC4E7B018C01EA0CFB1C0C1D1D1D08
:10239000E114F1040105110509F4B2CFD801C70118
:1023A0008A199B09AC09BD0980509449A543B747D8
:1023B00008F4A6CF3BC093FDC4C30E94640E88817D
:1023C000998192FF0DC08B8D9C8DAD8DBE8D73E07C
:1023D000880F991FAA1FBB1F7A95D1F70E94012071
:1023E0000E9485457B018C0113C00E9485456E19B2
:1023F0007F09800B910B695E73408040904030F004
:102400000E94130E0E9485457B018C010E944B0E99
:102410002091D8013091D9018091DA019091DB01AE
:102420002817390714F302C00E94640E0E948545E4
:10243000609378037093790380937A0390937B037E
:1024400080C30E94640E7DC3109277037AC381E03B
:102450008093770376C332FF13C06B8D7C8D8D8D97
:102460009E8D28EE33E040E050E00E94DC4E609309
:10247000B2017093B3018093B4019093B50161C32D
:102480000E94640E81E00E943A375BC332FF13C0A2
:102490006B8D7C8D8D8D9E8D28EE33E040E050E07D
:1024A0000E94DC4E60937C0370937D0380937E03D7
:1024B00090937F0346C310927C0310927D03109289
:1024C0007E0310927F033DC323FF0CC08E819F814A
:1024D000A885B9858093650190936601A0936701F3
:1024E000B0936801888184FF0CC08A859B85AC8588
:1024F000BD858093690190936A01A0936B01B093AD
:102500006C01888185FF0CC08E859F85A889B9895B
:1025100080936D0190936E01A0936F01B093700151
:10252000888186FF0CC0E091D601F091D7018A899D
:102530009B89AC89BD8981879287A387B4870E94D4
:10254000B729FFC232FF03C08B8D8093B101809108
:10255000B10183FFF6C280E090E060E00E9423209A
:10256000F0C28CEC92E065E971E06AC20E94710AE7
:10257000E8C20E94640E8CEC92E06EE871E00E946A
:10258000712382E10E94CB46892B19F468E871E03F
:1025900002C06BE871E08CEC92E00E9471238CEC3D
:1025A00092E061E871E00E94712383E10E94CB46D2
:1025B000892B19F46BE771E002C06EE771E08CECD7
:1025C00092E00E9471238CEC92E064E771E00E943B
:1025D000712384E10E94CB46892B19F46EE671E0E9
:1025E00002C061E771E08CEC92E00E947123A5C209
:1025F00023FF18C06E817F818885998520916501B0
:102600003091660140916701509168010E94244E0B
:102610000E94ED4C6093E1027093E2028093E3022A
:102620009093E402888184FF18C06A857B858C853D
:102630009D852091690130916A0140916B01509113
:102640006C010E94244E0E94ED4C6093E502709351
:10265000E6028093E7029093E802888185FF18C024
:102660006E857F858889998920916D0130916E01F1
:1026700040916F01509170010E94244E0E94ED4CD8
:102680006093E9027093EA028093EB029093EC026C
:10269000888186FF56C26A897B898C899D892091B1
:1026A00071013091720140917301509174010E9447
:1026B000244E0E94ED4C6093ED027093EE028093E5
:1026C000EF029093F0023DC223FF18C06E817F811C
:1026D0008885998520916501309166014091670157
:1026E000509168010E94244E0E94ED4C6093F102CB
:1026F0007093F2028093F3029093F402888184FF36
:1027000018C06A857B858C859D85209169013091F3
:102710006A0140916B0150916C010E94244E0E940D
:10272000ED4C6093F5027093F6028093F70290935C
:10273000F802888185FF18C06E857F858889998910
:1027400020916D0130916E0140916F0150917001A7
:102750000E94244E0E94ED4C6093F9027093FA029D
:102760008093FB029093FC02888186FFEAC16A890C
:102770007B898C899D8920917101309172014091F2
:102780007301509174010E94244E0E94ED4C60939D
:10279000FD027093FE028093FF0290930003D1C16B
:1027A00032FF03C08B8D8093620180916201843679
:1027B00009F0C7C181E080936201C3C10E946D1B13
:1027C000C0C1CE010E94531ABCC123FF0CC08E8130
:1027D0009F81A885B9858093630390936403A09338
:1027E0006503B0936603888185FF0CC08E859F8545
:1027F000A889B9898093670390936803A0936903BC
:10280000B0936A03888186FF0FC0E091D601F091F2
:10281000D7018A899B89AC89BD89818F928FA38FCB
:10282000B48F80810E9468202091630330916403FB
:1028300040916503509166038CEC92E068E671E08C
:1028400002E00E94E02820916703309168034091E4
:10285000690350916A038CEC92E060E671E00E949B
:10286000C3286FC132FF03C08B8D9C8D02C084E6EC
:1028700090E00E941F0A65C132FF03C08B8D9C8DC2
:1028800002C084E690E00E94080A5BC132FF59C191
:102890008B8D9C8D0E94652A9B01AC018CEC92E093
:1028A00067E571E00E9414264CC132FF4AC1809155
:1028B0000203909103032B8D3C8D820F931F909305
:1028C0000303809302033DC14091D5095091D6097D
:1028D0008CEC92E068E471E00E94B9232091D70962
:1028E0003091D8094091D9095091DA098CEC92E0E5
:1028F0006FE371E002E00E94C3281092D6091092A3
:10290000D50980E090E0A0E0B0E08093D7099093F3
:10291000D809A093D909B093DA0913C132FF0DC0C9
:102920008B8D9C8DAD8DBE8DB7FD07C0833091051D
:10293000A105B10514F480934803888183FF16C074
:10294000EE80FF8008851985C801B70120E030E0DE
:1029500040E050E00E94204E882344F0E0923C0387
:10296000F0923D0300933E0310933F03888184FF60
:1029700016C0EA84FB840C851D85C801B70120E0E0
:1029800030E040E050E00E94204E882344F0E09286
:102990004003F09241030093420310934303888164
:1029A00085FF1BC0EE84FF840889198920914003AC
:1029B0003091410340914203509143035058C80164
:1029C000B7010E94204E882344F0E0924403F09225
:1029D000450300934603109347038881998190FF34
:1029E00020C0EE88FF88088D198DC801B70120E04E
:1029F00030E040E050E00E94204E882394F0C8016F
:102A0000B70120E030E048EC52E40E947C4C1816FC
:102A100044F0E0924903F0924A0300934B03109371
:102A20004C03E091D601F091D70180810E9468208B
:102A300080914803882339F48CEC92E062E371E0E2
:102A40000E94CC237EC0813029F48CEC92E060E2BD
:102A500071E004C08CEC92E061E171E00E947123AE
:102A600020913C0330913D0340913E0350913F0340
:102A70008CEC92E061E071E002E00E94E02820919D
:102A800040033091410340914203509143038CEC49
:102A900092E064EF70E00E94E028209144033091BE
:102AA000450340914603509147038CEC92E065EE5C
:102AB00070E00E94E028809148038230F1F5209177
:102AC000490330914A0340914B0350914C038CECE5
:102AD00092E065ED70E01BC024FF0CC0E091D601D0
:102AE000F091D7018A859B85AC85BD8580AB91AB84
:102AF000A2ABB3ABE091D601F091D70120A931A9E7
:102B000042A953A98CEC92E06BEC70E002E00E94C9
:102B1000E02813C031FF06C00E94640E8A8D0E9417
:102B200068200FC092FF0DC08CEC92E06AEB70E061
:102B30000E947123CE010E94F6288CEC92E00E9444
:102B4000254A8091B10180FF0DC08CEC92E064EBCE
:102B500070E00E947123CE010E94F6288CEC92E076
:102B60000E94254A0E94A823DF91CF911F910F91C7
:102B7000FF90EF90DF90CF90BF90AF909F908F909D
:102B80007F906F905F904F903F902F9008959C01A1
:102B9000F999FECF32BD21BDF89A80B508959C0108
:102BA000F999FECF1FBA32BD21BD60BD0FB6F894B2
:102BB000FA9AF99A0FBE0895F999FECF12BC11BC8A
:102BC000F89A80B58F3F71F48BE490E067EC75E183
:102BD0000E9475096093B6017093B7018093B801A4
:102BE0009093B9010895DF93CF9300D000D0CDB773
:102BF000DEB7BC01CE01019644E050E027EC35E1A0
:102C00000E94590929813A814B815C81B901CA012D
:102C10000F900F900F900F90CF91DF9108958BE45C
:102C200090E067EC75E10E9475096093B6017093BE
:102C3000B7018093B8019093B9018FE490E067ECFD
:102C400075E10E94750960937C0370937D03809306
:102C50007E0390937F0383E590E067EC75E10E942B
:102C600075096093B2017093B3018093B40190939E
:102C7000B50183E090E00E94F315609365017093C5
:102C80006601809367019093680187E090E00E945D
:102C9000F3156093690170936A0180936B019093BF
:102CA0006C018BE090E00E94F31560936D017093CE
:102CB0006E0180936F01909370018FE090E00E940D
:102CC000F31560937501709376018093770190936B
:102CD000780183E190E00E94F3156093790170938D
:102CE0007A0180937B0190937C0187E190E00E94C0
:102CF000F31560937D0170937E0180937F01909323
:102D000080018BE190E00E94F31560938501709340
:102D1000860180938701909388018FE190E00E9463
:102D2000F3156093890170938A0180938B019093CE
:102D30008C0183E290E00E94F31560938D01709303
:102D40008E0180938F019093900187E290E00E9422
:102D5000F31560936303709364038093650390930A
:102D600066038FE290E00E94F3156093670370930F
:102D700068038093690390936A0383E390E00E9461
:102D8000F3150E94E84C6093910170939201809337
:102D900093019093940187E390E00E94F3150E94C1
:102DA000E84C6093950170939601809397019093FE
:102DB00098018BE390E00E94F3150E94E84C609329
:102DC000990170939A0180939B0190939C018FE3EA
:102DD00090E00E94F3150E94E84C6093A10170936B
:102DE000A2018093A3019093A40183E490E00E9448
:102DF000F3150E94E84C6093A5017093A60180939F
:102E0000A7019093A80187E490E00E94F3150E9427
:102E1000E84C6093A9017093AA018093AB01909351
:102E2000AC01F999FECF87E690E092BD81BDF89A9A
:102E300080B58093480383E690E00E94F315609389
:102E4000490370934A0380934B0390934C038BE2A6
:102E500090E00E94F31560933C0370933D038093D0
:102E60003E0390933F0387E590E00E94F315609343
:102E700040037093410380934203909343038BE597
:102E800090E00E94F3156093440370934503809390
:102E900046039093470386E990E00E94F315609300
:102EA0000B0170930C0180930D0190930E018AE940
:102EB00090E00E94F31560931301709314018093C6
:102EC0001501909316018EE990E00E94F31560932E
:102ED0001B0170931C0180931D0190931E0182EAD7
:102EE00090E00E94F315609317017093180180938E
:102EF000190190931A01F999FECF86EA90E092BDEC
:102F000081BDF89A80B580932F01F999FECF87EAA9
:102F100090E092BD81BDF89A80B580933A01F9990D
:102F2000FECF83EC90E092BD81BDF89A80B580938E
:102F30003B0188EA90E067EC75E10E9475096093B7
:102F40003C0170933D0180933E0190933F018CEAD8
:102F500090E067EC75E10E94750960934001709301
:102F60004101809342019093430180EB90E067EC34
:102F700075E10E9475096093440170934501809347
:102F8000460190934701F999FECF84EB90E092BD02
:102F900081BDF89A80B58093480185EB90E067EC9D
:102FA00075E10E9475096093070170930801809391
:102FB000090190930A0189EB90E067EC75E10E94AA
:102FC0007509609303017093040180930501909348
:102FD00006018DEB90E067EC75E10E949B099093F0
:102FE00031018093300184EC90E00E94F3156093EE
:102FF0003201709333018093340190933501E09155
:10300000D601F091D70180810E9468200E94B729E3
:103010000895DF93CF9300D000D0CDB7DEB74983BA
:103020005A836B837C83BE016F5F7F4F44E050E027
:103030002FEC35E10E94B1090F900F900F900F9087
:10304000CF91DF9108954091B6015091B701609101
:10305000B8017091B9018BE490E02FEC35E10E944A
:10306000CD0940917C0350917D0360917E03709166
:103070007F038FE490E02FEC35E10E94CD09409171
:10308000B2015091B3016091B4017091B50183E533
:1030900090E02FEC35E10E94CD09409165015091FF
:1030A0006601609167017091680183E090E00E9481
:1030B00009184091690150916A0160916B0170910A
:1030C0006C0187E090E00E94091840916D015091D9
:1030D0006E0160916F01709170018BE090E00E9431
:1030E00009184091750150917601609177017091B6
:1030F00078018FE090E00E94091840917901509189
:103100007A0160917B0170917C0183E190E00E94E3
:10311000091840917D0150917E0160917F0170916D
:10312000800187E190E00E9409184091850150914B
:10313000860160918701709188018BE190E00E9487
:1031400009184091890150918A0160918B01709119
:103150008C018FE190E00E94091840918D015091FF
:103160008E0160918F017091900183E290E00E9446
:103170000918409163035091640360916503709155
:10318000660387E290E00E9409184091670350911E
:1031900068036091690370916A038FE290E00E9476
:1031A0000918609191017091920180919301909121
:1031B00094010E941B4DAB01BC0183E390E00E948F
:1031C00009186091950170919601809197019091F5
:1031D00098010E941B4DAB01BC0187E390E00E9467
:1031E00009186091990170919A0180919B019091C9
:1031F0009C010E941B4DAB01BC018BE390E00E943F
:1032000009186091A1017091A2018091A301909190
:10321000A4010E941B4DAB01BC018FE390E00E9412
:1032200009186091A5017091A6018091A701909164
:10323000A8010E941B4DAB01BC0183E490E00E94F9
:1032400009186091A9017091AA018091AB01909138
:10325000AC010E941B4DAB01BC0187E490E00E94D1
:10326000091840913C0350913D0360913E037091D9
:103270003F038BE290E00E94091820914803F999DE
:10328000FECF1FBA87E690E092BD81BD20BD0FB68C
:10329000F894FA9AF99A0FBE4091490350914A0363
:1032A00060914B0370914C0383E690E00E940918F3
:1032B0004091400350914103609142037091430358
:1032C00087E590E00E94091840914403509145031E
:1032D00060914603709147038BE590E00E940918C6
:1032E00040910B0150910C0160910D0170910E0104
:1032F00086E990E00E940918409113015091140151
:1033000060911501709116018AE990E00E940918F8
:1033100040911B0150911C0160911D0170911E0193
:103320008EE990E00E940918409117015091180110
:103330006091190170911A0182EA90E00E940918C7
:1033400020912F01F999FECF1FBA86EA90E092BD35
:1033500081BD20BD0FB6F894FA9AF99A0FBE20915C
:103360003A01F999FECF1FBA87EA90E092BD81BD7C
:1033700020BD0FB6F894FA9AF99A0FBE20913B013E
:10338000F999FECF1FBA83EC90E092BD81BD20BDBC
:103390000FB6F894FA9AF99A0FBE40913C015091F9
:1033A0003D0160913E0170913F0188EA90E02FEC71
:1033B00035E10E94CD094091400150914101609159
:1033C0004201709143018CEA90E02FEC35E10E94BC
:1033D000CD094091440150914501609146017091A1
:1033E000470180EB90E02FEC35E10E94CD09209160
:1033F0004801F999FECF1FBA84EB90E092BD81BDE0
:1034000020BD0FB6F894FA9AF99A0FBE40910701C1
:10341000509108016091090170910A0185EB90E0DB
:103420002FEC35E10E94CD09409103015091040138
:10343000609105017091060189EB90E02FEC35E178
:103440000E94CD0960913001709131018DEB90E0C7
:103450004FEC55E10E94F309409132015091330144
:10346000609134017091350184EC90E00E9409185C
:103470000895F999FECF12BC11BCF89A80B58F3F20
:1034800019F40E940F1608950E942318F999FECF8F
:103490001FBA12BC11BC8FEF80BD0FB6F894FA9A18
:1034A000F99A0FBE0895FC0120813181C901807015
:1034B0009A7080509A4009F040C0828D8130D9F0D6
:1034C000813030F0823011F1833009F036C02BC0EA
:1034D00032FF33C0278D30A141A152A1838DF999CC
:1034E000FECF1FBA32BD21BD80BD0FB6F894FA9A47
:1034F000F99A0FBE22C032FF20C0638D748D878D74
:1035000090A14FEC55E10E94F30917C032FF15C09E
:10351000438D548D658D768D878D90A12FEC35E18F
:103520000E94CD090AC023FF08C0468157816085EB
:103530007185878D90A10E9409180E940F16089529
:103540000F931F93CF93DF93EC018B018CEC92E0F0
:1035500061E976E00E9471238CEC92E0BE014AE0C2
:1035600050E00E94CC4A8CEC92E060E20E941D4A3E
:10357000F999FECFD2BDC1BDF89A60B58CEC92E04E
:1035800070E04AE050E00E94314B8CEC92E060E247
:103590000E941D4A8CEC92E0B8010E94CC23DF917E
:1035A000CF911F910F910895CF92DF92EF92FF92EA
:1035B0000F931F937C016B010CEC12E0C80168E9CA
:1035C00076E00E947123C801B7014AE050E00E94F2
:1035D000CC4AC80160E20E941D4AC70167EC75E150
:1035E0000E949B09BC01C8014AE050E00E94314B97
:1035F000C80160E20E941D4AC801B6010E94CC23A6
:103600001F910F91FF90EF90DF90CF900895CF9290
:10361000DF92EF92FF920F931F937C016B010CECF2
:1036200012E0C8016FE976E00E947123C801B7017A
:103630004AE050E00E94CC4AC80160E20E941D4A64
:10364000C70167EC75E10E947509AB01BC01C801B7
:103650002AE030E00E94DD4AC80160E20E941D4A73
:10366000C801B6010E94CC231F910F91FF90EF90EB
:10367000DF90CF900895CF92DF92EF92FF920F9359
:103680001F937C016B010CEC12E0C80166EA76E046
:103690000E947123C801B7014AE050E00E94CC4A61
:1036A000C80160E20E941D4AC7010E94F315AB01E8
:1036B000BC01C80122E030E00E94014CC80160E278
:1036C0000E941D4AC801B6010E94CC231F910F9190
:1036D000FF90EF90DF90CF9008958BE490E068E842
:1036E00076E00E94071B8FE490E06AE676E00E9495
:1036F000071B83E590E062E476E00E94071B83E00D
:1037000090E06EE276E00E943B1B87E090E06AE189
:1037100076E00E943B1B8BE090E066E076E00E9442
:103720003B1B8FE090E068EE75E00E943B1B83E15D
:1037300090E06AEC75E00E943B1B87E190E06CEA48
:1037400075E00E943B1B8BE190E06CE875E00E9405
:103750003B1B8FE190E06CE675E00E943B1B83E22F
:1037600090E06CE475E00E943B1B87E290E06BE325
:1037700075E00E943B1B8FE290E068E275E00E94DA
:103780003B1B83E390E06BE075E00E943B1B87E30B
:1037900090E06EEE74E00E943B1B8BE390E061EDE5
:1037A00074E00E943B1B8FE390E06DEA74E00E949E
:1037B0003B1B83E490E069E874E00E943B1B87E4D4
:1037C00090E065E674E00E943B1B87E690E069E3C9
:1037D00074E00E94A01A83E690E06BE174E00E941E
:1037E0003B1B8BE290E060EF73E00E943B1B87E5A0
:1037F00090E065ED73E00E943B1B8BE590E067EB8A
:1038000073E00E943B1B86E990E064EA73E00E944B
:103810003B1B8AE990E067E873E00E943B1B8EE95E
:1038200090E06BE673E00E943B1B82EA90E06FE45D
:1038300073E00E943B1B86EA90E06CE373E00E9419
:10384000A01A87EA90E06EE273E00E94A01A83EC6F
:1038500090E060E273E00E94A01A88EA90E06DE0D8
:1038600073E00E94071B8CEA90E069EF72E00E940F
:10387000071B80EB90E066EE72E00E94071B84EB72
:1038800090E060ED72E00E94A01A85EB90E06FEB93
:1038900072E00E94071B89EB90E06EEA72E00E94E2
:1038A000071B8DEB90E065E972E00E94D41A84EC6E
:1038B00090E063E872E00E943B1B0895DF92EF9274
:1038C000FF920F931F93CF93DF93DB01853340F477
:1038D000823308F04DC08150873008F0A9C004C081
:1038E000843609F0A5C092C090E0FC01EE53F94F78
:1038F000D490DD0CFC01EE0FFF1FE753F94F6591EB
:103900007491FB0105911491FB013296E590F490BE
:103910004CEF5FE04A1B5B0B82E027C0E82FF0E032
:10392000EE0FFF1FE60FF71FC591D4918F5FE82FB1
:10393000F0E08150EE0FFF1FE60FF71F2591349145
:103940004C175D077CF42E193F09B901882777FDD4
:103950008095982F9A01201B310B442737FD409505
:10396000542F40C08E5F79018E018D15B8F261C071
:103970008E5290E0FC01EE53F94F6491660FFC010A
:10398000EE0FFF1FE753F94F45915491FA0105914E
:103990001491FA013296E590F49082E034C0E82F59
:1039A000F0E0EE0FFF1FE40FF51FC591D4918F5F7C
:1039B000E82FF0E08150EE0FFF1FE40FF51F259177
:1039C0003491AC17BD07E4F42E193F09B9018827DB
:1039D00077FD8095982FA01BB10B9D01442737FDE3
:1039E0004095542F0E94DC4EC01BD10B9E014427F2
:1039F00037FD4095542F0E941D4F2E0D3F1D19C0BD
:103A00008E5F79018E01861750F213C0BD018827A1
:103A100077FD8095982F24EF31E040E050E00E9440
:103A2000DC4E20E030E140E050E00E941D4F01C03C
:103A300001C0C901DF91CF911F910F91FF90EF90CD
:103A4000DF9008956091D8017091D90181E00E94C2
:103A50005E1C0895E091D601F091D70161A172A199
:103A600085850E945E1C0895CF92DF92EF92FF92AF
:103A70000F931F93CF93DF93DB01853340F48233A1
:103A800008F05DC08150873008F0BCC004C08436A7
:103A900009F0B8C0A3C090E0FC01EE53F94FD490F8
:103AA000DD0CFC01EE0FFF1FE753F94F6591749198
:103AB000FB0125913491FB013296E590F49082E070
:103AC00036C0E82FF0E0EE0FFF1FE60FF71F45911D
:103AD00054918F5FE82FF0E08150EE0FFF1FE60F4B
:103AE000F71F059114910A171B07F4F4CCEFDFE0E0
:103AF000C21BD30B241B350BB901882777FD80959A
:103B0000982F97012A1B3B0B442737FD4095542FD4
:103B10000E94DC4EE01AF10A9701442737FD4095D8
:103B2000542F0E941D4F51C08E5F78019A018D1550
:103B300008F4C7CFCCEFDFE0C41BD50B64C08E52B6
:103B400090E0FC01EE53F94F4491440FFC01EE0F5D
:103B5000FF1FE753F94F25913491F901C590D49097
:103B6000F9013296E590F49082E035C0E82FF0E05C
:103B7000EE0FFF1FE20FF31FC591D4918F5FE82F67
:103B8000F0E08150EE0FFF1FE20FF31F059114913B
:103B9000A017B107ECF4B6016C1B7D0B882777FDED
:103BA0008095982F97012A1B3B0B442737FD4095A2
:103BB000542F0E94DC4EE01AF10A9701442737FD8A
:103BC0004095542F0E941D4FE601C20FD31F1BC00A
:103BD0008E5F78016E01841748F215C0BD018827F9
:103BE00077FD8095982F0CE0660F771F881F991F2F
:103BF0000A95D1F724EF31E040E050E00E941D4FDC
:103C0000E90101C001C0CE01DF91CF911F910F9159
:103C1000FF90EF90DF90CF9008954F925F926F9258
:103C20007F928F929F92AF92BF92CF92DF92EF924C
:103C3000FF920F931F93CF93DF93E0911001809138
:103C40000F01853330F48233B8F48150873028F483
:103C500007C0833629F0843679F06FEF7FE013C018
:103C6000F0E0EE0FFF1FE451FE4F808191816CEF79
:103C70007FE0681B790B07C0F0E0EE0FFF1FE451F7
:103C8000FE4F6081718170932401609323018091C4
:103C90000F010E945E1C9C019093280180932701D4
:103CA0004090230150902401C0912501D09126011C
:103CB00080915101E82FF0E0EE0FFF1FEE5AFE4F0A
:103CC000318320838F5F87708093510180912F0112
:103CD000813009F0BEC08091290190912A01803A7B
:103CE00091050CF4AFC0FC01E21BF30BE937F105C1
:103CF0001CF080914801A7C04FEFE838F4070CF49E
:103D0000A1C0E0903C01F0903D0100913E01109176
:103D10003F019F01442737FD4095542F8091360184
:103D200090913701A0913801B0913901820F931F12
:103D3000A41FB51F60904D0170904E0180904F01FF
:103D40009090500186159705A805B9058CF0A090B4
:103D50004901B0904A01C0904B01D0904C013C0108
:103D60004D01A816B906CA06DB0614F43501460152
:103D70006092360170923701809238019092390139
:103D8000CA01B901A80197010E94DC4E7B018C0198
:103D9000E0915101F0E0EE0FFF1FEE5AFE4F6081FF
:103DA00071812091270130912801621B730B8827B4
:103DB00077FD8095982F20914401309145014091E5
:103DC0004601509147010E94DC4E5B016C01AE0C34
:103DD000BF1CC01ED11E2091400130914101409175
:103DE000420150914301C401B3010E94DC4E2AE01C
:103DF00030E040E050E00E941D4FA20EB31EC41EF2
:103E0000D51E5DE9A5165FEFB5065FEFC5065FEF4E
:103E1000D506C4F0C601B50124E630E040E050E02C
:103E20000E941D4F80914801A82EBB24CC24DD2484
:103E3000C901DA01A816B906CA06DB0624F4D601C0
:103E4000C50101C080E0E0910201F0E0E552F64FCB
:103E5000808380912F01882351F4E09102014C1658
:103E60005D060CF48FEFF0E0E552F64F80830E9480
:103E700085455B016C018091EE019091EF012CEF83
:103E80003FE0281B390B3093D9012093D801809152
:103E9000E1019091E201A091E301B091E401B6014A
:103EA000A501481B590B6A0B7B0BDB01CA01895822
:103EB0009341A040B040A0F060E08091DA01909181
:103EC000DB01281739070CF461E08CE00E9477468B
:103ED000A092E101B092E201C092E301D092E4012C
:103EE0002091D8013091D9018091DA019091DB01C4
:103EF0002817390714F48FEF01C080E08093DE01AA
:103F0000DF91CF911F910F91FF90EF90DF90CF90B5
:103F1000BF90AF909F908F907F906F905F904F90E9
:103F20000895E091D601F091D70160E0808988235F
:103F300009F461E087850E94774608950E948545CF
:103F40009B01AC018CEC92E06BEB76E00E94512679
:103F500080916201882349F5409127015091280101
:103F6000A3E055954795AA95E1F78CEC92E069EBB3
:103F700076E00E94B9234091290150912A01F3E093
:103F800055954795FA95E1F78CEC92E067EB76E072
:103F90000E94B923E0910201F0E0E552F64F408122
:103FA0008CEC92E065EB76E028C06091D8017091CE
:103FB000D90181E00E945E1CAC01E3E05595479574
:103FC000EA95E1F78CEC92E063EB76E00E94B9238E
:103FD0004091DF015091E00173E0559547957A9546
:103FE000E1F78CEC92E061EB76E00E94B92340911E
:103FF000DE018CEC92E06FEA76E050E00E94AB24A8
:104000000895BC0184E0613B780714F060EB74E034
:104010007093E0016093DF0181E00E94341D909372
:10402000DB018093DA014091DF015091E001B3E0C0
:1040300055954795BA95E1F78CEC92E067ED76E0FF
:104040000E94AB240895EF92FF920F931F93CF939A
:10405000DF93EC0188E0C939D8071CF0C8E9D8E043
:1040600004C0D7FF02C0C0E0D0E0062F10E080E619
:1040700090E0089F7001099FF00C189FF00C11242C
:10408000E2E0F1E0EE0EFF1EF7018585BE010E9421
:10409000341DF70194A383A3D0A7C7A38CEC92E0AF
:1040A00064EE76E0A8010E94B92313E0D595C79588
:1040B0001A95E1F78CEC92E062EE76E0AE010E9498
:1040C000AB24DF91CF911F910F91FF90EF90089556
:1040D0002F923F924F925F926F927F928F929F9218
:1040E000AF92BF92CF92DF92EF92FF920F931F9306
:1040F000DF93CF9300D000D000D0CDB7DEB7E091F2
:10410000D601F091D7018091240390912503A091CD
:104110002603B0912703858F968FA78FB0A3209198
:1041200028033091290340912A0350912B03A18049
:10413000B280C380D480E0902C03F0902D030091D6
:104140002E0310912F03658076808780908482E013
:1041500091E09093D7018093D601809103019091D3
:104160000401A0910501B0910601280F391F4A1FD3
:104170005B1F2A193B094C095D09209328033093E2
:10418000290340932A0350932B03809107019091B8
:104190000801A0910901B0910A01E80EF91E0A1F59
:1041A0001B1FE618F70808091909E0922C03F09282
:1041B0002D0300932E0310932F03809124039091DD
:1041C0002503A0912603B091270380933403909395
:1041D0003503A0933603B093370360900B017090C2
:1041E0000C0180900D0190900E016092710170920F
:1041F0007201809273019092740160E070E080E837
:104200009FE3A40193010E94804C6093DD027093B0
:10421000DE028093DF029093E0028091130190917F
:104220001401A0911501B09116018B839C83AD837D
:10423000BE838093810190938201A0938301B09308
:10424000840160911701709118018091190190917A
:104250001A010E94E84C6093AD017093AE01809307
:10426000AF019093B00160939D0170939E01809384
:104270009F019093A0010E941B4DA40193010E94F5
:10428000244E0E94ED4C6093ED027093EE028093F9
:10429000EF029093F0026093FD027093FE02809310
:1042A000FF029093000320901B0130901C0140906E
:1042B0001D0150901E01C201B10120E030E040E834
:1042C00052E40E94244EA40193010E94244E9B01BB
:1042D000AC0160E074E284E79BE40E94804C0E94A1
:1042E000564D0E94ED4C7B018C016A836093040360
:1042F0006B817C818D819E8125E638E848E85FE30B
:104300000E94244EA40193010E94244E9B01AC0103
:1043100060E074E284E79BE40E94804C0E94564D6A
:104320000E94ED4C6983609305036E1518F0E092CE
:1043300005036AC0A0901701B0901801C090190140
:10434000D0901A016B817C818D819E819B01AC0193
:104350000E94244E21E530EA41E159E30E94244EB7
:10436000A60195010E94804C7B018C01C201B10124
:10437000A20191010E94244E20E030E040E05FEB7A
:104380000E94244EA60195010E94804C9B01AC0125
:10439000C801B7010E94054CA40193010E94244E5C
:1043A0007B018C01BA816B2F70E0E9816E1B710972
:1043B000882777FD8095982F0E941B4D9B01AC01AB
:1043C000C801B7010E94804C0E94694C7B018C019E
:1043D00020E030E040E85FE30E947C4C882314F446
:1043E00061E010C0C801B70120E030E04FE753E4BE
:1043F0000E94204E181614F46FEF04C0C801B701D4
:104400000E94ED4C609306036091050370E080E02C
:1044100090E00E94194D20E030E040E852E40E9414
:10442000244EA40193010E94244E9B01AC0160E044
:1044300074E284E79BE40E94804C20E030E040E797
:1044400052E40E94244E7B018C012B813C814D81E2
:104450005E810E947C4C882344F4E0928101F092BA
:1044600082010093830110938401E0904001F09059
:1044700041010091420110914301E114F104010551
:10448000110571F160913A0170E080E090E028EE52
:1044900033E040E050E00E94DC4EA80197010E940A
:1044A0001D4F2093490130934A0140934B01509393
:1044B0004C0160913B0170E080E090E028EE33E039
:1044C00040E050E00E94DC4EA80197010E941D4F81
:1044D00020934D0130934E0140934F015093500172
:1044E000E0904003F0904103009142031091430398
:1044F000A0900B01B0900C01C0900D01D0900E0166
:10450000C801B701A60195010E94244E0E94E84C03
:104510004B017093390360933803C801B7012091B0
:1045200044033091450340914603509147030E9454
:10453000054CA60195010E94244E0E94E84C709300
:104540003B0360933A0380914803823028F4109231
:104550004E0310924D032DC0B401882777FD80953E
:10456000982F0E941B4D7B018C0117FB109517F9AA
:10457000109560E070E088EC92E42091490330915E
:104580004A0340914B0350914C030E94044C9B0101
:10459000AC01C801B7010E94244E2AE037ED43E286
:1045A0005CE30E94244E0E94E84C70934E0360939B
:1045B0004D0380E061E00E94633B26960FB6F894BD
:1045C000DEBF0FBECDBFCF91DF911F910F91FF9046
:1045D000EF90DF90CF90BF90AF909F908F907F90A3
:1045E0006F905F904F903F902F90089582E091E000
:1045F0009093D7018093D601209A219A209A219AEC
:104600008091110161E00E94384680911201882357
:1046100029F48091110161E00E9477460E9485454E
:1046200060932B0170932C0180932D0190932E01A8
:104630008CE061E00E94384680E00E94682080E4BF
:1046400080937C001092E5011092E8011092E7013E
:104650001092ED011092EC011092E6011092EA0125
:104660001092E9011092EF011092EE0187EC809315
:104670007A0080917A0086FDFCCF8091780090913D
:104680007900E091EB01F0E0E355F94FE49180917E
:104690007C00E770807EE82BE0937C0080917A00BC
:1046A000806480937A00089580FD02C024E001C0F8
:1046B00026E081FD2F5F82FD2F5F83FD2C5F84FD4F
:1046C0002C5F85FD2C5F86FD2C5F90FD2C5F91FD9E
:1046D0002F5F92FD2C5F93FD2C5F97FD205F822F53
:1046E00008950F931F93CF93DF938C01EB0108C0C4
:1046F000D801ED91FC910190F081E02DC801099560
:10470000FE0121966491662399F7DF91CF911F9165
:104710000F9108958091C702882319F440E050E07A
:1047200015C08091580290E09C012F5F3F4F21708F
:1047300030702093580224E330E0829FA001839FD1
:10474000500D929F500D112440515E4FCA010895A3
:104750008091C70281508093C70208951092CF02C2
:104760001092CE0281EC91E09093CD028093CC0226
:104770000895EF92FF920F931F938C017A010E948C
:104780007123C801B7014AE050E00E94314B1F91EC
:104790000F91FF90EF9008950F931F938C010E944B
:1047A0007123C8010E94254A1F910F9108950F930C
:1047B0001F93CF93DF93FC018B017091BE02725067
:1047C000D80140E050E020E030E01FC0672F763194
:1047D00008F065E1ED01962F8991480F511D4F3F7B
:1047E000510510F04F5F5040240F351F2F3F31050A
:1047F00010F02F5F3040915079F76150862F90E094
:104800006F5F0196A80FB91F761B7723F9F61196F3
:104810008C911197281B31098C91481B5109242B2D
:10482000352B232B61F08091B10182FF06C08CEC07
:1048300092E06FE079E00E94CC2380E087C0E8013D
:10484000899199919183808380FF12C0D80112963B
:104850008D919C91139793838283A0E0B0E0809325
:10486000C3029093C402A093C502B093C6022296DD
:10487000808181FF02C089918483808182FF02C090
:1048800089918583808183FF08C089919991A9913D
:10489000B99186839783A087B187808184FF08C000
:1048A00089919991A991B99182879387A487B587B6
:1048B000808185FF08C089919991A991B9918687D6
:1048C0009787A08BB18B808186FF08C089919991D1
:1048D000A991B991828B938BA48BB58B80819181A7
:1048E00090FF08C089919991A991B991868B978B76
:1048F000A08FB18F8081918191FF02C08991828FB9
:104900008081918192FF08C089919991A991B99173
:10491000838F948FA58FB68F8081918193FF08C07C
:1049200089919991A991B991878F90A3A1A3B2A3DD
:104930008081918197FF09C0DF01939690E0899172
:104940008D939F5F9031D9F713AA81E0DF91CF91CA
:104950001F910F910895EF92FF920F931F938C0177
:104960007A010E947123C801B7014AE050E00E9419
:10497000444B1F910F91FF90EF9008950F931F9359
:10498000CF93DF93EC018B0119821882CB016EE487
:1049900070E00E944E090097B1F0019660E070E06F
:1049A0004AE050E00E9407086093C3027093C4027B
:1049B0008093C5029093C602288139812160398392
:1049C00028837B836A83C8016DE470E00E944E09EE
:1049D000009769F0019660E070E04AE050E00E94C4
:1049E00007086C8388819981826099838883C801D4
:1049F00067E470E00E944E09009769F0019660E05C
:104A000070E04AE050E00E9407086D838881998138
:104A1000846099838883C80168E570E00E944E092C
:104A2000009771F0019660E070E00E94A7066E8327
:104A30007F83888799878881998188609983888313
:104A4000C80169E570E00E944E09009771F0019677
:104A500060E070E00E94A7066A877B878C879D874D
:104A600088819981806199838883C8016AE570E0B3
:104A70000E944E09009771F0019660E070E00E947C
:104A8000A7066E877F87888B998B88819981806242
:104A900099838883C80165E470E00E944E090097FD
:104AA00071F0019660E070E00E94A7066A8B7B8B34
:104AB0008C8B9D8B88819981806499838883C801C0
:104AC00066E470E00E944E09009771F0019660E084
:104AD00070E00E94A7066E8B7F8B888F998F8881EC
:104AE0009981916099838883C80164E570E00E9490
:104AF0004E09009769F0019660E070E04AE050E0EE
:104B00000E9407086A8F88819981926099838883BF
:104B1000C80163E570E00E944E09009781F001969C
:104B200060E070E04AE050E00E9407086B8F7C8FE5
:104B30008D8F9E8F88819981946099838883C80125
:104B400060E570E00E944E09009781F0019660E0F8
:104B500070E04AE050E00E9407086F8F78A389A3B5
:104B60009AA388819981986099838883888181FF3D
:104B70002EC08C81873159F08C3149F08D3139F05C
:104B80008E3129F0853719F502C0319601C0F80140
:104B900080818D34D1F701C0319680818032E1F778
:104BA00001C0319680818032E1F3DE01939606C028
:104BB000803239F08A3229F08D93319680818823B2
:104BC000B9F71C9288819981906899838883C8017C
:104BD0006AE270E00E944E09EC010097F9F001963C
:104BE00060E070E04AE050E00E94070840E004C046
:104BF000F80181918F0148270C171D07C9F7461747
:104C000069F08091B10182FF07C08CEC92E068EFFF
:104C100078E050E00E94AB2480E001C081E0DF91A9
:104C2000CF911F910F910895CF92DF92EF92FF9253
:104C30000F931F936C0179018A010E947123C601B1
:104C4000B801A7012AE030E00E941D4B1F910F918F
:104C5000FF90EF90DF90CF9008951092BA0280916C
:104C6000BB02882311F08EE101C08EE080936401C5
:104C70002091BF023091C0024091C1025091C20206
:104C80002F5F3F4F4F4F5F4F8CEC92E064E679E02F
:104C90000E9414268CEC92E061E679E00E94CC231D
:104CA0000895CF92DF92EF92FF920F931F936C01C2
:104CB00079018A010E947123C601B801A7012AE087
:104CC00030E00E94DD4A1F910F91FF90EF90DF903E
:104CD000CF900895EF92FF920F931F93CF93DF939E
:104CE000EC01888181FF1FC08C818E36A9F48091F0
:104CF000C3029091C402A091C502B091C6028093F4
:104D0000BF029093C002A093C102B093C2028CEC88
:104D100092E06EE579E056C0803729F4E091E6092B
:104D2000F091E7090995888180FF57C02091BF0263
:104D30003091C0024091C1025091C2022F5F3F4F9B
:104D40004F4F5F4FE090C302F090C4020091C50244
:104D50001091C602DA01C9018E259F25A027B1272F
:104D6000892B99F18091640187FF1BC08091B1016B
:104D700082FF14C08CEC92E068E479E00E94512636
:104D80002091C3023091C4024091C5025091C602E5
:104D90008CEC92E062E479E00E9414260E942D26B9
:104DA0003EC08150809364011092BA028CEC92E074
:104DB0006CE379E0A80197010E9414268CEC92E044
:104DC00069E379E00E94CC232AC0E092BF02F0920E
:104DD000C0020093C1021093C2028091590290E078
:104DE000019681709070809359028091C7028F5F05
:104DF0008093C7022091C3023091C4024091C50242
:104E00005091C6028CEC92E065E379E00E94142692
:104E10008091BB028093BC028FEF80936401DF918D
:104E2000CF911F910F91FF90EF900895EF92FF9215
:104E30000F931F93CF93DF930E9485457B018C01D5
:104E40008091C702823008F002C18DE09BE00E9491
:104E5000A948892B09F0D1C08091640187FF04C063
:104E60008091BA028823B1F08091C8029091C90262
:104E7000A091CA02B091CB02A8019701281B390B5F
:104E80004A0B5B0B293C31054105510518F00E9486
:104E90002D2621C08091C702882309F0AEC08091E1
:104EA000C8029091C902A091CA02B091CB02A80198
:104EB0009701281B390B4A0B5B0BDA01C901895E8C
:104EC0009340A040B04008F498C08CEC92E060E3BE
:104ED00079E00E94CC23E092C802F092C9020093CC
:104EE000CA021093CB0289C09091640197FD0FC054
:104EF0008091BC02882359F080915A02882321F4C2
:104F000091509093640150C0F09264014DC0809123
:104F10005A02882309F448C08823880F880B80230D
:104F20008093BB028091BB02882359F1123008F4B0
:104F300067C0123049F480915A0290915B020E943E
:104F400054238093BE025CC08091BE02181709F002
:104F500057C09091590284E3989FE0011124C051F9
:104F6000DE4FCE016AE572E00E94D723882321F04C
:104F7000CE010E946A2602C00E942D261092BA021B
:104F800066C0A12FB0E0FD01E75AFD4FE081EA3095
:104F900031F0ED3021F0EA3311F01F3510F1A65A4F
:104FA000BD4F1C92113019F41092BA0229C0909191
:104FB000590284E3989FE0011124C051DE4FCE01D5
:104FC0006AE572E00E94BE24882321F0CE010E948F
:104FD0006A2602C00E942D261092BA021092BD02CB
:104FE00036C0EB3311F40093BD028091BD028823DB
:104FF00039F011501093BA0203C001E08EE1F82E8F
:105000008DE09BE00E94A9481816190604F58091CE
:10501000BA028036E0F40E9485456093C80270931E
:10502000C9028093CA029093CB021091BA028DE01C
:105030009BE00E94DA48E12FF0E0E65AFD4F8083C2
:105040001F5F1093BA02113009F06CCF4DCFDF9182
:10505000CF911F910F91FF90EF9008957F928F92C3
:105060009F92AF92BF92CF92DF92EF92FF920F93F7
:105070001F93CF93DF93EC017A018B01922ECB012A
:10508000BA0120E030E040E050E00E947C4C8823F0
:1050900064F4E881F9810190F081E02DCE016DE2A8
:1050A000099517FB109517F9109520E030E040E0C6
:1050B0005FE3AA240BC0CA01B90120E030E040E25E
:1050C00051E40E94804C9B01AC01A394A91498F375
:1050D000C801B7010E94054C5B016C010E94ED4CB8
:1050E0007B018C017C2E8D2ECE01B801A7012AE018
:1050F00030E00E94BD4A992041F0E881F981019099
:10510000F081E02DCE016EE20995C801B7010E9441
:10511000194D9B01AC01C601B5010E94044C23C08E
:1051200020E030E040E251E40E94244E5B016C013B
:105130000E94E84C9B01AC017B01872D982DB901A1
:105140004AE050E00E94314B0027F7FC0095102FF9
:10515000C801B7010E941B4D9B01AC01C601B501FE
:105160000E94044C9A949920D9F6DF91CF911F9117
:105170000F91FF90EF90DF90CF90BF90AF909F90F6
:105180008F907F900895AF92BF92CF92DF92EF926F
:10519000FF920F937C0159016A010E947123C7019C
:1051A000B601A501202F0E942E28C7010E94254A82
:1051B0000F91FF90EF90DF90CF90BF90AF90089548
:1051C000CF92DF92EF92FF920F9369017A010E94D2
:1051D00071238CEC92E0B701A601202F0E942E28AB
:1051E0000F91FF90EF90DF90CF9008950F93CF93A2
:1051F000DF93EC01888181FF12C08CEC92E06DE4BA
:105200000E941D4A6C818CEC92E070E04AE050E014
:105210000E94314B8CEC92E060E20E941D4A888132
:1052200082FF12C08CEC92E067E40E941D4A6D81FF
:105230008CEC92E070E04AE050E00E94314B8CEC44
:1052400092E060E20E941D4A8881998191FF12C01C
:105250008CEC92E064E50E941D4A6A8D8CEC92E031
:1052600070E04AE050E00E94314B8CEC92E060E24A
:105270000E941D4A888183FF0BC02E813F81488593
:1052800059858CEC92E065EF78E002E00E94E0281E
:10529000888184FF0BC02A853B854C855D858CEC1D
:1052A00092E062EF78E002E00E94E028888185FFCA
:1052B0000BC02E853F85488959898CEC92E06FEEB2
:1052C00078E002E00E94E028888186FF0BC02A89EE
:1052D0003B894C895D898CEC92E06CEE78E004E0CF
:1052E0000E94E0288881998190FF0BC02E893F8918
:1052F000488D598D8CEC92E069EE78E002E00E94D6
:10530000E0288881998192FF0AC02B8D3C8D4D8DBC
:105310005E8D8CEC92E066EE78E00E9451268881EA
:10532000998193FF0AC02F8D38A149A15AA18CEC15
:1053300092E063EE78E00E9451268881998197FF80
:105340000BC08CEC92E060E20E941D4AA3968CECAC
:1053500092E0BE010E94634BDF91CF910F910895BF
:105360008DE09BE00E94154981E090E00895CF9286
:10537000DF92EF92FF920F931F93CF93DF93609191
:10538000650170916601809167019091680120E04C
:1053900030E048E453E40E94244E0E94E84C6093BD
:1053A0004F03709350038093510390935203609185
:1053B000690170916A0180916B0190916C0120E00C
:1053C00030E048E453E40E94244E0E94E84C60938D
:1053D0005303709354038093550390935603609145
:1053E0006D0170916E0180916F019091700120E0CC
:1053F00030E048EC52E40E94244E0E94E84C609356
:105400005703709358038093590390935A03C0E055
:10541000D0E0FE01EB59FE4FE080F1800281138164
:1054200021EDC22E22E0D22ECC0EDD1E60E070E017
:1054300080E89FE3A80197010E94804CF6016083F9
:1054400071838283938391EEC92E92E0D92ECC0E84
:10545000DD1EFE01EF56FE4F6081718182819381D6
:105460000E941B4DA80197010E94244E0E94ED4C02
:10547000F601608371838283938381EFC82E82E07B
:10548000D82ECC0EDD1EFE01EF55FE4F60817181DE
:10549000828193810E941B4DA80197010E94244E96
:1054A0000E94ED4CF601608371838283938324967E
:1054B000C031D10509F0ADCFDF91CF911F910F9190
:1054C000FF90EF90DF90CF9008954F925F92AF9250
:1054D000BF92CF92DF92EF92FF920F9320E2803043
:1054E000920708F079C022E08030920708F04AC0A5
:1054F0008A30910510F48AE090E0A12C34E2B32EBA
:1055000034EFC32ED12CEE24FF18DD20A1F4CC20E3
:1055100009F012C001E1AA1CBB1C0A9509F431C0B4
:10552000EE1CFF1CE81AF90A20F4E80EF91E889414
:10553000F2CF0894F0CF12C009E1AA1CBB1CCC1C0E
:105540000A9509F41EC0EE1CFF1CE81AF90A20F4A3
:10555000E80EF91E8894F1CF0894EFCF01E2AA1C5F
:10556000BB1CCC1CDD1C0A9509F40BC0EE1CFF1CF7
:10557000E81AF90A20F4E80EF91E8894F0CF08948E
:10558000EECF51C0E1E7F9E0282F2F71969587956E
:105590009695879596958795969587958E7FE80F32
:1055A000F91FA590B5902501059040180590500869
:1055B000249DC001259D900DE12D880F991FEE1FA0
:1055C000880F991FEE1F880F991FEE1FA91ABE0A98
:1055D000CC24DD24112427C0E3E7FBE09C013F70CD
:1055E0009695969596959E7FE90FF11DA590B5909D
:1055F00025010590401805905008249DC001359D57
:10560000E02D259D900DE11D349D900DE11D907FB5
:105610009295E2958E2F807F982BEF70A91ABE0A83
:10562000CC24DD241124B501C6010F91FF90EF9029
:10563000DF90CF90BF90AF905F904F900895DF9232
:10564000EF92FF920F931F93CF93DF93EC01809122
:10565000D409888183FF45C08091D002882359F006
:105660006E817F818885998523E333E34BEC51E498
:105670000E94244E04C06E817F8188859985209187
:1056800065013091660140916701509168010E9467
:10569000244E0E94E84C9B01AC0180917603882344
:1056A00049F08091180390911903A0911A03B091C9
:1056B0001B0308C080916B0390916C03A0916D0354
:1056C000B0916E03820F931FA41FB51F8093280310
:1056D00090932903A0932A03B0932B03DD24D39442
:1056E00011C08091180390911903A0911A03B091F1
:1056F0001B038093280390932903A0932A03B0935C
:105700002B03DD24888184FF45C08091D00288234B
:1057100059F06A857B858C859D8523E333E34BECCB
:1057200051E40E94244E04C06A857B858C859D854A
:105730002091690130916A0140916B0150916C0197
:105740000E94244E0E94E84C9B01AC01809176039C
:10575000882349F080911C0390911D03A0911E03A2
:10576000B0911F0308C080916F0390917003A091C6
:105770007103B0917203820F931FA41FB51F809312
:105780002C0390932D03A0932E03B0932F03DD24BD
:10579000D39410C080911C0390911D03A0911E030F
:1057A000B0911F0380932C0390932D03A0932E039D
:1057B000B0932F03888185FF45C08091D002882354
:1057C00059F06E857F858889998923E333E34BEC13
:1057D00051E40E94244E04C06E857F858889998992
:1057E00020916D0130916E0140916F0150917001D7
:1057F0000E94244E0E94E84C9B01AC0180917603EC
:105800008823A9F08091200390912103A091220385
:10581000B0912303820F931FA41FB51F8093300301
:1058200090933103A0933203B093330308C02093C5
:105830003003309331034093320350933303DD241C
:10584000D39410C08091200390912103A091220352
:10585000B09123038093300390933103A0933203DC
:10586000B0933303888186FF43C08091B10183FDEB
:105870003FC08091D002882359F06A897B898C8946
:105880009D8923E333E34BEC51E40E94244E04C092
:105890006A897B898C899D8920917101309172017F
:1058A00040917301509174010E94244E0E94E84C73
:1058B0009B01AC0180917603882321F480917703CA
:1058C000882369F08091240390912503A0912603F9
:1058D000B0912703820F931FA41FB51F11C02093FF
:1058E000340330933503409336035093370310C08D
:1058F0008091240390912503A0912603B091270362
:105900008093340390933503A0933603B093370309
:105910008881998190FF56C0EE88FF88088D198D87
:10592000C801B70120E030E040E251E40E947C4C25
:1059300088236CF480E090E0A0E2B1E480935B0304
:1059400090935C03A0935D03B0935E033BC0809192
:10595000D0028823C9F0C801B7012AE43CE042E83C
:105960005EE30E94244E7B018C0160915F03709185
:105970006003882777FD8095982F0E941B4D9B011F
:10598000AC01C801B70114C060915F03709160035E
:10599000882777FD8095982F0E941B4D9B01AC01B5
:1059A000C801B7010E94244E2AE037ED43E25CE3D0
:1059B0000E94244E60935B0370935C0380935D03AD
:1059C00090935E03DD20D9F4888186FD02C060E0FB
:1059D00017C060E0209134033091350340913603C5
:1059E000509137038091240390912503A0912603C1
:1059F000B0912703281739074A075B0709F061E0D0
:105A0000862FDF91CF911F910F91FF90EF90DF9044
:105A100008952F923F924F925F926F927F928F9252
:105A20009F92AF92BF92CF92DF92EF92FF920F932D
:105A30001F93CF93DF93EC01898180FDC8C07BE584
:105A4000C72ED12CCC0EDD1EC75ADF4FA880B980DF
:105A5000C955D040B50180E090E00E94194D7B010E
:105A60008C01ED9629913991499159910E94244ECA
:105A70000E94ED4C3B014C01F60171836083C8012B
:105A8000B701288139814A815B810E94244E0E949E
:105A9000ED4C1B012C016C9679836883CD55D04069
:105AA000C501889F5001999F6001899F8827B00C8C
:105AB000C11CD81EB00CC11CD81E11249301229FFA
:105AC000C001339FD001239F2227900DA11DB21F3B
:105AD000900DA11DB21F11246DE4662E712C6C0E69
