:100000000C9401040C941E040C941E040C941E0405
:100010000C941E040C941E040C941E040C941E04D8
:100020000C941E040C941E040C94A9150C94E31556
:100030000C941E040C941E040C941E040C941E04B8
:100040000C941E040C941E040C941E040C941E04A8
:100050000C941E040C941E040C941E040C943B0976
:100060000C941E040C941E040C941E040C941E0488
:100070000C941E040C94EE140C941E040C941E0498
:100080000C941E040C941E040C941E040C941E0468
:100090000C941E040C941E040C941E040C941E0458
:1000A0000C941E040C941E040C941E046E616E00CD
:1000B000696E6600446F6E65202020200025732C39
:1000C0000A0025732C200025642C200025642C2098
:1000D0000025732C200025642C2000446F6E6520C1
:1000E0002000436F6F6C2020005265666C6F7700B4
:1000F000536F616B20202000507265686561740049
:100100007467743A2564604320006375723A25640D
:10011000604320006175746F206D6F6465207365A6
:100120007373696F6E2073746172742C0A00457268
:10013000726F7220696E2050726F66696C650A007A
:100140007265666C6F7720746F6173746572206F6F
:1001500076656E2C0A0068656C6C6F20776F726C28
:10016000642C0A0000000000000000BE0000000631
:1001700000060028FE28FE280854FE5420231308F9
:1001800064626C92AA44A000020408000038448211
:1001900000008244380028107C102810107C1010B9
:1001A00000B07000001010101010006060000040DF
:1001B000201008047CA2928A7C0084FE800084C205
:1001C000A2928C448292926C302824FE204E8A8A1D
:1001D0008A727C929292640202F20A066C92929265
:1001E0006C0C9292523C006C6C000000AC6C0000F5
:1001F0001028448200282828282800824428100437
:1002000002A2120C7C82BAAABCF8242224F8FE9224
:1002100092926C7C82828244FE82824438FE929268
:100220009282FE121212027C82929274FE101010C0
:10023000FE0082FE82004080827E02FE1028448200
:10024000FE80808080FE040804FEFE081020FE7CF4
:100250008282827CFE1212120C7C82A242BCFE12AE
:1002600032528C8C929292620202FE02027E808056
:10027000807E3E4080403E7E807C807EC628102866
:10028000C60E10E0100EC2A2928A8600FF81810085
:100290000408102040008282FE0008040204088046
:1002A00080808080000E0A0E0040A8A8A8F0FE9072
:1002B000888870708888880070888890FE70A8A8E8
:1002C000A83010FC1202040C9292927EFE201010B4
:1002D000F00088FA80004080887A00FE2050880074
:1002E0000082FE8000F8083008F0F8100808F0706E
:1002F00088888870F82828281018242428FCF810EA
:1003000008081090A8A8A840087E888040788080BF
:1003100040F838408040387880608078885820D015
:100320008898A0A0A07888C8A8988800106C82003F
:100330000000EE000000826C1000040204080400BB
:100340000100007303120002000085034300030054
:1003500000C8030401030904CC031C02030904EAD6
:1003600003160303090402040C0001C112018036C4
:100370000181361201000202000010C0167A04004A
:10038000010102030109024300020100C032090415
:1003900000000102020100052400100105240101F2
:1003A000010424020605240600010705820310004B
:1003B0004009040100020A00000007050302400092
:1003C0000007058402400000040309041C034600E2
:1003D000720061006E006B003200360030003800A1
:1003E0003000310031003500000016035500530085
:1003F00042002000530065007200690061006C003B
:1004000000000C03310032003300340035000000DE
:10041000456469742053657474696E67730A004D8E
:10042000616E75616C2050574D20436F6E74726F12
:100430006C0A004D616E75616C2054656D702043CF
:100440006F6E74726F6C0A004175746F204D6F642B
:10045000650A00486F6D65204D656E750A0045722E
:10046000726F7220696E2053657474696E67730AC7
:10047000004261636B20746F20486F6D65204D658D
:100480006E750A00526573657420746F204465664A
:1004900061756C74730A0054696D6520746F204D2A
:1004A00061783D20256420730A004D6178205465F1
:1004B0006D703D2025642060430A0050494420446B
:1004C0003D2025730A0050494420493D2025730AE8
:1004D0000050494420503D2025730A00456469744A
:1004E0002053657474696E67730A0052657365748E
:1004F00020746F2044656661756C74732E2E2E20F7
:10050000446F6E650A004261636B20746F20486F10
:100510006D65204D656E750A0053746172740A0032
:10052000526573657420746F2044656661756C74E0
:10053000730A00456469742050726F66696C650ABD
:10054000004175746F204D6F64650A004572726FCB
:100550007220696E2050726F66696C650A00526580
:100560007475726E20746F204175746F204D6F64C6
:10057000650A00436F6F6C20526174653D202573DE
:100580002060432F730A0054696D6520746F2050FA
:1005900065616B3D20256420730A005065616B2006
:1005A00054656D703D2025642060430A00536F61DF
:1005B0006B204C656E6774683D20256420730A00CB
:1005C000536F616B2054656D7020323D202564208F
:1005D00060430A00536F616B2054656D7020313D9C
:1005E0002025642060430A005374617274205261B4
:1005F00074653D2025732060432F730A00456469AC
:10060000742050726F66696C650A0025732C0A00AD
:1006100025732C200025732C200025732C200050DE
:10062000574D3A202573202F2036353533350A00B3
:1006300053656E736F723A202573202F203130324C
:10064000330A0043757272656E743A202573206018
:10065000430A005461726765743D2025732060432E
:100660000A004D616E75616C2054656D7020436F9A
:100670006E74726F6C0A006D616E75616C207465CA
:100680006D706572617475726520636F6E74726FE0
:100690006C206D6F64652C0A0025732C0A0025738D
:1006A0002C200025732C200054656D703A20257392
:1006B0002060430A0053656E736F723A20257320E1
:1006C0002F20313032330A0050574D3D2025732002
:1006D0002F2036353533350A004D616E75616C203B
:1006E00050574D20436F6E74726F6C0A006D616ECF
:1006F00075616C2050574D20636F6E74726F6C2063
:100700006D6F64652C0A0000407A10F35A00A072E5
:100710004E18090010A5D4E80000E876481700003C
:10072000E40B54020000CA9A3B000000E1F505000A
:100730000080969800000040420F000000A0860153
:10074000000000102700000000E803000000006423
:1007500000000000000A000000000001000000008E
:10076000002C76D888DC674F0823DFC1DFAE59E163
:10077000B1B796E5E3E453C63AE651997696E8E6D2
:10078000C28426EB898C9B62ED407C6FFCEFBC9CA5
:100790009F40F2BAA56FA5F490055A2AF75C936BB7
:1007A0006CF9676DC11BFCE0E40D47FEF520E6B572
:1007B00000D0ED902E0300943577050080841E084C
:1007C0000000204E0A000000C80C333333330F986A
:1007D0006E12831141EF8D2114893BE65516CFFE31
:1007E000E6DB18D1844B381BF77C1D901DA4BBE4BD
:1007F00024203284725E228100C9F124ECA1E53DFF
:10080000270011241FBECFEFDAE0DEBFCDBF11E01D
:10081000A0E0B1E0E4E1F8E502C005900D92A43259
:10082000B107D9F714E0A4E2B1E001C01D92AF34E2
:10083000B107E1F70E9497090C94BF250C940000C2
:10084000A3E1B0E0E6E2F4E00C94BD2B6C017F87FD
:100850006E87FC0117821682838181FD04C06FC3FD
:100860004C855D8504C01E010894211C311CF601D5
:100870009381EE85FF8593FD859193FF8191FF879D
:10088000EE87882309F457C3853241F493FD85919F
:1008900093FF8191FF87EE87853259F490E0B6018E
:1008A0004A8B5B8B0E9415274A895B895D874C8741
:1008B000D7CF10E0FF2400E00032B0F48B3269F0B3
:1008C0008C3228F4803251F0833271F40BC08D32B7
:1008D00039F0803349F401602CC00260046029C003
:1008E000086027C0006125C007FD2EC0282F2053B7
:1008F0002A3098F406FF08C0812F880F182F110F97
:10090000110F180F120F15C08F2D880FF82EFF0C26
:10091000FF0CF80EF20E00620CC08E3221F406FDC0
:100920000AC3006406C08C3611F4006802C0883621
:1009300059F4EE85FF8593FD859193FF8191FF87A3
:10094000EE87882309F0B8CF982F9554933018F488
:100950000061805E06C0982F9556933008F09BC1C9
:100960000F7E06FF16E06FE3E62EE022853619F4CF
:10097000F0E4EF2A07C0863619F420E8E22A02C024
:1009800011111150E7FE06C01C3340F4912E9394D0
:1009900027E00BC0183030F4212F06C027E03CE3DD
:1009A000932E03C027E017E09924CA0104969D877F
:1009B0008C87FA016081718182819381A101092D67
:1009C0000E94C2255C016980262D30E0398B288B7E
:1009D00060FE03C0388933FF06C0E1FC06C0E2FEBA
:1009E00006C000E205C00DE203C00BE201C000E05A
:1009F000888999898C7090700097C1F1002311F05B
:100A000084E001C083E08F1558F4F81AE3FC09C0B4
:100A100080E290E0B6010E941527FA94C9F701C060
:100A2000FF24002329F0802F90E0B6010E941527B3
:100A3000888983FD03C000EB10E00EC00CEA10E0D3
:100A40000BC0A114B10409F0805290E0B6010E94DD
:100A500015270F5F1F4F05C0AE2CBB2490E1A922C4
:100A6000BB24F8018491882361F762C2E7FE0EC0BF
:100A70009A0CF889F4FF04C08A81813309F49A94AE
:100A8000191454F5292D293050F52DC0E6FC2BC042
:100A9000812F90E08A159B054CF03CEFA3163FEFA9
:100AA000B30624F080E8E82A01C01150112349F070
:100AB000E2E0F0E0EC0FFD1FE10FF11D80818033DB
:100AC000A1F3E7FE10C0912E9394812F90E0A81619
:100AD000B90644F41A1907C09924939404C098E005
:100AE000992E01C010E0E7FE07C01A141B043CF465
:100AF00095012F5F3F4F05C025E030E002C021E0A7
:100B000030E0002311F02F5F3F4F112329F0812F98
:100B100090E00196280F391F8F2D90E02817390794
:100B200014F4F21A01C0FF244E2C5524C20189701E
:100B30009070009749F406C080E290E0B6010E94F0
:100B40001527FA94FF20C1F7002329F0802F90E0A9
:100B5000B6010E94152743FC09C006C080E390E05F
:100B6000B6010E941527FA94FF20C1F7E7FE46C0A0
:100B70003501B7FE02C06624772425010894411C84
:100B8000511C46185708420C531CF501E919F1098C
:100B90004F01812F90E000271127081B190BFFEF51
:100BA0006F16FFEF7F0629F48EE290E0B6010E94F7
:100BB0001527A614B70434F0861497041CF4F20128
:100BC000808101C080E30894610871080894411C89
:100BD000511C601671062CF090E0B6010E9415279A
:100BE000DECF6A147B0441F49A81963320F4953366
:100BF00019F4F889F4FF81E390E049C08A818133D8
:100C000011F02FEE622290E0B6010E941527112309
:100C100089F08EE290E0B6010E94152702E0F10112
:100C2000E00FF11D0F5F808190E0B6010E94152753
:100C30001150A9F744FE03C085E490E002C085E6A8
:100C400090E0B6010E941527B7FC05C0A114B104BD
:100C500041F464FE06C0B094A194B108B3948DE24F
:100C600001C08BE290E0B6010E94152780E305C029
:100C70008F5FE6EFFFEFAE0EBF1EFAE0AF16B104D6
:100C8000BCF790E0B6010E941527C501C096B601D9
:100C90000E9415274DC1833631F0833789F08335A3
:100CA00009F059C022C09A012E5F3F4F3D872C8723
:100CB000FA0180818983310181E0A82EB12C13C013
:100CC0009A012E5F3F4F3D872C87FA01608071802B
:100CD00006FF03C0612F70E002C06FEF7FEFC3011A
:100CE0000E94A5265C010F7714C09A012E5F3F4F2A
:100CF0003D872C87FA016080718006FF03C0612F59
:100D000070E002C06FEF7FEFC3010E949A265C0182
:100D1000006803FD1CC006C080E290E0B6010E949E
:100D20001527FA948F2D90E0A816B906A8F30FC0E6
:100D3000F30107FD859107FF81913F0190E0B60126
:100D40000E941527F110FA940894A108B108A11483
:100D5000B10471F7EDC0843611F0893661F507FFF3
:100D60000BC09A012C5F3F4F3D872C87FA016081B1
:100D70007181828193810CC09A012E5F3F4F3D8724
:100D80002C87FA0160817181882777FD8095982FE3
:100D90000F7697FF08C090958095709561957F4F6D
:100DA0008F4F9F4F0068A1012AE030E00E94642726
:100DB000982E921841C0853721F40F7E2AE030E04A
:100DC00020C0097F8F36A9F0803720F4883509F0DC
:100DD000B2C00BC0803721F0883709F0ACC001C029
:100DE000006104FF09C0046007C004FF08C006607A
:100DF00006C028E030E005C020E130E002C020E17C
:100E000032E007FF0AC0CA0104969D878C87FA0169
:100E1000608171818281938109C0CA0102969D8798
:100E20008C87FA016081718180E090E0A1010E94CD
:100E30006427982E92180F7706FF09C00E7F91162F
:100E400030F404FF06C002FD04C00F7E02C0E92C8E
:100E500001C0E12E802F90E004FF0CC0FE01E90DDF
:100E6000F11D2081203311F4097E09C0E39402FFB3
:100E700006C004C086789070009709F0E394A02E15
:100E8000BB2403FD14C000FF0FC0EF1428F4192D7C
:100E90001F0D1E19EF2C08C0192D06C080E290E02E
:100EA000B6010E941527E394EF14C0F304C0EF14B9
:100EB00010F4FE1801C0FF24A4FE0FC080E390E0F0
:100EC000B6010E941527A2FE1FC0A1FE03C088E53F
:100ED00090E010C088E790E00DC0C5018678907062
:100EE000009791F0A1FC02C080E201C08BE207FDF7
:100EF0008DE290E0B6010E94152706C080E390E0E5
:100F0000B6010E94152711509116C0F39A94F10171
:100F1000E90DF11D808190E0B6010E94152799200E
:100F2000A9F706C080E290E0B6010E941527FA9466
:100F3000FF20C1F795CCF6012681378102C02FEF43
:100F40003FEFC9016396E2E10C94D92BCF92DF9277
:100F5000EF92FF921F93DF93CF930F92CDB7DEB73F
:100F6000182F8A3019F48DE00E94A607812F0E9465
:100F70005715C82EDD24C7FCD0941A3021F489837C
:100F80000E94991589819D2D0F90CF91DF911F911E
:100F9000FF90EF90DF90CF9008952AE037ED43EA7D
:100FA0005EE30E9479292091590130915A014091C4
:100FB0005B0150915C010E942B2820E03FEF4FE73E
:100FC00057E40E94792908952F923F924F925F92A1
:100FD0006F927F928F929F92AF92BF92CF92DF9249
:100FE000EF92FF920F931F93DF93CF93CDB7DEB7AE
:100FF00028970FB6F894DEBF0FBECDBF5B016C0122
:101000003801F886EF820E94C2277B018C01C6015D
:10101000B50120E030E0A9010E9427288823A9F427
:1010200080E090E0DC01F30180839183A283B383AD
:101030008E2D9F2DA02FB12FEF81F8858083918376
:10104000A283B38320E030E0FCC06E2D7F2D802F83
:10105000912F20914D0130914E0140914F015091BF
:1010600050010E947929362E272E89839A836E2D6E
:101070007F2D802F912FF301208131814281538177
:101080000E94C327962E872E582E492EEF81F88571
:1010900060817181828193812E2D3F2D402F512FB0
:1010A0000E94C2272091550130915601409157016D
:1010B000509158010E9479296B837C838D839E8394
:1010C0008E2D9F2DA02FB12FEF81F88580839183E6
:1010D000A283B383C601B5010E94CD07D101198156
:1010E0000A812B2F3A2F412F502F0E94C3277B01BB
:1010F0008C01A4019201652F742F832F922F2091D0
:1011000051013091520140915301509154010E947C
:1011100079299B01AC01C801B7010E94C327BB819B
:10112000AC811D810E812B2F3A2F412F502F0E9411
:10113000C3277B018C01D62ECF2CB82EA12E7F2D5C
:10114000912F20E03FEF4FE757E40E94452987FDAC
:101150000FC0A4019201652F742F832F922FF301EA
:1011600020813181428153810E94272887FD31C02F
:101170006E2D7F2D802F912F20E030E0A9010E945D
:10118000272887FF0FC0A4019201652F782D832F98
:10119000942DF30120813181428153810E944529A0
:1011A0001816BCF06E2D7F2D802F912F20E03FEF81
:1011B0004FE757E40E9427281816B4F06E2D7F2DB4
:1011C000802F912F20E030E0A9010E94452987FD62
:1011D0000BC0A4019201852F982DA32FB42DF301EC
:1011E00080839183A283B3836E2D7F2D802F912FD7
:1011F00020E03FEF4FE757E40E944529181684F09E
:101200006E2D7F2D802F912F20E030E0A9010E94CC
:10121000272887FF0CC0DD24CC24BB24AA2407C0C8
:10122000DD24CC24CA949FE7B92E87E4A82EA6011A
:101230009501652F7C2D832F9A2D0E944929262FF9
:10124000372FC90128960FB6F894DEBF0FBECDBF69
:10125000CF91DF911F910F91FF90EF90DF90CF9092
:10126000BF90AF909F908F907F906F905F904F90C6
:101270003F902F9008951F920F920FB60F92112456
:101280002F933F934F935F936F937F938F939F938E
:10129000AF93BF93EF93FF930E945F25809124014A
:1012A00090912501019690932501809324018091CE
:1012B0002401909125019370009751F4109225011B
:1012C0001092240181E080932601809327010AC0B7
:1012D00080912401909125019170009731F481E073
:1012E000809326018093280109C080912401909168
:1012F0002501882319F481E080932601FF91EF9165
:10130000BF91AF919F918F917F916F915F914F911D
:101310003F912F910F900FBE0F901F90189583E073
:1013200085BDEEE6F0E08081816080830895CF93F3
:10133000DF9384B7847F84BF88E10FB6F8948093ED
:101340006000109260000FBE91E080E80FB6F89444
:1013500080936100909361000FBE78940E943E15C7
:1013600000D000D0C0E0D1E0EDB7FEB7D283C1839A
:1013700086E591E0948383830E94F8260F900F9076
:101380000F900F900E9430150E94E1125A9A5298C5
:101390005B9A53985D9A55980E948F090E945C252C
:1013A00000D000D0EDB7FEB7D283C18380E491E0D6
:1013B000948383830E94F8260F900F900F900F90D4
:1013C0000E94C92380E090E0DF91CF9108952F9291
:1013D0003F924F925F927F928F929F92AF92BF9275
:1013E000CF92DF92EF92FF920F931F93CF93DF93F1
:1013F000CC24DD24EE24FF24C0E0D0E07EE0272EC4
:1014000071E0372E64E6762E51E0452E512CC43023
:10141000D105ECF48C2F60E00E948E1300D000D038
:10142000EDB7FEB732822182C6018F599E4F948359
:1014300083830E94E4268C01000F111F080F191FDF
:10144000000F111F0F900F900F900F9002C000E03F
:1014500010E08C2F602F0E948E132FE8822E22E046
:10146000922E800E911E25C0F40181914F01A72D6F
:10147000A81B20E080E060E040E0E0E0F0E0B0E0C9
:101480005F01AE0CBF1CAA16BB065CF052010E2E0B
:1014900002C0AA0CBB1C0A94E2F78A296A294A29CD
:1014A0002A293196E830F10559F70E94B4130F5FED
:1014B0001F4F003A1105C4F2219628E030E0E20EF9
:1014C000F31E8CE190E0C80ED91ECD30D10509F095
:1014D0009ECFDF91CF911F910F91FF90EF90DF9002
:1014E000CF90BF90AF909F908F907F905F904F90E4
:1014F0003F902F900895FC0180E090E0A0E8BFE3CA
:1015000080839183A283B38380E090E0A6E1B3E47B
:1015100084839583A683B78320E030E049E353E4D6
:10152000208731874287538786E490E095878487B8
:1015300020E030E849E553E426873787408B518B1C
:101540008DE290E0938B828B20E030E040E050E42D
:10155000248B358B468B578B0895FC0180E090E8F7
:10156000ABEBB5E480839183A283B38380E090E00A
:10157000A0EAB1E484839583A683B78320E030E0BA
:1015800040E050E8208731874287538720E030E0F1
:1015900041E653E4248735874687578720E030E0CB
:1015A00046E953E4208B318B428B538B0895AF92E5
:1015B000BF92CF92DF92EF92FF920F931F93CF9340
:1015C000DF93EC01688179818A819B8120E030E0A2
:1015D000A9010E9445291816A4F5EC80FD800E8112
:1015E0001F81C801B70120E030E0A9010E94452910
:1015F00018163CF5A884B984CA84DB84C601B501F9
:10160000A80197010E94452987FD1BC06E857F8533
:1016100088899989A60195010E94452987FD11C0F5
:1016200001E010E06C897D898E899F8920E030E09F
:10163000A9010E944529181614F000E010E0C80125
:1016400002C080E090E0DF91CF911F910F91FF9059
:10165000EF90DF90CF90BF90AF9008952F923F9280
:101660004F925F926F927F928F929F92AF92BF92B2
:10167000CF92DF92EF92FF920F931F93DF93CF935E
:10168000CDB7DEB7AC970FB6F894DEBF0FBECDBFB7
:101690006C010E94DF148DE491E00E942A25C601AE
:1016A0000E94D70A882319F560E00E948E1300D0AB
:1016B00000D08EE091E0ADB7BEB712969C938E93AA
:1016C00011978EE291E014969C938E9313970E944B
:1016D000F8260F900F900F900F9080E197E228EC82
:1016E00030E0F9013197F1F70197D9F7DDC600D065
:1016F00000D080E091E0EDB7FEB79283818384E172
:1017000091E0948383830E94F8266091590170913F
:101710005A0180915B0190915C0120915D013091B3
:101720005E0140915F01509160010E942B28962E2E
:10173000872E782E192F0F900F900F900F90AFEEED
:10174000B1E0EFE8F2E011921D9223E0EF32F207F0
:10175000D1F71092EE011092ED01D60152966D91E3
:101760007C9153971C968D919C911D97680F791FC2
:1017700080E090E00E94932869877A878B879C8716
:10178000F601648175818681978120E030E040EA2E
:1017900051E40E94C227F62E672E482E292ED6012C
:1017A0000C911196EC9011971296BC90129713968B
:1017B000AC909501602F7E2D832F922FD4012B2F7B
:1017C000382D472D512F0E94272887FD04C0092D51
:1017D000E82CB72CA12E6F2D762D842D922DF5019E
:1017E000202F3E2D4F2F5A2D0E942B289B01AC01FC
:1017F00069857A858B859C850E94C3277B018C0136
:10180000F601668577858089918920E030E040EA9D
:1018100051E40E94C227D60154962D913D914D91DD
:101820005C9157970E942B289B01AC01C801B7011E
:101830000E94C32720E030E040E251E40E94C32729
:1018400020E030E040E253E40E942B2869A77AA709
:101850008BA79CA780E090E0DC0189839A83AB830F
:10186000BC838D839E83AF83B8870E946514BC01BF
:1018700080E090E00E9493282AE037ED43EA5EE39F
:101880000E947929B62EA72E982E892E0E946514C3
:101890009E8B8D8BBB8EAC8E9D8E8E8E00E010E06D
:1018A000198A1A8619861F8E18A219A21AA27724DD
:1018B0001F8A188E198E1A8E02C095E0792E80919B
:1018C0002601882309F4F9C3109226018F8D98A16F
:1018D000A9A1BAA10196A11DB11D8F8F98A3A9A39B
:1018E000BAA30E9465149E8B8D8B772009F0CCC023
:1018F000BC0180E090E00E9493286DA37EA38FA39B
:1019000098A72AE037ED43EA5EE30E947929662E24
:101910007D878BA39CA3D6011496BC901497159633
:10192000AC90159716969C90169717968C90D501AB
:10193000F4012B2F3A2F4F2F5E2F0E94452987FD50
:101940000EC080E090E0DC0189839A83AB83BC8386
:101950008D839E83AF83B8871A86198699C05B8D65
:101960004C8D3D8D2E8D652F742F832F922F20E06F
:1019700030E040EA51E40E94272887FF07C010E0CA
:1019800000E080EAF82EB1E4EB2E04C01B8D0C8D34
:10199000FD8CEE8CE985FA853196FA87E987D601C8
:1019A0006D917D918D919C912DEB37E346E05BE34A
:1019B0000E94792920E030E040E853E40E94792930
:1019C0001B012C01E985FA85BF0180E090E00E94AF
:1019D00093289B01AC01C201B1010E9479299B01AE
:1019E000AC01D801F7016B2F702F8F2F9E2D0E9415
:1019F000C327162F072FF82EE92E89859A85877021
:101A00009070009741F06B8CFC8DFD872D8D2BA382
:101A10003E8D3CA302C01A861986A8019701652F46
:101A2000702F832F9E2DD501F4012B2F3A2D4F2F90
:101A3000582D0E94272887FF02C058014701A501A1
:101A40009401652F7A2D832F982D0E94E414BC01F8
:101A500080E090E00E9493282DA13EA14FA158A5BF
:101A60008E010F5F1F4FA5E0EA2EF12CEC0EFD1E3C
:101A70000E94E4076B8EAD85AC8FBBA1BD8FECA13E
:101A8000EE8F082F192F2CC2F72DF13009F0AAC0C4
:101A900029853A852F5F3F4F3A872987B90180E032
:101AA00090E00E9493282DEB37E346E05BE30E9431
:101AB000792920E030E040E853E40E947929F62EAD
:101AC000E72E1C01A701652F742F932D0E94492931
:101AD000D6011C960D911C911D970617170770F4DF
:101AE00080E090E0DC0189839A83AB83BC838D83A3
:101AF0009E83AF83B8871A86198678C0F601B084B2
:101B0000A18492848384D60114968D919D910D9029
:101B1000BC91A02D8D879E87AF87B88BA5019401BE
:101B2000652F742F832F922F2D853E854F855889E1
:101B30000E94C2272B013C01B80180E090E00E9486
:101B400093289B01AC01C301B2010E942B28D7014D
:101B50002B2F3A2F422D532D0E9479292D853E851A
:101B60004F8558890E94C327162F072FF82EE92E7C
:101B7000A8019701652F742F832F922FD501F401AF
:101B80002B2F3A2F4F2F5E2F0E94272887FF02C04E
:101B900058014701A5019401652F7A2D832F982DB7
:101BA0000E94E414BC0180E090E00E9493287B0135
:101BB0008C01ED89FE89BF0180E090E00E949328AE
:101BC0009B01AC01C801B7018E010F5F1F4FF5E00B
:101BD000EF2EF12CEC0EFD1E0E94E4078C01772401
:101BE00073947EC1F72DF23009F0AAC029853A8599
:101BF0002F5F3F4F3A872987B90180E090E00E942C
:101C000093282DEB37E346E05BE30E94792920E03F
:101C100030E040E853E40E947929F62EE72E1C01BB
:101C2000A701652F742F932D0E944929D601529642
:101C30000D911C9153970617170770F480E090E000
:101C4000DC0189839A83AB83BC838D839E83AF83BE
:101C5000B8871A86198678C0F601B684A78490885A
:101C60008188D60118968D919D910D90BC91A02DE3
:101C70008D879E87AF87B88BA5019401652F742F40
:101C8000832F922F2D853E854F8558890E94C2272C
:101C90002B013C01B80180E090E00E9493289B0159
:101CA000AC01C301B2010E942B28D7012B2F3A2F80
:101CB000422D532D0E9479292D853E854F855889C7
:101CC0000E94C327162F072FF82EE92EA80197018F
:101CD000652F742F832F922FD501F4012B2F3A2FCC
:101CE0004F2F5E2F0E94272887FF02C0580147010F
:101CF000A5019401652F7A2D832F982D0E94E4145D
:101D0000BC0180E090E00E9493287B018C01ED896A
:101D1000FE89BF0180E090E00E9493289B01AC0106
:101D2000C801B7018E010F5F1F4FE5E0EE2EF12CC9
:101D3000EC0EFD1E0E94E4078C01B2E07B2ED0C0A9
:101D4000F72DF33009F053C02D893E89B90180E0A9
:101D500090E00E9493282B013C01D6011E96ED9045
:101D6000FD900D911C9151972AE037ED43EA5EE317
:101D70000E947929A80197010E94452987FD0EC07C
:101D800080E090E0DC0189839A83AB83BC838D8300
:101D90009E83AF83B8871A8619862DC0C801B70104
:101DA00020E030E040EA50E40E94C327B62EA72E80
:101DB000982E892EA5019401652F742F832F922FC1
:101DC0000E94E414BC0180E090E00E949328A301EB
:101DD00092018E010F5F1F4FA5E0EA2EF12CEC0E51
:101DE000FD1E0E94E4078C01F3E07F2E79C0B72D21
:101DF000B43009F075C0E985FA853196FA87E9872C
:101E000060E070E088EC91E40E94E4142D893E8942
:101E10002817390708F45AC0D60154966D917D9160
:101E20008D919C9157972DEB37E346E05BE30E9441
:101E3000792920E030E040E853E40E9479297B01D1
:101E40008C01E985FA85BF0180E090E00E9493282B
:101E50009B01AC01C801B7010E9479299B01AC012B
:101E6000D6011E966D917D918D919C9151970E9406
:101E7000C227B62EA72E982E892EA5019401652F74
:101E8000742F832F922F0E94E414BC0180E090E015
:101E90000E9493287B018C01ED89FE89BF0180E0BF
:101EA00090E00E9493289B01AC01C801B7018E010C
:101EB0000F5F1F4FE5E0EE2EF12CEC0EFD1E0E9491
:101EC000E407082F192F84E0782E0AC0BB24AA2427
:101ED000B0EA9B2EA1E48A2E00E010E0F5E07F2E10
:101EE000C8010E9493255F89488D398D2A8D652F01
:101EF000742F832F922F2DEB37E346E05FE30E9490
:101F0000C3276F8B788F898F9A8FF72DF53009F45F
:101F1000D4C0B9A5AAA5FBA5ECA52B2F3A2F4F2F0E
:101F20005E2F0E94452987FDC8C05F89488D398D85
:101F30002A8D652F742F832F922FB9A5AAA5FBA5F3
:101F4000ECA52B2F3A2F4F2F5E2F0E94C2276F8BAD
:101F5000788F898F9A8F4090ED015090EE012FE994
:101F60004216510471F4AFE8B2E0EFEEF1E0818186
:101F7000819311968C9111978D9332E0EE38F3078F
:101F8000B1F78091590190915A01A0915B01B091F4
:101F90005C018D879E87AF87B88B60E070E088EC2E
:101FA00091E42D853E854F8558890E942B2820E09D
:101FB00030E048EC52E40E9479290E944929698B5B
:101FC0007A8B8B8B9C8BA5019401652F7A2D832FA7
:101FD000982D2D853E854F8558890E942B2820E01D
:101FE00030E048EC52E40E9479290E9449299B0183
:101FF000AC0189899A89AB89BC89281B390B4A0BAA
:102000005B0B24363105410551053CF457FF03C0F5
:1020100020E030E0A901F22E02C0E4E6FE2EF2013B
:10202000E151FE4FF082AD89BE89BD0180E090E0B4
:102030000E9493282AE037ED43EA5EE30E94792963
:102040002D853E854F8558890E942B2820E030E061
:1020500048EC52E40E9479290E9449299B01AC0175
:1020600089899A89AB89BC89281B390B4A0B5B0B80
:10207000243631054105510534F457FF05C020E0F1
:1020800030E0A90101C024E6F201E157FD4F2083B1
:102090009FE94916510460F4FF2069F00894411C3F
:1020A000511C5092EE014092ED01A1E0A98B05C0B8
:1020B000B1E0B98B02C0E1E0E98B80912701882370
:1020C00009F4E6C0109227012D893E89B90180E00C
:1020D00090E00E9493282AE037ED43EA5EE30E94F5
:1020E00079290E94492900D000D000D0EDB7FEB771
:1020F000319621E631E0ADB7BEB712963C932E93F0
:1021000011978AE091E093838283648375830E94B0
:102110004127ADB7BEB716960FB6F894BEBF0FBE37
:10212000ADBFA5019401652F7A2D832F982D0E94B4
:10213000492900D000D000D0EDB7FEB731962DE789
:1021400031E0ADB7BEB712963C932E93119780E065
:1021500091E093838283648375830E944127ADB7A6
:10216000BEB716960FB6F894BEBF0FBEADBFB72D63
:10217000B43038F4B23018F5772039F0B130C9F501
:1021800011C0E72DE430A9F527C000D000D0E9E95F
:10219000F1E0ADB7BEB71296FC93EE93119728EF1E
:1021A00030E033C000D000D0E9E9F1E0ADB7BEB710
:1021B0001296FC93EE93119720EF30E026C000D0EA
:1021C00000D0E9E9F1E0ADB7BEB71296FC93EE930B
:1021D000119729EE30E019C000D000D0E9E9F1E014
:1021E000ADB7BEB71296FC93EE93119722EE30E096
:1021F0000CC000D000D0E9E9F1E0ADB7BEB712964F
:10220000FC93EE9311972BED30E014963C932E93B4
:1022100013970E9441270F900F900F900F901092EC
:10222000B5013989332321F00E94E709198A30C0AA
:1022300044245524EE24FF24C201472C38018C018C
:102240008E2D60E00E948E1300D000D0EEE0F1E011
:10225000ADB7BEB71296FC93EE931197C8018F5994
:102260009E4F14969C938E9313970E94E426089495
:10227000E11CF11C045E1F4F0F900F900F900F9008
:10228000F4E0EF16F104E1F68301742C0E9485134B
:1022900080912801882309F4D8C01092280100D029
:1022A00000D000D0EDB7FEB7319620E031E0ADB7F9
:1022B000BEB712963C932E93119786ED90E09383D0
:1022C0008283748215820E94F826ADB7BEB7169637
:1022D0000FB6F894BEBF0FBEADBF6F8D78A189A1B8
:1022E0009AA10E9493282DEB37E346E05BE30E941E
:1022F000792920E030E040E853E40E94792941E068
:1023000050E00E94F91800D000D000D0EDB7FEB721
:10231000319620E031E0ADB7BEB712963C932E93D4
:102320001197A1EDB0E0B383A283958384830E94CB
:10233000F826EDB7FEB7319620E031E0ADB7BEB775
:1023400012963C932E9311978CEC90E093838283AA
:10235000AD89BE89B583A4830E94F826EDB7FEB788
:1023600036960FB6F894FEBF0FBEEDBFA5019401DF
:10237000652F7A2D832F982D0E94E41400D000D071
:1023800000D0EDB7FEB7319620E031E0ADB7BEB773
:1023900012963C932E931197A7ECB0E0B383A283DF
:1023A000958384830E94F826EDB7FEB736960FB664
:1023B000F894FEBF0FBEEDBFB80180E090E00E9430
:1023C000F21800D000D000D0EDB7FEB7319620E073
:1023D00031E0ADB7BEB712963C932E931197A2ECA5
:1023E000B0E0B383A283958384830E94F826EDB77F
:1023F000FEB736960FB6F894FEBF0FBEEDBF6981EB
:102400007A818B819C8141E050E00E94F91800D0D4
:1024100000D000D0EDB7FEB7319620E031E0ADB787
:10242000BEB712963C932E931197ADEBB0E0B383F9
:10243000A283958384830E94F826EDB7FEB7369673
:102440000FB6F894FEBF0FBEEDBF4B9938CAF72DFB
:10245000F530E1F082E060E00E948E1300D000D001
:10246000EEE0F1E0ADB7BEB71296FC93EE93119794
:1024700024EB30E014963C932E9313970E94F82699
:102480000F900F900F900F900E94851388EC90E0B2
:102490000197F1F74B9BFECF88EC90E00197F1F7A5
:1024A000372D353009F009CAAC960FB6F894DEBF67
:1024B0000FBECDBFCF91DF911F910F91FF90EF9095
:1024C000DF90CF90BF90AF909F908F907F906F9054
:1024D0005F904F903F902F9008950F931F93CF934D
:1024E000DF93EC016C857D858E859F8520E030E053
:1024F000A9010E94452918168CF401E010E06889B2
:1025000079898A899B8920E030E0A9010E944529C8
:10251000181614F000E010E0C80102C080E090E05E
:10252000DF91CF911F910F9108958BB183608BB98B
:102530008AB18C7F8AB91092B90080E28093B8008A
:1025400084E08093BC00089591E0662309F490E054
:10255000880F892B94EA9093BC009091BC0097FF60
:10256000FCCF8093BB0084E88093BC000895DF9388
:10257000CF9300D0CDB7DEB78091BC0087FFFCCFF2
:1025800084E98093BC001A82198289819A8101961C
:102590009A8389838091BC0084FF04C089819A81D9
:1025A000009799F70F900F90CF91DF910895909138
:1025B000BC0097FFFCCF8093BB0084E88093BC00F5
:1025C0000895EF92FF920F931F93CF93DF93569A44
:1025D000549A5E9A0E9495125C9880E29EE4FC01F7
:1025E0003197F1F75C9A0197F1F78FE360E00E9471
:1025F000A41280E00E94D71288E40E94D71284E6D9
:102600000E94D71280EA0E94D71288EC0E94D7124B
:1026100084E40E94D71280E00E94D7128BEA0E94C5
:10262000D71286E20E94D71281E80E94D71285E174
:102630000E94D71286E50E94D71284E60E94D71224
:10264000C0E4DFE1CE010197F1F78CE20E94D712DE
:1026500086E60E94D712CE010197F1F78EE20E9422
:10266000D7122197F1F78FE20E94D71283EF0E94D1
:10267000D71280E00E94D71286E90E94D71288E321
:102680000E94D71285E70E94D71287E90E94D712CD
:10269000C0E8D0E000E010E0FC2E80E8E82EEC0E70
:1026A0008F2D800F0E94D7128E2D0E94D7120F5FA0
:1026B0001F4F04301105A1F72496C03CD10551F7F6
:1026C00088E30E94D71284E70E94D7128FEA0E9403
:1026D000D7120E94B71280E49FE10197F1F71092A0
:1026E0002F0310923003DF91CF911F910F91FF9034
:1026F000EF9008958FE360E00E94A41280E40E94AE
:10270000D71281E0809330030895809130038823AD
:1027100011F00E94B7121092300308950F931F9387
:10272000082F162F80913003882311F00E94851303
:1027300010932F038FE360E00E94A41280E00E94B8
:10274000D712802F806B0E94D712812F82958F70B5
:1027500080610E94D712812F8F700E94D7120E9431
:10276000B7121F910F910895EF92FF920F931F934D
:10277000082F162FF42EE22E80913003882311F4B7
:102780000E947A13802F0E94D712812F0E94D712A5
:102790008F2D0E94D7128E2D0E94D71280912F0369
:1027A0008F5F80932F031F910F91FF90EF900895FB
:1027B000CF93DF9380912F03C82FD0E007C080E034
:1027C00060E040E020E00E94B4132196C03AD105B9
:1027D000B4F30E948513DF91CF9108950E948E1368
:1027E0000E94D8130895CF93DF93C0E0D0E08C2FE0
:1027F00060E00E94EE132196CD30D105C1F7DF9144
:10280000CF9108950F931F93CF93DF938A3019F4DC
:102810000E94D81350C08D3009F44DC0893069F53D
:1028200080E060E040E020E00E94B41380E060E0DF
:1028300040E020E00E94B41380E060E040E020E04F
:102840000E94B41380E060E040E020E00E94B413F6
:1028500080E060E040E020E00E94B41308E180E006
:1028600060E040E020E00E94B41380912F03602FCD
:102870000E947C2B992399F71EC08823E1F005E084
:10288000809F80011124E801C05AD0400B591040AC
:10289000FE01EC59FE4F2491822F622F422F0E949D
:1028A000B4132196C017D10799F780E060E040E0AB
:1028B00020E00E94B413DF91CF911F910F910895F2
:1028C0000E94021480E090E00895EF92FF920F932F
:1028D0001F93DF93CF930F92CDB7DEB7E0E0F0E028
:1028E0008FEF9FE720E030E0D901AA0FBB1FAE5C5D
:1028F000BC4F4D915C911197E417F50708F4FA016C
:102900004817590708F4CA012F5F3F4F2038310597
:1029100059F7E81BF90BF695E795E80FF91F409179
:10292000310350E020E060E070E0CB01DA01AA0F53
:10293000BB1FAE5CBC4FED90FC901197EE16FF06EE
:1029400038F000E010E06E0D7F1D801F911F2F5F9B
:10295000203228F441585F4F4F775070E7CF2983DA
:102960000E9493287B018C012981622F70E080E016
:1029700090E00E9493289B01AC01C801B7010E941E
:102980002B280E944929262F372F40912901509149
:102990002A01CA0105972817390720F44630510546
:1029A00008F09C0130932A0120932901C9010F905E
:1029B000CF91DF911F910F91FF90EF9008951092AA
:1029C0002A011092290108952AE037ED43EA5EE3D7
:1029D0000E942B280E944929CB0108951F920F9233
:1029E0000FB60F9211242F933F934F938F939F9382
:1029F000EF93FF93E0913103F0E02091780030E015
:102A000082E393E0EE0FFF1FE80FF91F318320836D
:102A1000E0913103F0E0EE0FFF1FE80FF91F808116
:102A2000918140917900342F20E0822B932B918368
:102A300080838091310390E001968F77907080932E
:102A400031038FEC80937A00FF91EF919F918F91EA
:102A50004F913F912F910F900FBE0F901F9018959F
:102A60001092310387E480937C008FEC80937A008E
:102A700008958091E80080FFFCCF089581E0809365
:102A8000D70080EA8093D80082E189BD09B400FEB6
:102A9000FDCF80E98093D8001092E00010922B01C6
:102AA00010922C018CE08093E2007894089590912C
:102AB0002B019923D1F19FB7F89424E02093E900EA
:102AC00020912E01222341F02091E80025FD02C033
:102AD0009FBF2BC010922E012091E400275E34E0AE
:102AE0004091E80045FD12C09FBF9091E40092170D
:102AF00021F481E080932E0118C090912B0199233D
:102B0000B1F09FB7F8943093E900EACF8093F100D9
:102B10008091E80085FD03C08AE38093E80085E0AA
:102B200080932D019FBF80E008958FEF08958FEF70
:102B300008958FB7F89490912D01992341F094E076
:102B40009093E9009AE39093E80010922D018FBFD3
:102B500008951F920F920FB60F9211248F939F9397
:102B60008091E1001092E10083FF11C01092E90012
:102B700091E09093EB001092EC0092E19093ED00C5
:102B800098E09093F00010922B0110922C0182FF9C
:102B900013C080912B01882379F080912D01882327
:102BA00059F0815080932D01882331F484E0809383
:102BB000E9008AE38093E8009F918F910F900FBE08
:102BC0000F901F9018951F920F920FB60F9211241D
:102BD000EF92FF920F931F932F933F934F935F9327
:102BE0006F937F938F939F93AF93BF93EF93FF93D5
:102BF000DF93CF930F92CDB7DEB71092E9008091AB
:102C0000E80083FF2EC12091F1003091F100809106
:102C1000F100E82EFF244091F100942F80E0E82A93
:102C2000F92A0091F10010E04091F100942F80E02A
:102C3000082B192B6091F100A091F10082EF809395
:102C4000E800363009F059C086E493E09C01255035
:102C50003040FC013797459154914E155F05F9F4CA
:102C6000F9014591549140175107C9F42E5F3F4F28
:102C7000F901859194912E5F3F4FF9012491462FE0
:102C800050E07A2F60E0462B572B4F3F510519F04B
:102C900010F04FEF50E0421750F4242F08C0079671
:102CA000295F3F4FF3E080379F0799F6DAC0AEEF18
:102CB0004091E80050E0BA016570707061157105CF
:102CC000B9F342FDD1C0322F213108F030E1AC011F
:102CD000632F07C0FA014F5F5F4FE491E093F1006B
:102CE00061506623B9F7830F911D231BA093E80061
:102CF0002223F1F63031E1F2B7C0353051F48EEFD6
:102D00008093E8000E9439158E2D80688093E3003F
:102D1000ABC0393051F5222309F0A3C0E0922B015A
:102D200010922C0110922D018EEF8093E80041E06B
:102D300089E693E04093E900FC010196E491E09379
:102D4000EB00EE2369F09C012F5F3F4FFC01849163
:102D50008093EC00C9010196F90124912093ED00C4
:102D60004F5F453039F78EE177C0383051F4203865
:102D700009F077C00E94391580912B018093F100F2
:102D800048C0313279F4213A09F06BC00E943915FC
:102D9000ECE1F1E081918093F10021E0E332F20770
:102DA000C9F737C03032A1F4213209F05AC08091FE
:102DB000E80082FFFCCFECE1F1E08091F10081932B
:102DC00031E0E332F307C9F78BEF8093E80021C0CD
:102DD000323241F4213209F044C0E0922C010E94C9
:102DE000391517C03323C9F429830E943915298165
:102DF000223851F40093E9009091EB0081E095FFB7
:102E000080E01092E90001C080E08093F100109210
:102E1000F1008EEF8093E80027C0313011F033309D
:102E200001F52230F1F4E114F104D9F40F77802F89
:102E300081508430B0F48EEF8093E8000093E90075
:102E4000333079F089E18093EB0081E090E002C0BB
:102E5000880F991F0A95E2F78093EA001092EA0022
:102E600003C081E28093EB000F90CF91DF91FF913F
:102E7000EF91BF91AF919F918F917F916F915F91F2
:102E80004F913F912F911F910F91FF90EF900F90D5
:102E90000FBE0F901F9018952F923F924F925F9206
:102EA0006F927F928F929F92AF92BF92CF92DF925A
:102EB000EF92FF920F931F93DF93CF9300D000D038
:102EC000CDB7DEB769837A838B839C8319012A018E
:102ED0006E2C9F2C802E712E6E2D7F2D802F912F8A
:102EE0002A2D3B2D4C2D5D2D0E94452987FF02C0C8
:102EF00075018601662D792D882D972D9501A601E6
:102F00000E94272887FF04C0A62CB92CC82CD72CD8
:102F10004D994AC088EC90E00197F1F78091320416
:102F2000883C08F48F5F8093320463E00E947C2B1E
:102F3000682F70E0882777FD8095982F0E9495284C
:102F40009B01AC01C201B1010E947929562F472F84
:102F5000382F292FC201B101DA01F9012B2F3A2FA5
:102F60004F2F5E2F0E94C3279B01AC01B981AA811C
:102F7000DB80CC806B2F7A2F8D2D9C2D0E94C32758
:102F8000D62EC72EB82EA92EA6019501652F742F17
:102F9000832F922F2E2D3F2D402F512F0E944529F8
:102FA00018160CF06BC073C04A9943C088EC90E0CF
:102FB0000197F1F780913204883C08F48F5F809389
:102FC000320463E00E947C2B682F70E0882777FD35
:102FD0008095982F0E9495289B01AC01C201B101F8
:102FE0000E947929562F472F382F292FC201B1016E
:102FF000DA01F9012B2F3A2F4F2F5E2F0E94C327A2
:103000009B01AC01B981AA811B810C816B2F7A2FA6
:10301000812F902F0E94C2277B018C017F2D912F41
:103020002A2D3B2D4C2D5D2D0E94272887FF2FC078
:1030300022C01092320459814A813B812C81652F34
:10304000742F832F922F2E2D3F2D402F512F0E9412
:1030500045291816E4F059814A813B812C81652F5E
:10306000742F832F922F2A2D3B2D4C2D5D2D0E94E6
:10307000272887FF08C07501860109C0ED2CFC2CAC
:103080000B2D1A2D04C0E980FA800B811C816E2D56
:103090007F2D802F912F0F900F900F900F90CF9139
:1030A000DF911F910F91FF90EF90DF90CF90BF9035
:1030B000AF909F908F907F906F905F904F903F90D8
:1030C0002F9008956F927F928F929F92AF92BF92AE
:1030D000CF92DF92EF92FF920F931F933B014C012F
:1030E000D801C701EA2CFB2C0C2D1D2DE816F90682
:1030F0000A071B0714F47C018D014D9925C088EC4B
:1031000090E00197F1F780913204843608F48F5FE4
:103110008093320463E00E947C2B682F70E080E093
:1031200090E06F5F7F4F8F4F9F4F0E945D2B660D2A
:10313000771D881D991D6E157F05800791070CF07E
:1031400042C07B018C013FC08A159B05AC05BD05C3
:1031500014F45C016D014A9926C088EC90E0019757
:10316000F1F780913204843608F48F5F8093320443
:1031700063E00E947C2B682F70E080E090E06F5F3E
:103180007F4F8F4F9F4F0E945D2B84017301E61A82
:10319000F70A080B190BEA14FB040C051D059CF437
:1031A0008601750110C010923204E614F704080578
:1031B00019054CF086017501A614B704C804D9049A
:1031C00014F484017301B701C8011F910F91FF909E
:1031D000EF90DF90CF90BF90AF909F908F907F90B7
:1031E0006F90089543E354E02AE030E00E94B02657
:1031F00008950F931F93242F46EE03E314E00E94DB
:103200009D259C01DC010D900020E9F7A81BA25030
:10321000EA2FFF27E7FDF0953196E80FF91F02C06E
:103220001082A1508291803211F4A7FFF9CFC90119
:103230001F910F9108952F923F924F925F926F923C
:103240007F928F929F92AF92BF92CF92DF92EF9236
:10325000FF920F931F93DF93CF9300D000D000D045
:10326000CDB7DEB70E94DF1400D000D0A0E0EA2E78
:10327000A1E0FA2EADB7BEB71296FC92EE9211976E
:103280008DEE96E014969C938E9313970E94F826E9
:103290000F900F900F900F900E94651480E090E0C7
:1032A0000E94932500E010E044245524FEE08F2E78
:1032B000F1E09F2E97017E2C632EC8010E9493257A
:1032C0000E9465141C0120E030E0C801A0E0B0E0DD
:1032D00089839A83AB83BC835101CC24DD2478019C
:1032E0003E832D838D8160E00E948E13AD81BE816F
:1032F000A230B105A9F1A330B1053CF4109779F0E3
:10330000A130B10509F07FC01FC0ED81FE81E3301F
:10331000F105D9F1E430F10509F075C057C000D0CE
:1033200000D0ADB7BEB712969C928E921197E9ED80
:10333000F6E01496FC93EE9313970E94F8260F90F4
:103340000F900F900F9061C000EA10E08CE36AE5E7
:103350004CE32AE50E94B41301501040B9F755C060
:1033600069817A818B819C810E94F21800D000D003
:1033700000D0EDB7FEB73196ADB7BEB712969C92AE
:103380008E92119728EC36E012C0C601B5010E945A
:10339000F21800D000D000D0EDB7FEB73196ADB72F
:1033A000BEB712969C928E92119725EB36E033832E
:1033B0002283958384830E94F8268DB79EB7069654
:1033C0000FB6F8949EBF0FBE8DBF1FC0C601B501DA
:1033D0000E9493282AE037ED43EA5EE30E947929B0
:1033E0000E9449290E94F21800D000D000D0EDB709
:1033F000FEB73196ADB7BEB712969C928E921197DA
:1034000028EA36E0D4CF0E94D813AD81BE81119650
:10341000BE83AD83AD30B10509F064CFB70180E064
:1034200090E020E034E040E050E0EE24FF2487010B
:10343000EFEFAE2EEFEFBE2EC12CD12C0E94621802
:103440004B9925C01092320488EC90E00197F1F777
:103450004B9BFECF88EC90E00197F1F726960FB6D4
:10346000F894DEBF0FBECDBFCF91DF911F910F91BA
:10347000FF90EF90DF90CF90BF90AF909F908F9094
:103480007F906F905F904F903F902F9008958B01A9
:1034900080912801882309F410CF10922801089404
:1034A000411C511CB20180E090E00E9493282DEB5A
:1034B00037E346E05BE30E94792920E030E040E01A
:1034C00054E40E94792941E050E00E94F91800D0AC
:1034D00000D000D0EDB7FEB73196ADB7BEB71196AC
:1034E0007C92119712966C9243EAE42E46E0F42EF9
:1034F000F382E282958384830E94F8262DB73EB73B
:103500002A5F3F4F0FB6F8943EBF0FBE2DBFB101EB
:1035100080E090E00E94F21800D000D000D0EDB71B
:10352000FEB73196ADB7BEB711967C921197129641
:103530006C923EE9E32E36E0F32EF382E28295832D
:1035400084830E94F8262DB73EB72A5F3F4F0FB6FF
:10355000F8943EBF0FBE2DBFB80180E090E00E94FE
:10356000F21800D000D000D0EDB7FEB73196ADB75D
:10357000BEB711967C92119712966C9229E9E22EB1
:1035800026E0F22EF382E282958384830E94F8265D
:103590002DB73EB72A5F3F4F0FB6F8943EBF0FBE20
:1035A0002DBF8BCE2F923F924F925F926F927F9260
:1035B0008F929F92AF92BF92CF92DF92EF92FF9243
:1035C0000F931F93DF93CF93CDB7DEB766970FB6F8
:1035D000F894DEBF0FBECDBF0E94DF148DE491E0F2
:1035E0000E942A2500D000D000E011E0ADB7BEB7A0
:1035F00012961C930E93119787E796E014969C936E
:103600008E9313970E94F82680E090E0DC01898376
:103610009A83AB83BC838D839E83AF83B8870F90DF
:103620000F900F900F90BC01CD010E94E4140E94F6
:1036300065149A8789871E861D86CC24DD241C8606
:103640001B86AEE08A2EA1E09A2E702E612E80910C
:103650002701882351F480912601882309F0E0C0D6
:1036600080912801882309F0DBC01092270100E037
:1036700010E0C601A0E0B0E08F87988BA98BBA8BD1
:10368000A985BA851D0144245524AD85BE85CD018B
:10369000A0E0B0E08B8B9C8BAD8BBE8B802F60E06D
:1036A0000E948E1302301105C1F10330110544F45C
:1036B0000115110589F00130110509F096C01DC0F2
:1036C0000430110509F469C004301105DCF105303E
:1036D000110509F08AC074C000D000D0EDB7FEB764
:1036E0009282818222E636E0348323830E94F82688
:1036F0000F900F900F900F907AC0F0EAEF2EF12C00
:103700008CE36AE54CE32AE50E94B4130894E108CF
:10371000F108E114F104A1F76AC06F8578898989FD
:103720009A890E94F21800D000D000D0EDB7FEB701
:103730003196ADB7BEB712969C928E92119723E543
:1037400036E01CC0C201B1010E9493282AE037ED87
:1037500043EA5EE30E9479290E9449290E94F218F7
:1037600000D000D000D0EDB7FEB73196ADB7BEB7F0
:1037700012969C928E92119723E436E03383228333
:10378000958384830E94F8268DB79EB706960FB660
:10379000F8949EBF0FBE8DBF2AC0C201B1010E9426
:1037A000F21800D000D000D0EDB7FEB73196ADB71B
:1037B000BEB712969C928E92119720E336E0DECF30
:1037C0006B897C898D899E890E94F21800D000D077
:1037D00000D0EDB7FEB73196ADB7BEB712969C924A
:1037E0008E9211972FE136E0C9CF0E94D8130F5F58
:1037F0001F4F0D30110509F051CFB60180E090E068
:103800002AE030E040E050E0EE24FF248701EEE5BE
:10381000AE2EE1E0BE2EC12CD12C0E9462186B01AD
:103820004D9B02C04A990BC080E090E0DC01898387
:103830009A83AB83BC838D839E83AF83B8874B9978
:1038400025C01092320488EC90E00197F1F74B9B71
:10385000FECF88EC90E00197F1F766960FB6F894EA
:10386000DEBF0FBECDBFCF91DF911F910F91FF90B3
:10387000EF90DF90CF90BF90AF909F908F907F9010
:103880006F905F904F903F902F9008958091260108
:10389000882399F110922601B60180E090E00E9401
:1038A00093287B018C010E94E4140E9465149A877E
:1038B0008987C801B7010E94E414BC0180E090E050
:1038C0000E9493287B018C01A985BA85BD0180E007
:1038D00090E00E9493289B01AC01C801B7018E01C2
:1038E0000F5F1F4FB5E0EB2EF12CEC0EFD1E0E947A
:1038F000E407282F392F3E872D87809128018823C0
:1039000009F4A5CE10922801EB85FC853196FC8741
:10391000EB87BF0180E090E00E9493282DEB37E316
:1039200046E05BE30E94792920E030E040E054E487
:103930000E94792941E050E00E94F91800D000D09F
:1039400000D0EDB7FEB73196ADB7BEB711967C92F9
:10395000119712966C922AE136E033832283958385
:1039600084830E94F8268DB79EB706960FB6F8940A
:103970009EBF0FBE8DBFA985BA85BD0180E090E0D6
:103980000E94F21800D000D000D0EDB7FEB73196FB
:10399000ADB7BEB711967C92119712966C9225E145
:1039A00036E033832283958384830E94F8268DB783
:1039B0009EB706960FB6F8949EBF0FBE8DBFB60198
:1039C00080E090E00E94F21800D000D000D0EDB767
:1039D000FEB73196ADB7BEB711967C92119712968D
:1039E0006C9220E136E033832283958384830E94A6
:1039F000F8268DB79EB706960FB6F8949EBF0FBEF9
:103A00008DBFAD85BE85BD0180E090E00E94F218BB
:103A100000D000D000D0EDB7FEB73196ADB7BEB73D
:103A200011967C92119712966C922BE036E03383BC
:103A30002283958384830E94F8268DB79EB70696CD
:103A40000FB6F8949EBF0FBE8DBF01CE2F923F924E
:103A50005F926F927F928F929F92AF92BF92CF921E
:103A6000DF92EF92FF920F931F93DF93CF9300D0DB
:103A7000CDB7DEB74C0155241EE0612E11E0712E4A
:103A8000B8EC2B2E312C80E090E00E94932520E0B2
:103A900030E0852D90E09A83898379018E2D60E056
:103AA0000E948E13C7010297A981BA818A179B07CA
:103AB00011F48EE306C0B1E0EB16F10409F47FC205
:103AC00080E20E940214E4E0EE16F10409F48DC0D5
:103AD000F5E0EF16F104BCF421E0E216F10409F47C
:103AE0006EC232E0E316F10424F4E114F10451F162
:103AF00017C182E0E816F104D1F193E0E916F10470
:103B000009F00EC14CC0A7E0EA16F10409F4B3C0F5
:103B1000B8E0EB16F1045CF4E5E0EE16F10409F40C
:103B20007CC0F6E0EF16F10409F0FAC08CC028E082
:103B3000E216F10409F4C1C039E0E316F10409F01A
:103B4000EFC0D9C000D000D0ADB7BEB712967C92FE
:103B50006E921197EDEFF5E0D8C08CE36AE54CE387
:103B60002AE50E94B41301501040B9F7DBC0D4011C
:103B70006D917D918D919C9141E050E00E94F918EA
:103B800000D000D000D0EDB7FEB73196ADB7BEB7CC
:103B900012967C926E92119728EE35E0A7C0D40160
:103BA00014966D917D918D919C9117970E94492952
:103BB00000D000D000D0EDB7FEB73196ADB7BEB79C
:103BC00012967C926E92119724ED35E03383228316
:103BD000648375830E94F8268DB79EB706960FB64C
:103BE000F8949EBF0FBE8DBF9DC0D40118966D91F5
:103BF0007D918D919C911B970E94492900D000D006
:103C000000D0EDB7FEB73196ADB7BEB712967C9235
:103C10006E92119720EC35E0D9CF00D000D000D0C3
:103C2000EDB7FEB73196ADB7BEB712967C926E92E5
:103C300011972DEA35E033832283D4011C968D91B0
:103C40009C911D972DC0D4011E966D917D918D91F3
:103C50009C9151970E94492900D000D000D0EDB727
:103C6000FEB73196ADB7BEB712967C926E921197A1
:103C70002BE935E0ABCF00D000D000D0EDB7FEB7D8
:103C80003196ADB7BEB712967C926E92119727E827
:103C900035E033832283D40152968D919C915397C2
:103CA000958384830E94F826EDB7FEB736960FB64B
:103CB000F894FEBF0FBEEDBF35C0D40154966D9190
:103CC0007D918D919C91579741E050E00E94F918A9
:103CD00000D000D000D0EDB7FEB73196ADB7BEB77B
:103CE00012967C926E92119723E735E033832283FC
:103CF000958384836FCF00D000D0ADB7BEB7129646
:103D00007C926E921197EEE5F5E01496FC93EE939B
:103D100013970E94F8260F900F900F900F9002C0FB
:103D20000E94D8130894E11CF11CFDE0EF16F10489
:103D300009F0B4CE252D233009F47EC0243030F4B0
:103D4000213061F1223008F050C00BC0352D3530E4
:103D500009F4B4C0353008F48AC0363009F0E7C041
:103D6000C7C0D4016D917D918D919C912DEC3CEC5F
:103D70004CEC5DE379018A010F2EF0E0AF2EF0E00C
:103D8000BF2EF0EACF2EF0E4DF2EF02D0E944C176C
:103D9000F4016083718382839383FEC0D4011496FF
:103DA0006D917D918D919C91179720E030E040E8D6
:103DB0005FE30F2EF0E0EF2EF0E0FF2EF8E40F2F80
:103DC000F2E41F2FF02D0F2EF0E0AF2EF0E0BF2E0B
:103DD000F6E9CF2EF3E4DF2EF02D0E944C17F4010C
:103DE0006483758386839783D7C0D40118966D91B9
:103DF0007D918D919C911B9720E030E040E85FE33E
:103E00000F2EF0E0EF2EF0E0FF2EF8E40F2FF2E49B
:103E10001F2FF02D0F2EF0E0AF2EF0E0BF2EF6E9B1
:103E2000CF2EF3E4DF2EF02D0E944C17F4016087B3
:103E3000718782879387B0C0D4011C966D917C9165
:103E40001D9780E090E020E030E0A901ACE3EA2E8D
:103E5000F12C012D112DFCE2AF2EF1E0BF2EC12C73
:103E6000D12C0E946218F4017587648795C0D40133
:103E70001E966D917D918D919C91519720E030E03F
:103E800040E85FE30F2EF0E0EF2EF0E0FF2EF6E1CA
:103E90000F2FF3E41F2FF02D0F2EF0E0AF2EF0E0E8
:103EA000BF2EFFEACF2EF3E4DF2EF02D0E944C1739
:103EB000F40166877787808B918B6EC0D401529610
:103EC0006D917C91539780E090E021E030E040E0FC
:103ED00050E0EE24FF248701ECE2AE2EE1E0BE2E9E
:103EE000C12CD12C0E946218F401738B628B54C0D8
:103EF000D40154966D917D918D919C9157972DECA5
:103F00003CEC4CEC5DE379018A010F2EF0E0AF2E22
:103F1000F0E0BF2EF0EACF2EF0E4DF2EF02D0E946D
:103F20004C17F401648B758B868B978B35C0109280
:103F30003204F52DF73081F54D992EC0C10101975E
:103F4000F1F74D9BFECFC1010197F1F7C4010E942B
:103F5000D70A8823B9F50E94F31380E060E00E943D
:103F60008E1300D000D0ADB7BEB712967C926E9281
:103F70001197ECE4F5E01496FC93EE9313970E94EE
:103F8000F8260F900F900F900F9080E197E2F101CB
:103F90003197F1F70197D9F74B9975CD109232040B
:103FA000C1010197F1F74B9BFECFC1010197F1F7DA
:103FB00089819A810196B7E05B2E582264CD00EA90
:103FC00010E0CBCD0F900F90CF91DF911F910F910B
:103FD000FF90EF90DF90CF90BF90AF909F908F9029
:103FE0007F906F905F903F902F9008952F923F9217
:103FF0004F925F926F927F928F929F92BF92CF92D9
:10400000DF92EF92FF920F931F93CF93DF938FE294
:1040100091E00E94D524BB245EE0E52E51E0F52E10
:1040200043E3642E45E0742E39E1432E35E0532EF0
:1040300020E2222E25E0322E08EC10E080E090E015
:104040000E949325C0E0D0E08B2C99248C2F60E057
:104050000E948E13CE0102978815990511F48EE304
:1040600005C0C130D10509F4E2C080E20E9402140B
:10407000C230D10559F1C330D1053CF4209781F00D
:10408000C130D10509F04EC0D2C0C430D105B1F164
:10409000C430D10554F1C530D10509F043C037C053
:1040A00000D000D0EDB7FEB7F282E18221E435E026
:1040B00036C08CE36AE54CE32AE50E94B413089409
:1040C000C108D108C114D104A1F72EC000D000D07E
:1040D000EDB7FEB7F282E182748263820E94F82615
:1040E0000F900F900F900F901FC000D000D0EDB731
:1040F000FEB7F282E18234822382F0CF00D000D07A
:10410000EDB7FEB7F282E18254824382E7CF00D05E
:1041100000D0EDB7FEB7F282E18226E035E03483CD
:104120002383DCCF0E94D8132196CD30D10509F02E
:104130008DCFBB2099F44D996AC0C8010197F1F762
:104140004D9BFECFC8010197F1F78FE291E00E94ED
:10415000261D8FE291E00E94B22459C03B2D3130E0
:1041600081F54D9954C0C8010197F1F74D9BFECFE1
:10417000C8010197F1F78FE291E00E947B0A8FE27C
:1041800091E00E94B2240E94F31380E060E00E945C
:104190008E1300D000D0EDB7FEB7F282E1822BEE95
:1041A00034E0348323830E94F8260F900F900F9001
:1041B0000F9080E197E2F8013197F1F70197D9F775
:1041C00026C03B2D323099F44D9921C088EC90E007
:1041D0000197F1F74D9BFECF88EC90E00197F1F746
:1041E0000E94F3138FE291E00E942E0B24C08B2DCE
:1041F000833069F44D990BC088EC90E00197F1F79A
:104200004D9BFECF88EC90E00197F1F714C04B99DD
:1042100015CFC8010197F1F74B9BFECFC80101975D
:10422000F1F7C401019693E0B92EB82207CF80EAD6
:10423000C82ED12C3ECFDF91CF911F910F91FF90CF
:10424000EF90DF90CF90BF909F908F907F906F9076
:104250005F904F903F902F9008952F923F924F92F2
:104260005F926F927F929F92AF92BF92CF92DF92B6
:10427000EF92FF920F931F93CF93DF938DE491E022
:104280000E942A2599247EE0672E71E0772E68EC43
:10429000462E512C80E090E00E949325C0E0D0E0B3
:1042A000292C33248C2F60E00E948E13CE010297BC
:1042B0008215930511F48EE305C0C130D10509F4D0
:1042C00065C280E20E940214C430D10509F47FC0A7
:1042D000C530D10594F4C130D10509F457C2C230BC
:1042E000D1051CF42097D1F0ECC0C230D10559F1B2
:1042F000C330D10509F0E5C041C0C630D10509F48D
:104300009AC0C630D1050CF47DC0C730D10509F480
:10431000AFC0C830D10509F0D4C0BFC000D000D0B4
:10432000ADB7BEB712967C926E921197ECEDF4E0A9
:10433000A9C08CE36AE54CE32AE50E94B41301505E
:104340001040B9F7C0C060914D0170914E0180914D
:104350004F019091500142E050E00E94F91800D0C6
:1043600000D000D0EDB7FEB73196ADB7BEB712960C
:104370007C926E92119721ED34E01AC06091510148
:1043800070915201809153019091540142E050E0AC
:104390000E94F91800D000D000D0EDB7FEB73196DA
:1043A000ADB7BEB712967C926E92119726EC34E0B0
:1043B00033832283958384830E94F8268DB79EB72A
:1043C00006960FB6F8949EBF0FBE8DBF7CC060915D
:1043D000550170915601809157019091580142E02A
:1043E00050E00E94F91800D000D000D0EDB7FEB721
:1043F0003196ADB7BEB712967C926E9211972BEBA9
:1044000034E0D6CF6091590170915A0180915B01DF
:1044100090915C010E94492900D000D000D0EDB7F6
:10442000FEB73196ADB7BEB712967C926E921197D9
:104430002AEA34E018C060915D0170915E018091BC
:104440005F01909160010E94492900D000D000D006
:10445000EDB7FEB73196ADB7BEB712967C926E92AD
:10446000119727E934E03383228364837583A4CFD3
:1044700000D000D0ADB7BEB712967C926E92119765
:10448000E4E8F4E01496FC93EE9313970E94F82668
:104490000F900F900F900F9016C000D000D0ADB7C6
:1044A000BEB712967C926E921197E1E7F4E01496F3
:1044B000FC93EE9313970E94F8260F900F900F90A5
:1044C0000F900E94D8132196CD30D10509F0EACE85
:1044D000F92DF23009F466C0F33030F4992061F020
:1044E000F13009F0E0C033C0292D233009F485C034
:1044F000243009F0D8C0ACC060914D0170914E01DC
:1045000080914F01909150012DEC3CEC4CEC5DE31F
:104510000F2EF0E0EF2EF0E0FF2EF0E00F2FF0E096
:104520001F2FF02D0F2EF0E0AF2EF0E4BF2EFCE198
:10453000CF2EF6E4DF2EF02D0E944C1760934D0134
:1045400070934E0180934F01909350010BC1609185
:1045500051017091520180915301909154012AE0D0
:1045600037ED43E25CE30F2EF0E0EF2EF0E0FF2E9C
:10457000F0E00F2FF0E01F2FF02D0F2EF0E0AF2E08
:10458000F0E4BF2EFCE1CF2EF6E4DF2EF02D0E94EA
:104590004C17609351017093520180935301909393
:1045A0005401E0C06091550170915601809157010E
:1045B000909158012AE037ED43E25CE30F2EF0E0E2
:1045C000EF2EF0E4FF2EFCE10F2FF6EC1F2FF02D65
:1045D0000F2EF0E0AF2EF0E4BF2EFCE1CF2EF6E47C
:1045E000DF2EF02D0E944C176093550170935601F9
:1045F0008093570190935801B5C060915901709113
:104600005A0180915B0190915C0120E030E040E82C
:104610005FE30F2EF0E0EF2EF0E0FF2EF8E40F2F17
:10462000F3E41F2FF02D0F2EF0E0AF2EF0E0BF2EA1
:10463000FFEACF2EF3E4DF2EF02D0E944C1760939B
:10464000590170935A0180935B0190935C018AC079
:1046500060915D0170915E0180915F0190916001B8
:1046600020E030E040E85FE30F2EF0E0EF2EF0E0D6
:10467000FF2EF0E00F2FF0E01F2FF02D0F2EF0E0B7
:10468000AF2EF0E0BF2EF6E9CF2EF4E4DF2EF02DB2
:104690000E944C1760935D0170935E0180935F01EF
:1046A000909360015FC010923204392D353079F457
:1046B0004D9958C0C2010197F1F74D9BFECFC20141
:1046C0000197F1F78DE491E00E94AD0A4BC0892D6E
:1046D000863009F047C04D9945C0C2010197F1F7F6
:1046E0004D9BFECFC2010197F1F78DE491E00E944E
:1046F0006D128823B1F08DE491E00E940725DF91CF
:10470000CF911F910F91FF90EF90DF90CF90BF90CE
:10471000AF909F907F906F905F904F903F902F90C1
:1047200008950E94F31380E060E00E948E1300D091
:1047300000D0ADB7BEB712967C926E921197EEE59F
:10474000F4E01496FC93EE9313970E94F8260F90D2
:104750000F900F900F9080E197E2F2013197F1F7FF
:104760000197D9F74B9996CD10923204C201019767
:10477000F1F74B9BFECFC2010197F1F7C101019602
:1047800067E070E00E94882B982E84CD00EA10E04C
:10479000D0CD2F923F924F925F926F927F928F92E5
:1047A0009F92BF92CF92DF92EF92FF920F931F934F
:1047B000DF93CF9300D00F92CDB7DEB721E0BB24BB
:1047C0000EE011E088E4682E84E0782EBFE14B2EE5
:1047D000B4E05B2EA3E32A2EA4E03A2EF8ECEF2EF1
:1047E000F12C01C020E080E090E029830E94932515
:1047F0002981222309F482C01B821A828B2C9924DE
:104800008A8160E00E948E138A819B8102978815BD
:10481000990511F48EE307C02A813B8121303105CF
:1048200009F49CC080E20E9402148A819B8182303C
:10483000910569F1833091053CF4009791F0813046
:10484000910509F050C08AC0EA81FB81E430F1058E
:10485000B1F1E430F10554F1E530F10509F043C060
:1048600037C000D000D0EDB7FEB71283018323E537
:1048700034E036C08CE36AE54CE32AE50E94B413C9
:104880000894C108D108C114D104A1F72EC000D0EA
:1048900000D0EDB7FEB712830183748263820E9459
:1048A000F8260F900F900F900F901FC000D000D0EF
:1048B000EDB7FEB71283018334822382F0CF00D09C
:1048C00000D0EDB7FEB71283018354824382E7CF55
:1048D00000D000D0EDB7FEB71283018320E134E0B1
:1048E00034832383DCCF0E94D8138A819B81019675
:1048F0009B838A838D30910509F082CF4D991FC02B
:10490000C7010197F1F74D9BFECFC7010197F1F762
:10491000BB2019F40E94F61F1FC09B2D913019F483
:104920000E94D21A19C0EB2DE23019F40E941B1913
:1049300013C0FB2DF33081F40E942D210DC04B9943
:1049400051CFC7010197F1F74B9BFECFC7010197EC
:10495000F1F7B39423E0B22221E045CFE0EACE2E76
:10496000D12C88CFEF92FF920F931F93CF93DF93B9
:10497000082F192FC6E1D0E0FF24F801E1908F0144
:10498000CE016E2D0E94E429FE242196CE32D1055F
:10499000A1F78EE290E06F2D0E94E429DF91CF9184
:1049A0001F910F91FF90EF900895DF92EF92FF9289
:1049B0000F931F93CF93DF937C01982F092F1F2D07
:1049C000C6E1D0E0DD24CE010E94DC29F80181930C
:1049D0008F01D8262196CE32D105A9F78EE290E03C
:1049E0000E94DC29D81629F4C7010E94D70A88231F
:1049F00031F4C7010E947B0AC7010E94B224DF91F3
:104A0000CF911F910F91FF90EF90DF900895EF925B
:104A1000FF920F931F93CF93DF93082F192FC0E0BE
:104A2000D0E0FF24F801E1908F01CE016E2D0E94AD
:104A3000E429FE242196C431D105A1F784E190E058
:104A40006F2D0E94E429DF91CF911F910F91FF906C
:104A5000EF900895DF92EF92FF920F931F93CF9301
:104A6000DF937C01982F092F1F2DC0E0D0E0DD24BB
:104A7000CE010E94DC29F80181938F01D82621966E
:104A8000C431D105A9F784E190E00E94DC29D81651
:104A900029F4C7010E946D12882331F4C7010E94D6
:104AA000AD0AC7010E940725DF91CF911F910F9199
:104AB000FF90EF90DF9008953F9A47980895809176
:104AC0004B0190914C0121E08F3F9207B1F410927D
:104AD0004C0110924B018091490190914A019093B1
:104AE00048018093470180914701909148010097C8
:104AF00011F0479A08954798089520914701309101
:104B0000480180914B0190914C018217930708F066
:104B1000479880914B0190914C01019690934C01E4
:104B200080934B010895880F892F881F990B9195C9
:104B300090934A01809349010895EF92FF920F9359
:104B40001F93322FF02E47FF02C0A4E101C0A4E062
:104B5000E42FFF27E7FDF095F7FF03C0F095E195FF
:104B6000FF4F4F2D512F2E2F032FEA2E0E94F62993
:104B70008F2D912F1F910F91FF90EF900895F89432
:104B80000C94082C283008F027E03327DA01990F1D
:104B9000311D87FD916000966105710539F4326021
:104BA0002E5F3D9330E32A95E1F708959F3F30F063
:104BB00080387105610509F03C5F3C5F3D939130A1
:104BC00008F08068911DDF93CF931F930F93FF929E
:104BD000EF92192F987F9695E92F96959695E90F64
:104BE000FF27EF59F84F99273327EE24FF24A70119
:104BF000E70105900894079428F4360FE71EF81E85
:104C0000491F511D660F771F881F991F0694A1F732
:104C10000590079428F4E70EF81E491F561FC11D82
:104C2000770F881F991F661F0694A1F705900794B8
:104C300028F4F80E491F561FC71FD11D880F991F52
:104C4000661F771F0694A1F70590079420F4490F7B
:104C5000561FC71FD81F990F661F771F881F0694FE
:104C6000A9F784911095177041F0D695C79557957F
:104C70004795F794E7941A95C1F7E7E0F7E0689451
:104C80001590159135916591959105907FE27395F9
:104C9000E118F10A430B560BC90BD009C0F7E10C20
:104CA000F11E431F561FC91FD01D7EF4703311F42F
:104CB0008A95E6CFE894015030F0080F0AF40027F7
:104CC000021708F4202F2395022F7A3328F079E376
:104CD0007D932A95E9F710C07D932A9589F606946D
:104CE00097956795379517951794E118F10A430B37
:104CF000560BC90BD00998F023957E9173957A33A2
:104D000008F070E37C932013B8F77E9170617D9377
:104D100030F0839571E37D9370E32A95E1F71124D8
:104D2000EF90FF900F911F91CF91DF91992787FD11
:104D300090950895FC010590615070400110D8F7DE
:104D4000809590958E0F9F1F0895FC0161507040D3
:104D500001900110D8F7809590958E0F9F1F0895B0
:104D6000FA01CF93FF93EF93223044F1253234F5CB
:104D7000C22FE894CA3049F497FB3EF49095809591
:104D8000709561957F4F8F4F9F4F2C2F332744276E
:104D90005527FF93EF930E949B2BEF91FF91605D4E
:104DA0006A330CF0695D6193B901CA0160507040CB
:104DB0008040904051F716F4CDE2C19310828F915C
:104DC0009F91CF910C944D2BA0E0B0E0EAEEF6E27B
:104DD0000C94CD2B9E01275F3F4F8D819E816F816B
:104DE0007885A9010E9420042096E2E00C94E92B2A
:104DF000A0E0B0E0EEEFF6E20C94CB2B0F8118852B
:104E00009E01255F3F4FF801838188608383C8013D
:104E100069857A85A9010E942004F8012381277FF2
:104E200023832096E4E00C94E72B0F931F93CF93FA
:104E3000DF938C01EB018B8181FF1BC082FF0DC0D2
:104E40002E813F818C819D812817390764F4E88188
:104E5000F9810193F983E88306C0E885F985802FFD
:104E60000995009731F48E819F8101969F838E83EF
:104E700002C00FEF1FEFC801DF91CF911F910F917B
:104E80000895AEE0B0E0E7E4F7E20C94CB2B0D8997
:104E90001E898EE08C831A8309838FEF9FE79E83A0
:104EA0008D839E01275E3F4FCE0101966F89788DDD
:104EB000A9010E942004EF81F885E00FF11F108204
:104EC0002E96E4E00C94E72BFA01AA27283051F142
:104ED000203181F1E8946F936E7F6E5F7F4F8F4F2B
:104EE0009F4FAF4FB1E03ED0B4E03CD0670F781F8A
:104EF000891F9A1FA11D680F791F8A1F911DA11D6F
:104F00006A0F711D811D911DA11D20D009F46894A7
:104F10003F912AE0269F11243019305D3193DEF64F
:104F2000CF010895462F4770405D4193B3E00FD005
:104F3000C9F7F6CF462F4F70405D4A3318F0495DF0
:104F400031FD4052419302D0A9F7EACFB4E0A695D3
:104F50009795879577956795BA95C9F700976105F5
:104F6000710508959B01AC010A2E0694579547954B
:104F700037952795BA95C9F7620F731F841F951F40
:104F8000A01D08955058BB27AA270ED044C135D183
:104F900030F03AD120F031F49F3F11F41EF42AC1D1
:104FA0000EF4E095E7FB20C1E92F46D180F3BA1754
:104FB000620773078407950718F071F49EF55EC1C8
:104FC0000EF4E0950B2EBA2FA02D0B01B901900124
:104FD0000C01CA01A0011124FF27591B99F0593F68
:104FE00050F4503E68F11A16F040A22F232F342FB0
:104FF0004427585FF3CF469537952795A795F040FE
:105000005395C9F77EF41F16BA0B620B730B840B12
:10501000BAF09150A1F0FF0FBB1F661F771F881FCA
:10502000C2F70EC0BA0F621F731F841F48F4879522
:1050300077956795B795F7959E3F08F0B3CF939511
:10504000880F08F09927EE0F979587950895A8D0B7
:1050500008F481E008950CD0DEC0D6D040F0CDD069
:1050600030F021F45F3F19F0BFC0511108C1C2C038
:10507000E3D098F39923C9F35523B1F3951B550B4E
:10508000BB27AA2762177307840738F09F5F5F4F1B
:10509000220F331F441FAA1FA9F333D00E2E3AF05C
:1050A000E0E830D091505040E695001CCAF729D076
:1050B000FE2F27D0660F771F881FBB1F26173707C5
:1050C0004807AB07B0E809F0BB0B802DBF01FF27F5
:1050D00093585F4F2AF09E3F510568F085C0CFC0BE
:1050E0005F3FECF3983EDCF3869577956795B7952F
:1050F000F7959F5FC9F7880F911D9695879597F94A
:105100000895E1E0660F771F881FBB1F62177307C2
:105110008407BA0720F0621B730B840BBA0BEE1FD7
:1051200088F7E0950895E89409C097FB3EF49095C0
:105130008095709561957F4F8F4F9F4F9923A9F070
:10514000F92F96E9BB279395F695879577956795FF
:10515000B795F111F8CFFAF4BB0F11F460FF1BC043
:105160006F5F7F4F8F4F9F4F16C0882311F096E9D6
:1051700011C0772321F09EE8872F762F05C0662384
:1051800071F096E8862F70E060E02AF09A95660F3D
:10519000771F881FDAF7880F9695879597F90895F6
:1051A000990F0008550FAA0BE0E8FEEF1616170638
:1051B000E807F907C0F012161306E407F50798F0A0
:1051C000621B730B840B950B39F40A2661F0232BB9
:1051D000242B252B21F408950A2609F4A140A69535
:1051E0008FEF811D811D089597F99F6780E870E01A
:1051F00060E008959FEF80EC089500240A9416164D
:10520000170618060906089500240A9412161306B4
:10521000140605060895092E0394000C11F4882342
:1052200052F0BB0F40F4BF2B11F460FF04C06F5F5E
:105230007F4F8F4F9F4F089557FD9058440F551F34
:1052400059F05F3F71F04795880F97FB991F61F008
:105250009F3F79F087950895121613061406551F7F
:10526000F2CF4695F1DF08C0161617061806991FEB
:10527000F1CF86957105610508940895E894BB27E0
:1052800066277727CB0197F908958ADF08F48FEF17
:105290000895DADF58F19E5758F19851A0F0E9F0DF
:1052A000983020F5092E9927660F771F881F991FC0
:1052B0000A94D1F712C0062E672F782F8827985F9F
:1052C00011F4000C07C0993FB4F386957795679564
:1052D0009395D9F7611D711D811D3EF490958095C0
:1052E000709561957F4F8F4F9F4F08956894C7CFFA
:1052F000C5CF0BD090CF81DF28F086DF18F0952343
:1053000009F072CF77CF1124BACF96DFA0F3959F23
:10531000D1F3950F50E0551F629FF001729FBB279C
:10532000F00DB11D639FAA27F00DB11DAA1F649F48
:105330006627B00DA11D661F829F2227B00DA11DFB
:10534000621F739FB00DA11D621F839FA00D611D81
:10535000221F749F3327A00D611D231F849F600DA2
:10536000211D822F762F6A2F11249F5750408AF0DB
:10537000E1F088234AF0EE0FFF1FBB1F661F771F67
:10538000881F91505040A9F79E3F510570F02CCFD7
:1053900076CF5F3FECF3983EDCF386957795679583
:1053A000B795F795E7959F5FC1F7FE2B880F911D85
:1053B0009695879597F90895F999FECF92BD81BD8D
:1053C000F89A992780B50895262FF999FECF92BDB6
:1053D00081BDF89A019700B4021639F01FBA20BDBA
:1053E0000FB6F894FA9AF99A0FBE0895A9E0B0E0C2
:1053F000ECEFF9E20C94C52B6A01F22E102F0C335E
:1054000018F4B02EB39402C0ECE3BE2EAE014F5F91
:105410005F4F27E00B2D0E94C225298130E0A901B2
:10542000497050704130510531F0E1FC06C0E0FE9A
:1054300006C0E0E205C0EDE203C0EBE201C0E0E03F
:1054400023FF37C0EE2311F084E001C083E08F1505
:1054500018F4F81A8F2D01C080E0E4FC0BC0982FDF
:10546000D60120E202C02D9391509923E1F7C80E96
:10547000D11C80E0EE2319F0D601ED936D01F60109
:105480003196E2FE05C09EE4D6019C9321E404C05F
:105490009EE6D6019C9321E611962C939183329639
:1054A000982FDF0120E202C02D9391509923E1F75C
:1054B0003DC022FF41C0EE2311F084E001C083E033
:1054C0008F1518F4F81A8F2D01C080E0E4FC0BC092
:1054D000982FD60120E202C02D9391509923E1F735
:1054E000C80ED11C80E0EE2319F0D601ED936D01BA
:1054F000F6013196E2FE09C099E4D6019C939EE440
:1055000011969C93119796E407C099E6D6019C9357
:105510009EE611969C9396E691833296982FDF0132
:1055200020E202C02D9391509923E1F7E80FF11D7D
:1055300010822EEF3FEFACC041E050E0EE2311F4BB
:1055400040E050E01816190624F4BC016F5F7F4F4D
:1055500002C061E070E0640F751F112329F0412F34
:1055600050E04F5F5F4F02C040E050E0460F571FD2
:105570006F2D70E0461757071CF40F2D041B01C058
:1055800000E0FF24A70140715070E4FC0DC0E3FC73
:105590000BC0602FD60170E202C07D93615066237C
:1055A000E1F7C00ED11C00E0EE2319F0D601ED9317
:1055B0006D014115510559F4402FF60150E302C029
:1055C000519341504423E1F7C00ED11C00E0B80EC6
:1055D000FA80A9014071507024FF04C0BF2DB1337F
:1055E00009F4BA941B142CF4AB2DA93018F0A8E0E0
:1055F00001C0A1E09C0197FF02C020E030E0BC01A7
:105600006F5F7F4F621B730BFE013196E60FF71F32
:105610006EE2E62EBC016A1B7109A12FB0E0AA243C
:10562000BB24AA1ABB0A1FEF2F3F310719F4D6017A
:10563000ED926D01821793072CF06217730714F433
:10564000108101C010E32150304031962A153B05EE
:1056500024F0D6011D936D01E6CF2817390749F4D0
:10566000BF2DB63328F4B53321F44115510509F4A3
:1056700011E3F6011193802FDF0190E202C09D93A8
:1056800081508823E1F7E00FF11D108220E030E027
:10569000C9012996EAE00C94E12BDC01FC01672F9B
:1056A00071917723E1F7329704C07C916D937083F9
:1056B0006291AE17BF07C8F30895629FD001739F30
:1056C000F001829FE00DF11D649FE00DF11D929F9E
:1056D000F00D839FF00D749FF00D659FF00D9927DD
:1056E000729FB00DE11DF91F639FB00DE11DF91F01
:1056F000BD01CF0111240895991B79E004C0991FC1
:10570000961708F0961B881F7A95C9F7809508951B
:1057100097FB092E07260AD077FD04D065D006D066
:1057200000201AF4709561957F4F0895F6F79095D3
:1057300081959F4F0895A1E21A2EAA1BBB1BFD0164
:105740000DC0AA1FBB1FEE1FFF1FA217B307E40760
:10575000F50720F0A21BB30BE40BF50B661F771FB8
:10576000881F991F1A9469F7609570958095909598
:105770009B01AC01BD01CF0108952F923F924F9242
:105780005F926F927F928F929F92AF92BF92CF92D1
:10579000DF92EF92FF920F931F93CF93DF93CDB7DA
:1057A000DEB7CA1BDB0B0FB6F894DEBF0FBECDBF52
:1057B00009942A88398848885F846E847D848C8423
:1057C0009B84AA84B984C884DF80EE80FD800C812C
:1057D0001B81AA81B981CE0FD11D0FB6F894DEBF0F
:1057E0000FBECDBFED010895AA1BBB1B51E107C041
:1057F000AA1FBB1FA617B70710F0A61BB70B881F61
:10580000991F5A95A9F780959095BC01CD010895EF
:04581000F894FFCF3A
:105814000000000200000000A607000000000000D5
:1058240000020000000060140000000000E100001D
:045834000000080068
:00000001FF
