:020000021000EC
:10E000000C9490F00C94AFF00C94AFF00C94AFF033
:10E010000C94AFF00C94AFF00C94AFF00C94AFF004
:10E020000C94AFF00C94AFF00C94AFF00C94AFF0F4
:10E030000C94AFF00C94AFF00C94AFF00C94AFF0E4
:10E040000C94AFF00C94AFF00C94AFF00C94AFF0D4
:10E050000C94AFF00C94AFF00C94AFF00C94AFF0C4
:10E060000C94AFF00C94AFF00C94AFF00C94AFF0B4
:10E070000C94AFF00C94AFF00C94AFF00C94AFF0A4
:10E080000C94AFF00C94AFF00C94AFF00C94AFF094
:10E090000C94AFF00C94AFF00C94AFF00C94AFF084
:10E0A0000C94AFF00C94AFF00C94AFF00C94AFF074
:10E0B0000C94AFF00C94AFF00C94AFF00C94AFF064
:10E0C0000C94AFF00C94AFF00C94AFF00C94AFF054
:10E0D0000C94AFF00C94AFF00C94AFF00C94AFF044
:10E0E0000C94AFF00C94AFF00C94AFF00C94AFF034
:10E0F0000C94AFF00C94AFF00C94AFF00C94AFF024
:10E100000C94AFF00C94AFF00C94AFF00C94AFF013
:10E110000C94AFF00C94AFF00C94AFF00C94AFF003
:10E1200011241FBECFEFD1E4DEBFCDBF12E0A0E0CF
:10E13000B2E0ECEAF8EE01E00BBF02C007900D92EE
:10E14000A230B107D9F713E0A2E0B2E001C01D92FE
:10E15000AD30B107E1F70E94D0F10C9454F40C9467
:10E1600000F090910202913019F0923041F0089540
:10E170009091C00095FFFCCF8093C60008959091C8
:10E18000C80095FFFCCF91B328E0922791BB809304
:10E19000CE0008951F93982F9595959595959595F3
:10E1A000905D182F1F701A304CF4105D892F0E945B
:10E1B000B1F0812F0E94B1F01F910895195A892F53
:10E1C0000E94B1F0812F0E94B1F01F910895EF924B
:10E1D000FF920F931F9380910202813089F1823068
:10E1E00031F080E01F910F91FF90EF900895EE24A1
:10E1F000FF2487018091C80087FD17C00894E11CA7
:10E20000F11C011D111D81E0E81684E2F80684EF7F
:10E21000080780E0180770F3E0910402F09105020E
:10E2200009958091C80087FFE9CF81B398E08927DD
:10E2300081BB8091CE001F910F91FF90EF900895C8
:10E24000EE24FF2487018091C00087FD17C0089449
:10E25000E11CF11C011D111D81E0E81684E2F806A5
:10E2600084EF080780E0180770F3E0910402F09152
:10E27000050209958091C00087FFE9CF8091C60013
:10E280001F910F91FF90EF9008951F930E94E7F068
:10E29000182F0E94B1F0113634F410330CF01053E3
:10E2A000812F1F9108951755812F1F9108951F9356
:10E2B0000E9445F1182F0E9445F11295107F810FA1
:10E2C0001F91089520910202882339F0213031F006
:10E2D000223061F081508823C9F708959091C000E1
:10E2E00097FFFCCF9091C6008150F5CF9091C80068
:10E2F00097FFFCCF9091CE008150EDCF1F93182F48
:10E300000E94E7F0803281F0809103028F5F80935A
:10E310000302853011F01F910895E0910402F091FD
:10E32000050209951F91089584E10E94B1F0812FA3
:10E330000E94B1F080E10E94B1F0EDCF0E94E7F0C1
:10E34000803271F0809103028F5F809303028530E9
:10E3500009F00895E0910402F091050209950895ED
:10E3600084E10E94B1F080E10E94B1F0089540E99B
:10E3700051E08823A1F08A9A28EE33E0FA01319720
:10E38000F1F721503040D1F78A9828EE33E0FA01B6
:10E390003197F1F721503040D1F7815061F708955E
:10E3A000EF92FF920F931F93CF93DF930000699832
:10E3B000719A000000000000000000000000000052
:10E3C000000000000000000000000000000000004D
:10E3D000000061994DC2719882E08093020289E148
:10E3E0008093CC001092CD001092C80086E08093FC
:10E3F000CA0088E18093C90052985A9A829A839AF7
:10E4000085E00E94B7F10E94E7F08033B1F18133DB
:10E41000B9F1803409F454C0813409F45AC082340B
:10E4200009F469C0853409F46CC0803531F1823556
:10E4300021F1813511F1853509F469C0863509F47A
:10E4400071C0843609F47AC0843709F4E1C0853795
:10E4500009F43FC1863709F44AC0809103028F5FF7
:10E4600080930302853079F6E0910402F091050271
:10E4700009950E94E7F0803351F60E949EF1C3CFC8
:10E480000E94E7F0803249F784E10E94B1F081E414
:10E490000E94B1F086E50E94B1F082E50E94B1F0E1
:10E4A00080E20E94B1F089E40E94B1F083E50E940D
:10E4B000B1F080E50E94B1F080E10E94B1F0A3CFFD
:10E4C0000E94E7F08638C8F20E94E7F00E949EF1B1
:10E4D0009ACF0E94E7F0803809F424C1813809F40A
:10E4E0001DC1823809F422C1883909F407C180E0CE
:10E4F0000E947EF188CF84E10E9462F10E949EF129
:10E5000082CF85E00E9462F10E949EF17CCF0E9442
:10E51000E7F0809306020E94E7F0809307020E94D2
:10E520009EF171CF0E94E7F0803309F4EBC083E0E5
:10E530000E9462F180E00E947EF165CF0E94E7F0C8
:10E54000809309030E94E7F08093080380910C03F5
:10E550008E7F80930C030E94E7F0853409F4FCC0A1
:10E5600080910803909109030097A1F068E0E62EDE
:10E5700062E0F62E00E010E00E94E7F0F7018193E0
:10E580007F010F5F1F4F80910803909109030817C7
:10E59000190790F30E94E7F0803209F05ECF809176
:10E5A0000C0380FFEBC08091060290910702880F58
:10E5B000991F9093070280930602209108033091DF
:10E5C000090321153105E9F048E0E42E42E0F42E7C
:10E5D00000E010E0F70161917F010E9446F4809114
:10E5E000060290910702019690930702809306021B
:10E5F0000F5F1F4F20910803309109030217130783
:10E6000048F384E10E94B1F080E10E94B1F0FBCEBA
:10E610000E94E7F0809309030E94E7F080930803CB
:10E62000809106029091070297FDA2C020910C03F1
:10E630002D7F20930C03880F991F909307028093DE
:10E6400006020E94E7F0853409F48CC080910C0327
:10E650008E7F80930C030E94E7F0803209F0D3CEC6
:10E6600084E10E94B1F08091080390910903009722
:10E6700009F440C000E010E080910602909107028A
:10E6800016C0FC0184910E94B1F080910602909125
:10E690000702019690930702809306020F5F1F4FB7
:10E6A00020910803309109030217130718F52091F0
:10E6B0000C0320FD3FC021FFE4CFA0E0B0E080507C
:10E6C0009040AF4FBF4FABBFFC0187910E94B1F0AC
:10E6D000DCCF0E94E7F0803209F0BFCE84E10E94D7
:10E6E000B1F08EE10E94B1F087EA0E94B1F081E0C2
:10E6F0000E94B1F080E10E94B1F085CE83E00E94DB
:10E700007EF181CE0E94E7F00E94E7F0082F0E9480
:10E71000E7F0002309F4A4C00130D1F081E00E94A9
:10E720007EF171CE82E00E947EF16DCE80E10E948A
:10E730007EF169CE0E943EF40E94B1F08091060203
:10E740009091070201969093070280930602A6CF4C
:10E7500087EA0E947EF157CE80910C0381608093FE
:10E760000C03FECE80910C03816080930C0373CF69
:10E7700020910C03226020930C035DCF809107024F
:10E7800087FD72C010920B0380E08BBF8091060260
:10E7900090910702880F991F9093070280930602B9
:10E7A0008091080380FF09C08091080390910903BC
:10E7B00001969093090380930803F894F999FECF8A
:10E7C0001127E0910602F0910702C8E0D2E08091A3
:10E7D000080390910903103091F4009157000170E3
:10E7E0000130D9F303E000935700E89500915700FA
:10E7F00001700130D9F301E100935700E8950990C9
:10E8000019900091570001700130D9F301E0009395
:10E810005700E8951395103898F01127009157008C
:10E8200001700130D9F305E000935700E89500919D
:10E83000570001700130D9F301E100935700E895CA
:10E840003296029709F0C7CF103011F00296E5CF4B
:10E85000112484E10E94B1F080E10E94B1F0D3CD97
:10E860008EE10E947EF1CFCD81E080930B038DCFAE
:10E87000E0910402F09105020995AECDF999FECF21
:10E8800092BD81BDF89A992780B50895262FF999F0
:10E89000FECF1FBA92BD81BD20BD0FB6F894FA9A83
:0CE8A000F99A0FBE01960895F894FFCF7E
:02E8AC008000EA
:040000031000E00009
:00000001FF
