:1000000009C018951895189518951895189518956C
:10001000189518958FE98DBFC8E9E0E94E2EDD27C8
:100020005D2EEEE3F0E0A0E6B0E088278D933197F7
:10003000E9F799D0662483E086B980E487B9379AD6
:100040008CE0D9D085D089D081E080936D001DD01F
:1000500086E580936C0068D083E080936D0015D0B6
:10006000E2E6F0E0A7E61127222703E032E012D112
:1000700081E480936C0058D080E080936D0005D0BF
:100080008AE280936C0050D0DECF80E090E0A0E662
:100090008D939C9380E080936E00AEE68C918F5F91
:1000A0008C93A0E60D911C910F931F93ADE68C915C
:1000B00090E0890F806487B9D9D0482F592F1F91BC
:1000C0000F91040F151FA0E60D931C93A0E60D9150
:1000D0001C9146E050E0041B150BA0E60D931C9309
:1000E00000916E00003409F0D8CF96E0A0E6C7D0AA
:1000F000A0E60D911C91073E53E0150710F009F0A2
:1001000001C005C080E090E0A0E68D939C93A2E63C
:10011000E0E6F0E00BD1E2E6F0E0A7E611272227C7
:1001200003E031E0B7D008958FE387BBA7E60AD09C
:10013000ACE68C915AD080E258D083E187BB089519
:10014000A8E7B0E08D91882311F04FD0FBCF089540
:1001500081E051D005D080E84EC080E84CD00895B1
:1001600083E0992774C08AEF90E071D0BD9ABB9A62
:10017000BC9ABA9AB99AB89AC09885E090E067D0CC
:10018000C198C598C398C49AC29AC19AEF93FF9335
:10019000EAE1F0E050D0FF91EF91C19855D0C19ABB
:1001A000EF93FF93EAE1F0E046D0FF91EF91C19821
:1001B0004BD0C19AEF93FF93EAE1F0E03CD0FF917E
:1001C000EF91C19841D0C298C19AEF93FF93EAE1B1
:1001D000F0E031D0FF91EF91C19836D088E20BD09A
:1001E0008EE009D086E007D00895C09A829505D0A8
:1001F00004D02AD00895C098F9CF859510F4C29AFA
:1002000001C0C298859510F4C49A01C0C498859520
:1002100010F4C39A01C0C398859510F4C59A01C023
:10022000C598C19AEF93FF93EAE1F0E004D0FF9103
:10023000EF91C19808953197F1F70895689462F8A5
:100240000895E89462F8089581E090E000C0EF938B
:10025000FF93EE27E82BE92B31F0ECE2F1E0319748
:10026000F1F70197D1F7FF91EF910895369A3699FA
:10027000FECF369A3699FECF84B195B1089590306D
:1002800041F00D911C91169507959A95E1F71C93F5
:100290000E9308952E2E3F2E992781918D3209F0CD
:1002A00093958823D1F79A95E22DF32D112361F0D0
:1002B000091718F011F0101B01C0191B28F021F0CC
:1002C00080E28D931A95E9F780818D3219F48D9330
:1002D000319604C0222311F08BE28D93091738F078
:1002E00031F0091B21F080E38D930A95E9F78191A4
:1002F0008D938823E1F7332351F0EA2FFB2F3196BA
:1003000033958E9182933A95E1F78EE28C9308951E
:10031000000F111F221F331F08950095109520957F
:1003200030950F5F1F4F2F4F3F4F08950191108160
:100330000EC001911191219130810BC0019110816A
:1003400017FF05C03FEF2FEF04C0008111272227C0
:10035000332737FF03C0E1DF8DE28D93CF93DF9327
:10036000CF92DF92EF92AA24BB24CC24DD24EE248A
:1003700040E2CAE0DD2755E093E38881890F87FDDD
:100380009F7083FD907F891B89935A95A9F7C0DFE1
:10039000AA1CBB1CCC1CDD1CEE1C4A9551F7E89432
:1003A000EFE0FF2782910ED0EB30E0F71EF068946B
:1003B0008A2D0CD088278D93EF90DF90CF90DF911E
:1003C000CF910895982F829501D0892F8F70805DED
:0E03D00026F0803309F4089568948D93089503
:00000001FF
