:1000000009C018951895189518951895189518956C
:10001000189518958FE98DBFC0E9E8E84E2EDD27C9
:100020005D2EB0D0662483E086B980E487B9379A24
:100030008CE0F0D0A4D086E580936C00A0E60D9112
:100040001C914EE350E080D0A0E60D931C9383E01A
:1000500080936D0029D04DD081E480936C00A0E6A0
:100060000D911C914EE350E06FD0A0E60D931C93D0
:1000700080E080936D0018D0E2E6F0E0A7E611275B
:10008000222703E032E015D134D0A0E60D911C9177
:100090004EE350E059D0A0E60D931C9381E080938D
:1000A0006D0002D026D0C6CF83E187BB96E0A0E6E4
:1000B000F5D0A2E6E0E6F0E048D1E2E6F0E0A7E61F
:1000C0001127222703E031E0F4D082E390E0CED084
:1000D000ADE68C9190E0890F806487B9D6D0082F67
:1000E000192F46E050E0041B150BA0E60D931C935E
:1000F00008958FE387BBA7E63CD0ACE68C9184D013
:1001000080E282D0089504D01FD000FC0CD0089566
:100110000024E89457FF02C009D0689400F80BD07F
:1001200010F80124089502D009D008955095409503
:100130004F5F5F4F0895E89417FF0895009510955D
:100140000F5F1F4F68940895752F642F552744271C
:10015000FF93F1E1889405C010F4460F571F5695A0
:10016000479517950795FA95B9F7FF910895A0E778
:10017000B0E08D91882311F047D0FBCF089580E83F
:1001800049D008958AEF90E071D0BD9ABB9ABC9A8D
:10019000BA9AB99AB89AC09885E090E067D0C198A9
:1001A000C598C398C49AC29AC19AEF93FF93EAE1A3
:1001B000F0E050D0FF91EF91C19855D0C19AEF93E4
:1001C000FF93EAE1F0E046D0FF91EF91C1984BD068
:1001D000C19AEF93FF93EAE1F0E03CD0FF91EF91F9
:1001E000C19841D0C298C19AEF93FF93EAE1F0E041
:1001F00031D0FF91EF91C19836D088E20BD08EE0DC
:1002000009D086E007D00895C09A829505D004D021
:100210002AD00895C098F9CF859510F4C29A01C0EC
:10022000C298859510F4C49A01C0C498859510F4BD
:10023000C39A01C0C398859510F4C59A01C0C598AA
:10024000C19AEF93FF93EAE1F0E004D0FF91EF91C0
:10025000C19808953197F1F70895689462F8089568
:10026000E89462F8089581E090E000C0EF93FF9376
:10027000EE27E82BE92B31F0ECE2F1E03197F1F7D2
:100280000197D1F7FF91EF910895369A3699FECFF5
:10029000369A3699FECF84B195B10895903041F0E9
:1002A0000D911C91169507959A95E1F71C930E9365
:1002B00008952E2E3F2E992781918D3209F0939526
:1002C0008823D1F79A95E22DF32D112361F00917B8
:1002D00018F011F0101B01C0191B28F021F080E26A
:1002E0008D931A95E9F780818D3219F48D933196AB
:1002F00004C0222311F08BE28D93091738F031F0FE
:10030000091B21F080E38D930A95E9F781918D9384
:100310008823E1F7332351F0EA2FFB2F31963395F1
:100320008E9182933A95E1F78EE28C930895000FB7
:10033000111F221F331F08950095109520953095A9
:100340000F5F1F4F2F4F3F4F0895019110810EC037
:1003500001911191219130810BC00191108117FF02
:1003600005C03FEF2FEF04C000811127222733275C
:1003700037FF03C0E1DF8DE28D93CF93DF93CF9200
:10038000DF92EF92AA24BB24CC24DD24EE2440E2A9
:10039000CAE0DD2755E093E38881890F87FD9F70D0
:1003A00083FD907F891B89935A95A9F7C0DFAA1C0A
:1003B000BB1CCC1CDD1CEE1C4A9551F7E894EFE009
:1003C000FF2782910ED0EB30E0F71EF068948A2D63
:1003D0000CD088278D93EF90DF90CF90DF91CF9155
:1003E0000895982F829501D0892F8F70805D26F017
:0C03F000803309F4089568948D930895FB
:00000001FF
