:1070000055C000006EC000006CC000006AC00000E7
:1070100068C0000066C0000064C0000062C00000DC
:1070200060C000005EC0000018C400005AC000002C
:1070300058C0000056C0000054C0000052C00000FC
:1070400050C000004EC000004CC000004AC000000C
:1070500048C0000046C0000044C0000042C000001C
:1070600040C000003EC000003CC000003AC000002C
:1070700038C0000036C0000034C0000032C000003C
:1070800030C000002EC000002CC000002AC000004C
:1070900028C0000026C0000024C0000022C000005C
:1070A00020C000001EC000001CC0000011241FBE34
:1070B000CFEFDAE0DEBFCDBF11E0A0E0B1E0E8EA5B
:1070C000FDE702C005900D92AC38B107D9F711E089
:1070D000ACE8B1E001C01D92AC39B107E1F7F4D2E0
:1070E00061C68ECF84E08093E9000DC08091E800F6
:1070F0008B778093E80003C08EB3882359F080918A
:10710000E80082FFF9CF8091E80085FFEFCF809102
:10711000F100089580E0089593E09093E900909144
:10712000E80095FD0DC09091E8009E779093E800EF
:1071300003C09EB3992331F09091E80090FFF9CFFE
:107140008093F10008951EB8E0918C01F0918D01BB
:107150000995089584B7877F84BF88E10FB6F894B6
:1071600080936000109260000FBE81E090E80FB63F
:10717000F89490936100809361000FBE85BF82E018
:1071800085BF53C382E061EC42E0E2D283E061E874
:1071900042E1DED284E060E842E1DAC2809194010B
:1071A000982F9F77913249F5909195019032A1F0F7
:1071B000913219F5813A09F58091E800877F809333
:1071C000E80089E091E067E070E01FD58091E80079
:1071D0008B778093E8000895813279F48091E800FC
:1071E000877F8093E80089E091E067E070E06ED5EA
:1071F0008091E8008E778093E80008954F925F9227
:107200006F927F928F929F92AF92BF92CF92DF92B6
:10721000EF92FF920F931F93CF93DF9384E08093BD
:10722000E9008091E80082FF3EC25CDF182F8534C0
:1072300019F41092080103C0843519F453DF8DE06E
:1072400008C28C34E1F38035D1F3843721F484E42F
:1072500063DF80E0FEC1813611F489E5FAC1813433
:1072600001F540DF182F3EDF282F30E0220F331FBB
:10727000442737FD4095542F712F770F60E0CB01E5
:10728000AA2797FDA095BA2F282B392B4A2B5B2BC9
:1072900020938E0130938F01409390015093910180
:1072A000CECF803711F483E5D4C1833549F4C0E0F3
:1072B000D1E0899131DF21E0C730D207D1F7CAC1CF
:1072C000863521F481E328DF80E3C3C1833731F4BD
:1072D00087E822DF85E920DF8EE1BBC1853601F535
:1072E00080E090E0A0E0B0E033E025E0FC013093E6
:1072F0005700E89507B600FCFDCF20935700E895AE
:1073000007B600FCFDCF80589F4FAF4FBF4F803076
:1073100040E7940740E0A40740E0B40739F78FCF77
:107320008C3651F4DFDE809599E0E1E0F0E0082E44
:1073300090935700E89583CF823739F4E1E0F0E08D
:1073400089E080935700849184C1863439F4E0E069
:10735000F0E089E08093570084917BC18E3439F44A
:10736000E3E0F0E089E080935700849172C18135B9
:1073700039F4E2E0F0E089E080935700849169C13C
:10738000823631F489E5C8DE80E0C6DE80E861C17E
:10739000823419F0873609F0D1C0A4DEC82EA2DEEF
:1073A000E82EA0DED82E8554823008F051C13C2D45
:1073B00020E0CE2DD0E0C22BD32B173609F044C0ED
:1073C00081E180935700E895CC24BB24B39438C066
:1073D000E0908E01F0908F01009190011091910149
:1073E0008D2D8634B9F4EC2DF0E0EE29FF2984913F
:1073F00093DECC2069F0D801C7010296A11DB11D12
:1074000080938E0190938F01A0939001B09391018E
:10741000CB2415C0D801C701B695A7959795879538
:10742000ABD47ADED801C7010296A11DB11D8093AD
:107430008E0190938F01A0939001B09391012197B9
:10744000209709F0C5CF06C140908E0150908F0162
:107450006090900170909101ED2DE63409F05AC0D2
:1074600083E0F20180935700E89507B600FCFDCF5A
:1074700051C0FD2DF63449F5CC2019F1E0908E0174
:10748000F0908F0100919001109191012BDE982EC8
:1074900088248B2D90E088299929F7010C01A0926E
:1074A0005700E8951124D801C7010296A11DB11D0E
:1074B00080938E0190938F01A0939001B0939101DE
:1074C00002C010DEB82ECA2423C0E0908E01F090D6
:1074D0008F01009190011091910116950795F794F5
:1074E000E79400DE682FC7014FD480918E01909100
:1074F0008F01A0919001B09191010296A11DB11D43
:1075000080938E0190938F01A0939001B09391018D
:10751000219704C0BB24CC24AA24A394209709F06B
:10752000A8CFFD2DF63409F08ACE85E0F2018093D4
:107530005700E89507B600FCFDCF81CE833471F487
:10754000C0918E01D0918F01CDDD90E021E0FE0150
:107550000C0120935700E895112471CE8336A9F4CD
:10756000E0908E01F0908F010091900110919101B7
:10757000B9DDF701E16090E021E00C0120935700B4
:10758000E8951124D801C70135C08D3661F4E0912A
:107590008E01F0918F0185E080935700E89507B642
:1075A00000FCFDCF4CCE823559F4E0918E01F09174
:1075B0008F01C591D4917E018F2DAEDD8C2F49C0F6
:1075C000843421F5E0908E01F0908F0100919001BC
:1075D0001091910116950795F794E79483DD682F34
:1075E000C701D2D380918E0190918F01A09190011B
:1075F000B09191010296A11DB11D80938E019093CF
:107600008F01A0939001B093910119CE8436F1F4CB
:10761000E0908E01F0908F01009190011091910106
:10762000D801C701B695A79597958795A5D374DD21
:10763000D801C7010296A11DB11D80938E019093C0
:107640008F01A0939001B093910104C08B3111F090
:107650008FE362DD83E08093E9009091E800809100
:10766000E8008E778093E80095FF04C010C08EB3C9
:107670008823C9F08091E80080FFF9CF8091E8006D
:107680008E778093E80003C08EB3882361F08091E9
:10769000E80080FFF9CF84E08093E9008091E80062
:1076A0008B778093E800DF91CF911F910F91FF902E
:1076B000EF90DF90CF90BF90AF909F908F907F9092
:1076C0006F905F904F900895729A629B02C03BDD6D
:1076D000FFCF40DD789402C091DD3CD3809108015A
:1076E0008823D1F78091E00081608093E0002CE056
:1076F00088E190E00FB6F894A895809360000FBEE3
:1077000020936000FFCF923049F0933061F09130C8
:1077100089F020E030E080E090E015C02EE330E01A
:1077200082E291E010C0882351F424E030E080E64A
:1077300091E009C022E130E080E191E004C026E25E
:1077400030E084E691E0FA0191838083C9010895D5
:107750008093E900EBEEF0E0808181608083EDEEC4
:10776000F0E010826093EC0040838091EE00881F6F
:107770008827881F08958091940187FF11C003C056
:107780008EB38823B1F08091E80082FFF9CF809119
:10779000E8008B778093E80008958EB3882349F042
:1077A0008091E80080FFF9CF8091E8008E77809388
:1077B000E80008950F931F93CF93DF9341D048D0F3
:1077C000C8EDD0E08881982F9F7798838068888360
:1077D00088818F7D888319BC1EBA1092920100EEB9
:1077E00010E0F80180818B7F8083888181608883AD
:1077F00080E060E042E0ACDFE1EEF0E080818E7F8F
:107800008083E2EEF0E08081816080838081886007
:107810008083F80180818E7F808388818061888366
:10782000DF91CF911F910F910895E7EDF0E08081F6
:10783000816080838AE482BF81E080939301BACF24
:10784000E8EDF0E080818E7F80831092E200089561
:107850001092DA001092E10008951F920F920FB675
:107860000F9211242F933F934F935F936F937F93C6
:107870008F939F93AF93BF93EF93FF938091DA0021
:1078800080FF1CC08091D80080FF18C08091DA0072
:107890008E7F8093DA008091D90080FF0CC080E158
:1078A00089BD89B5826089BD09B400FEFDCF81E044
:1078B0008EBBAAD103C019BC1EBAA6D18091E1002B
:1078C00080FF17C08091E20080FF13C08091E2002A
:1078D0008E7F8093E2008091E20080618093E200DD
:1078E0008091D80080628093D80019BC85E08EBB5F
:1078F0008BD18091E10084FF2DC08091E20084FF54
:1079000029C080E189BD89B5826089BD09B400FEC6
:10791000FDCF8091D8008F7D8093D8008091E100C9
:107920008F7E8093E1008091E2008F7E8093E20061
:107930008091E20081608093E2008091920188232F
:1079400021F48091E30087FF02C084E001C081E060
:107950008EBB5AD18091E10083FF21C08091E2006B
:1079600083FF1DC08091E100877F8093E10082E06A
:107970008EBB109292018091E1008E7F8093E10096
:107980008091E2008E7F8093E2008091E20080612E
:107990008093E20080E060E042E0DADE35D1FF91E2
:1079A000EF91BF91AF919F918F917F916F915F9177
:1079B0004F913F912F910F900FBE0F901F901895F0
:1079C0000F931F93DF93CF9300D0CDB7DEB7809195
:1079D000F100809394018091F10080939501909142
:1079E000F1008091F100E6E9F1E090939601818346
:1079F0009091F1008091F100909398018383909190
:107A0000F1008091F10090939A018583C7DB80910A
:107A1000E80083FFE4C08091940190919501953036
:107A200009F46BC0963040F4913061F1913070F000
:107A3000933009F0D4C026C0983009F4A3C099301F
:107A400009F4B2C0963009F0CAC07CC0803809F48D
:107A5000C6C0823809F0C3C08091980187708093B6
:107A6000E9009091EB001092E9008091E800877F97
:107A70008093E80081E095FF80E08093F100109210
:107A8000F1008BC0882319F0823009F0A8C08F71F3
:107A9000823009F0A4C080919601882341F520919D
:107AA0009801277009F49BC02093E9008091EB00B6
:107AB00080FF1DC080919501833021F48091EB00FF
:107AC000806213C08091EB0080618093EB0081E0C5
:107AD00090E002C0880F991F2A95E2F78093EA0090
:107AE0001092EA008091EB0088608093EB00109286
:107AF000E9008091E800877F53C0882309F06FC0B8
:107B0000109196011F770FB7F8948091E800877F56
:107B10008093E80030DE8091E80080FFFCCF809108
:107B2000E3008078812B8093E3008091E3008068FC
:107B30008093E300112311F083E001C082E08EBB4B
:107B40000FBF4DC08058823008F049C08091960127
:107B50009091970160919801AE014F5F5F4FD3DD27
:107B6000BC01009709F43BC08091E800877F8093B7
:107B7000E80089819A8149D08091E8008B778093D1
:107B8000E8002DC0803859F58091E800877F809308
:107B9000E800809192018093F1008091E8008E7757
:107BA0008093E800E8DD1BC08823C9F4909196011A
:107BB0009230A8F48091E800877F8093E80090934A
:107BC0009201D9DD80919201882321F48091E30014
:107BD00087FF02C084E001C081E08EBBD3DA8091D0
:107BE000E80083FF0AC08091EB0080628093EB0085
:107BF0008091E800877F8093E8000F900F90CF91ED
:107C0000DF911F910F9108950895482F592FFA0180
:107C100080919A0190919B018617970718F4BC01F7
:107C200040E03BC061157105D9F78091E8008E777F
:107C30008093E800F5CF8EB3882309F443C08530E4
:107C4000E9F18091E80083FD3BC08091E80082FD6E
:107C50002FC08091E80080FF20C09091F3008091B8
:107C6000F200392F20E090E0822B932B06C0419147
:107C70004093F1006150704001966115710519F053
:107C800088309105A0F341E08830910509F040E08B
:107C90008091E8008E778093E8006115710559F6B0
:107CA000442349F605C08EB3882361F0853061F026
:107CB0008091E80082FFF7CF80E0089583E0089587
:107CC00081E0089582E0089583E0089561157105CB
:107CD00051F524C04EB34423C9F1453099F1409188
:107CE000E80043FD31C04091E80042FFF3CFE82FA8
:107CF000F92F07C08091F1008193CF01615070404E
:107D000069F0CF015091F3004091F200352F20E04F
:107D100050E0422B532B4115510561F74091E8008B
:107D20004B774093E80061157105A1F605C08EB34D
:107D3000882361F0853061F08091E80080FFF7CF03
:107D400080E0089583E0089581E0089582E0089539
:107D500083E008951F938EB3882361F01091E900AA
:107D600017701092E9008091E80083FF01C028DEBF
:107D70001093E9001F910895F999FECF92BD81BD3E
:107D8000F89A992780B50895262FF999FECF1FBA42
:107D900092BD81BD20BD0FB6F894FA9AF99A0FBE34
:087DA00001960895F894FFCF4D
:107DA8004C554641434443000100000000000008D0
:107DB8001201100102000008EB034A200100000133
:107DC800000109023E00020100803209040000019E
:107DD80002020100052400100104240204052406FF
:107DE8000001070582030800FF09040100020A00D8
:107DF80000000705040210000107058302100001B6
:107E080004030904260341005600520020004300E1
:107E180044004300200042006F006F0074006C00B3
:0C7E28006F006100640065007200000043
:040000030000700089
:00000001FF
